{
	"data": {
		"bytecode": {
			"linkReferences": {},
			"object": "610160604052348015610010575f80fd5b506040516164fe3803806164fe83398181016040528101906100329190611302565b6040518060400160405280600881526020017f5745535453494445000000000000000000000000000000000000000000000000815250806040518060400160405280600181526020017f31000000000000000000000000000000000000000000000000000000000000008152506040518060400160405280600881526020017f57455354534944450000000000000000000000000000000000000000000000008152506040518060400160405280600381526020017f5753430000000000000000000000000000000000000000000000000000000000815250816003908161011a919061158c565b50806004908161012a919061158c565b5050505f60055f6101000a81548160ff02191690831515021790555061015a6007836102a560201b90919060201c565b61012081815250506101766008826102a560201b90919060201c565b6101408181525050818051906020012060e08181525050808051906020012061010081815250504660a081815250506101b36102f260201b60201c565b608081815250503073ffffffffffffffffffffffffffffffffffffffff1660c08173ffffffffffffffffffffffffffffffffffffffff16815250505050506102035f801b8461034c60201b60201c565b506102347f65d7a28e3265b37a6474929f336521b332c1681b933f6cb9f3376673440d862a8361034c60201b60201c565b5061026c3361024761044260201b60201c565b600a61025391906117c3565b620f4240610261919061180d565b61044a60201b60201c565b61029c7f9f2df0fed2c77648de5860a4cc508cd0818c85b8b8a1ab4ceeef8d981c8956a68261034c60201b60201c565b50505050611c61565b5f6020835110156102c6576102bf836104cf60201b60201c565b90506102ec565b826102d68361053460201b60201c565b5f0190816102e4919061158c565b5060ff5f1b90505b92915050565b5f7f8b73c3c69bb8fe3d512ecc4cf759cc79239f7b179b0ffacaa9a75d522b39400f60e051610100514630604051602001610331959493929190611884565b60405160208183030381529060405280519060200120905090565b5f61035d838361053d60201b60201c565b61043857600160065f8581526020019081526020015f205f015f8473ffffffffffffffffffffffffffffffffffffffff1673ffffffffffffffffffffffffffffffffffffffff1681526020019081526020015f205f6101000a81548160ff0219169083151502179055506103d56105a160201b60201c565b73ffffffffffffffffffffffffffffffffffffffff168273ffffffffffffffffffffffffffffffffffffffff16847f2f8788117e7eff1d82e926ec794901d17c78024a50270940304540a733656f0d60405160405180910390a46001905061043c565b5f90505b92915050565b5f6012905090565b5f73ffffffffffffffffffffffffffffffffffffffff168273ffffffffffffffffffffffffffffffffffffffff16036104ba575f6040517fec442f050000000000000000000000000000000000000000000000000000000081526004016104b191906118d5565b60405180910390fd5b6104cb5f83836105a860201b60201c565b5050565b5f80829050601f8151111561051b57826040517f305a27a90000000000000000000000000000000000000000000000000000000081526004016105129190611954565b60405180910390fd5b805181610527906119a1565b5f1c175f1b915050919050565b5f819050919050565b5f60065f8481526020019081526020015f205f015f8373ffffffffffffffffffffffffffffffffffffffff1673ffffffffffffffffffffffffffffffffffffffff1681526020019081526020015f205f9054906101000a900460ff16905092915050565b5f33905090565b6105b98383836105be60201b60201c565b505050565b6105cf83838361068460201b60201c565b5f73ffffffffffffffffffffffffffffffffffffffff168373ffffffffffffffffffffffffffffffffffffffff160361066e575f6106116106a860201b60201c565b90505f6106226106b160201b60201c565b90508082111561066b5781816040517f1cb15d26000000000000000000000000000000000000000000000000000000008152600401610662929190611a07565b60405180910390fd5b50505b61067f8383836106d460201b60201c565b505050565b6106926107c460201b60201c565b6106a383838361080b60201b60201c565b505050565b5f600254905090565b5f79ffffffffffffffffffffffffffffffffffffffffffffffffffff8016905090565b5f73ffffffffffffffffffffffffffffffffffffffff168373ffffffffffffffffffffffffffffffffffffffff160361073357610730600c610a2460201b61166f1761072584610a3960201b60201c565b610aa660201b60201c565b50505b5f73ffffffffffffffffffffffffffffffffffffffff168273ffffffffffffffffffffffffffffffffffffffff16036107925761078f600c610aee60201b6116841761078484610a3960201b60201c565b610aa660201b60201c565b50505b6107bf6107a484610b0360201b60201c565b6107b384610b0360201b60201c565b83610b6860201b60201c565b505050565b6107d2610dfe60201b60201c565b15610809576040517fd93c066500000000000000000000000000000000000000000000000000000000815260040160405180910390fd5b565b5f73ffffffffffffffffffffffffffffffffffffffff168373ffffffffffffffffffffffffffffffffffffffff160361085b578060025f82825461084f9190611a2e565b92505081905550610929565b5f805f8573ffffffffffffffffffffffffffffffffffffffff1673ffffffffffffffffffffffffffffffffffffffff1681526020019081526020015f20549050818110156108e4578381836040517fe450d38c0000000000000000000000000000000000000000000000000000000081526004016108db93929190611a61565b60405180910390fd5b8181035f808673ffffffffffffffffffffffffffffffffffffffff1673ffffffffffffffffffffffffffffffffffffffff1681526020019081526020015f2081905550505b5f73ffffffffffffffffffffffffffffffffffffffff168273ffffffffffffffffffffffffffffffffffffffff1603610970578060025f82825403925050819055506109ba565b805f808473ffffffffffffffffffffffffffffffffffffffff1673ffffffffffffffffffffffffffffffffffffffff1681526020019081526020015f205f82825401925050819055505b8173ffffffffffffffffffffffffffffffffffffffff168373ffffffffffffffffffffffffffffffffffffffff167fddf252ad1be2c89b69c2b068fc378daa952ba7f163c4a11628f55a4df523b3ef83604051610a179190611a96565b60405180910390a3505050565b5f8183610a319190611ad4565b905092915050565b5f79ffffffffffffffffffffffffffffffffffffffffffffffffffff8016821115610a9e5760d0826040517f6dfcc650000000000000000000000000000000000000000000000000000000008152600401610a95929190611b5a565b60405180910390fd5b819050919050565b5f80610ae2610ab9610e1360201b60201c565b610ad2610acb88610e2760201b60201c565b868860201c565b87610e8f60201b9092919060201c565b91509150935093915050565b5f8183610afb9190611b81565b905092915050565b5f600a5f8373ffffffffffffffffffffffffffffffffffffffff1673ffffffffffffffffffffffffffffffffffffffff1681526020019081526020015f205f9054906101000a900473ffffffffffffffffffffffffffffffffffffffff169050919050565b8173ffffffffffffffffffffffffffffffffffffffff168373ffffffffffffffffffffffffffffffffffffffff1614158015610ba357505f81115b15610df9575f73ffffffffffffffffffffffffffffffffffffffff168373ffffffffffffffffffffffffffffffffffffffff1614610cd0575f80610c41600b5f8773ffffffffffffffffffffffffffffffffffffffff1673ffffffffffffffffffffffffffffffffffffffff1681526020019081526020015f20610aee60201b61168417610c3686610a3960201b60201c565b610aa660201b60201c565b79ffffffffffffffffffffffffffffffffffffffffffffffffffff16915079ffffffffffffffffffffffffffffffffffffffffffffffffffff1691508473ffffffffffffffffffffffffffffffffffffffff167fdec2bacdd2f05b59de34da9b523dff8be42e5e38e818c82fdb0bae774387a7248383604051610cc5929190611a07565b60405180910390a250505b5f73ffffffffffffffffffffffffffffffffffffffff168273ffffffffffffffffffffffffffffffffffffffff1614610df8575f80610d69600b5f8673ffffffffffffffffffffffffffffffffffffffff1673ffffffffffffffffffffffffffffffffffffffff1681526020019081526020015f20610a2460201b61166f17610d5e86610a3960201b60201c565b610aa660201b60201c565b79ffffffffffffffffffffffffffffffffffffffffffffffffffff16915079ffffffffffffffffffffffffffffffffffffffffffffffffffff1691508373ffffffffffffffffffffffffffffffffffffffff167fdec2bacdd2f05b59de34da9b523dff8be42e5e38e818c82fdb0bae774387a7248383604051610ded929190611a07565b60405180910390a250505b5b505050565b5f60055f9054906101000a900460ff16905090565b5f610e22610eb060201b60201c565b905090565b5f80825f018054905090505f8114610e8557610e57835f01600183610e4c9190611bce565b610ec560201b60201c565b5f0160069054906101000a900479ffffffffffffffffffffffffffffffffffffffffffffffffffff16610e87565b5f5b915050919050565b5f80610ea4855f018585610ed760201b60201c565b91509150935093915050565b5f610ec04361124b60201b60201c565b905090565b5f825f528160205f2001905092915050565b5f805f858054905090505f811115611163575f610f0687600184610efb9190611bce565b610ec560201b60201c565b6040518060400160405290815f82015f9054906101000a900465ffffffffffff1665ffffffffffff1665ffffffffffff1681526020015f820160069054906101000a900479ffffffffffffffffffffffffffffffffffffffffffffffffffff1679ffffffffffffffffffffffffffffffffffffffffffffffffffff1679ffffffffffffffffffffffffffffffffffffffffffffffffffff168152505090508565ffffffffffff16815f015165ffffffffffff161115610ff1576040517f2520601d00000000000000000000000000000000000000000000000000000000815260040160405180910390fd5b8565ffffffffffff16815f015165ffffffffffff160361107957846110288860018561101d9190611bce565b610ec560201b60201c565b5f0160066101000a81548179ffffffffffffffffffffffffffffffffffffffffffffffffffff021916908379ffffffffffffffffffffffffffffffffffffffffffffffffffff160217905550611152565b8660405180604001604052808865ffffffffffff1681526020018779ffffffffffffffffffffffffffffffffffffffffffffffffffff16815250908060018154018082558091505060019003905f5260205f20015f909190919091505f820151815f015f6101000a81548165ffffffffffff021916908365ffffffffffff1602179055506020820151815f0160066101000a81548179ffffffffffffffffffffffffffffffffffffffffffffffffffff021916908379ffffffffffffffffffffffffffffffffffffffffffffffffffff16021790555050505b806020015185935093505050611243565b8560405180604001604052808765ffffffffffff1681526020018679ffffffffffffffffffffffffffffffffffffffffffffffffffff16815250908060018154018082558091505060019003905f5260205f20015f909190919091505f820151815f015f6101000a81548165ffffffffffff021916908365ffffffffffff1602179055506020820151815f0160066101000a81548179ffffffffffffffffffffffffffffffffffffffffffffffffffff021916908379ffffffffffffffffffffffffffffffffffffffffffffffffffff16021790555050505f8492509250505b935093915050565b5f65ffffffffffff801682111561129c576030826040517f6dfcc650000000000000000000000000000000000000000000000000000000008152600401611293929190611c3a565b60405180910390fd5b819050919050565b5f80fd5b5f73ffffffffffffffffffffffffffffffffffffffff82169050919050565b5f6112d1826112a8565b9050919050565b6112e1816112c7565b81146112eb575f80fd5b50565b5f815190506112fc816112d8565b92915050565b5f805f60608486031215611319576113186112a4565b5b5f611326868287016112ee565b9350506020611337868287016112ee565b9250506040611348868287016112ee565b9150509250925092565b5f81519050919050565b7f4e487b71000000000000000000000000000000000000000000000000000000005f52604160045260245ffd5b7f4e487b71000000000000000000000000000000000000000000000000000000005f52602260045260245ffd5b5f60028204905060018216806113cd57607f821691505b6020821081036113e0576113df611389565b5b50919050565b5f819050815f5260205f209050919050565b5f6020601f8301049050919050565b5f82821b905092915050565b5f600883026114427fffffffffffffffffffffffffffffffffffffffffffffffffffffffffffffffff82611407565b61144c8683611407565b95508019841693508086168417925050509392505050565b5f819050919050565b5f819050919050565b5f61149061148b61148684611464565b61146d565b611464565b9050919050565b5f819050919050565b6114a983611476565b6114bd6114b582611497565b848454611413565b825550505050565b5f90565b6114d16114c5565b6114dc8184846114a0565b505050565b5b818110156114ff576114f45f826114c9565b6001810190506114e2565b5050565b601f82111561154457611515816113e6565b61151e846113f8565b8101602085101561152d578190505b611541611539856113f8565b8301826114e1565b50505b505050565b5f82821c905092915050565b5f6115645f1984600802611549565b1980831691505092915050565b5f61157c8383611555565b9150826002028217905092915050565b61159582611352565b67ffffffffffffffff8111156115ae576115ad61135c565b5b6115b882546113b6565b6115c3828285611503565b5f60209050601f8311600181146115f4575f84156115e2578287015190505b6115ec8582611571565b865550611653565b601f198416611602866113e6565b5f5b8281101561162957848901518255600182019150602085019450602081019050611604565b868310156116465784890151611642601f891682611555565b8355505b6001600288020188555050505b505050505050565b7f4e487b71000000000000000000000000000000000000000000000000000000005f52601160045260245ffd5b5f8160011c9050919050565b5f808291508390505b60018511156116dd578086048111156116b9576116b861165b565b5b60018516156116c85780820291505b80810290506116d685611688565b945061169d565b94509492505050565b5f826116f557600190506117b0565b81611702575f90506117b0565b8160018114611718576002811461172257611751565b60019150506117b0565b60ff8411156117345761173361165b565b5b8360020a91508482111561174b5761174a61165b565b5b506117b0565b5060208310610133831016604e8410600b84101617156117865782820a9050838111156117815761178061165b565b5b6117b0565b6117938484846001611694565b925090508184048111156117aa576117a961165b565b5b81810290505b9392505050565b5f60ff82169050919050565b5f6117cd82611464565b91506117d8836117b7565b92506118057fffffffffffffffffffffffffffffffffffffffffffffffffffffffffffffffff84846116e6565b905092915050565b5f61181782611464565b915061182283611464565b925082820261183081611464565b915082820484148315176118475761184661165b565b5b5092915050565b5f819050919050565b6118608161184e565b82525050565b61186f81611464565b82525050565b61187e816112c7565b82525050565b5f60a0820190506118975f830188611857565b6118a46020830187611857565b6118b16040830186611857565b6118be6060830185611866565b6118cb6080830184611875565b9695505050505050565b5f6020820190506118e85f830184611875565b92915050565b5f82825260208201905092915050565b8281835e5f83830152505050565b5f601f19601f8301169050919050565b5f61192682611352565b61193081856118ee565b93506119408185602086016118fe565b6119498161190c565b840191505092915050565b5f6020820190508181035f83015261196c818461191c565b905092915050565b5f81519050919050565b5f819050602082019050919050565b5f611998825161184e565b80915050919050565b5f6119ab82611974565b826119b58461197e565b90506119c08161198d565b92506020821015611a00576119fb7fffffffffffffffffffffffffffffffffffffffffffffffffffffffffffffffff83602003600802611407565b831692505b5050919050565b5f604082019050611a1a5f830185611866565b611a276020830184611866565b9392505050565b5f611a3882611464565b9150611a4383611464565b9250828201905080821115611a5b57611a5a61165b565b5b92915050565b5f606082019050611a745f830186611875565b611a816020830185611866565b611a8e6040830184611866565b949350505050565b5f602082019050611aa95f830184611866565b92915050565b5f79ffffffffffffffffffffffffffffffffffffffffffffffffffff82169050919050565b5f611ade82611aaf565b9150611ae983611aaf565b9250828201905079ffffffffffffffffffffffffffffffffffffffffffffffffffff811115611b1b57611b1a61165b565b5b92915050565b5f819050919050565b5f611b44611b3f611b3a84611b21565b61146d565b6117b7565b9050919050565b611b5481611b2a565b82525050565b5f604082019050611b6d5f830185611b4b565b611b7a6020830184611866565b9392505050565b5f611b8b82611aaf565b9150611b9683611aaf565b9250828203905079ffffffffffffffffffffffffffffffffffffffffffffffffffff811115611bc857611bc761165b565b5b92915050565b5f611bd882611464565b9150611be383611464565b9250828203905081811115611bfb57611bfa61165b565b5b92915050565b5f819050919050565b5f611c24611c1f611c1a84611c01565b61146d565b6117b7565b9050919050565b611c3481611c0a565b82525050565b5f604082019050611c4d5f830185611c2b565b611c5a6020830184611866565b9392505050565b60805160a05160c05160e05161010051610120516101405161484c611cb25f395f61200f01525f611fd401525f61246f01525f61244e01525f61199e01525f6119f401525f611a1d015261484c5ff3fe608060405234801561000f575f80fd5b5060043610610251575f3560e01c80636fcfff45116101445780639ab24eb0116100c1578063d539139311610085578063d53913931461074b578063d547741f14610769578063d9d98ce414610785578063dd62ed3e146107b5578063e63ab1e9146107e5578063f1127ed81461080357610251565b80639ab24eb014610695578063a217fddf146106c5578063a9059cbb146106e3578063c3cda52014610713578063d505accf1461072f57610251565b806384b0196e1161010857806384b0196e146105d55780638e539e8c146105f957806391d148541461062957806391ddadf41461065957806395d89b411461067757610251565b80636fcfff451461051f57806370a082311461054f57806379cc67901461057f5780637ecebe001461059b5780638456cb59146105cb57610251565b80633a46b1a8116101d2578063587cde1e11610196578063587cde1e146104555780635c19a95c146104855780635c975abb146104a15780635cffe9de146104bf578063613255ab146104ef57610251565b80633a46b1a8146103c55780633f4ba83a146103f557806340c10f19146103ff57806342966c681461041b5780634bf5d7e91461043757610251565b8063248a9ca311610219578063248a9ca3146103215780632f2ff15d14610351578063313ce5671461036d5780633644e5151461038b57806336568abe146103a957610251565b806301ffc9a71461025557806306fdde0314610285578063095ea7b3146102a357806318160ddd146102d357806323b872dd146102f1575b5f80fd5b61026f600480360381019061026a9190613845565b610833565b60405161027c919061388a565b60405180910390f35b61028d6108ac565b60405161029a9190613913565b60405180910390f35b6102bd60048036038101906102b891906139c0565b61093c565b6040516102ca919061388a565b60405180910390f35b6102db61095e565b6040516102e89190613a0d565b60405180910390f35b61030b60048036038101906103069190613a26565b610967565b604051610318919061388a565b60405180910390f35b61033b60048036038101906103369190613aa9565b610995565b6040516103489190613ae3565b60405180910390f35b61036b60048036038101906103669190613afc565b6109b2565b005b6103756109d4565b6040516103829190613b55565b60405180910390f35b6103936109dc565b6040516103a09190613ae3565b60405180910390f35b6103c360048036038101906103be9190613afc565b6109ea565b005b6103df60048036038101906103da91906139c0565b610a65565b6040516103ec9190613a0d565b60405180910390f35b6103fd610b3b565b005b610419600480360381019061041491906139c0565b610b70565b005b61043560048036038101906104309190613b6e565b610ba9565b005b61043f610bbd565b60405161044c9190613913565b60405180910390f35b61046f600480360381019061046a9190613b99565b610c51565b60405161047c9190613bd3565b60405180910390f35b61049f600480360381019061049a9190613b99565b610cb6565b005b6104a9610ccf565b6040516104b6919061388a565b60405180910390f35b6104d960048036038101906104d49190613c88565b610ce4565b6040516104e6919061388a565b60405180910390f35b61050960048036038101906105049190613b99565b610ed9565b6040516105169190613a0d565b60405180910390f35b61053960048036038101906105349190613b99565b610f4e565b6040516105469190613d2a565b60405180910390f35b61056960048036038101906105649190613b99565b610f5f565b6040516105769190613a0d565b60405180910390f35b610599600480360381019061059491906139c0565b610fa4565b005b6105b560048036038101906105b09190613b99565b610fc4565b6040516105c29190613a0d565b60405180910390f35b6105d3610fd5565b005b6105dd61100a565b6040516105f09796959493929190613e34565b60405180910390f35b610613600480360381019061060e9190613b6e565b6110af565b6040516106209190613a0d565b60405180910390f35b610643600480360381019061063e9190613afc565b611149565b604051610650919061388a565b60405180910390f35b6106616111ad565b60405161066e9190613ed6565b60405180910390f35b61067f6111bb565b60405161068c9190613913565b60405180910390f35b6106af60048036038101906106aa9190613b99565b61124b565b6040516106bc9190613a0d565b60405180910390f35b6106cd6112b4565b6040516106da9190613ae3565b60405180910390f35b6106fd60048036038101906106f891906139c0565b6112ba565b60405161070a919061388a565b60405180910390f35b61072d60048036038101906107289190613f19565b6112dc565b005b61074960048036038101906107449190613fa2565b6113a1565b005b6107536114e6565b6040516107609190613ae3565b60405180910390f35b610783600480360381019061077e9190613afc565b61150a565b005b61079f600480360381019061079a91906139c0565b61152c565b6040516107ac9190613a0d565b60405180910390f35b6107cf60048036038101906107ca919061403f565b6115af565b6040516107dc9190613a0d565b60405180910390f35b6107ed611631565b6040516107fa9190613ae3565b60405180910390f35b61081d600480360381019061081891906140a7565b611655565b60405161082a9190614155565b60405180910390f35b5f7f7965db0b000000000000000000000000000000000000000000000000000000007bffffffffffffffffffffffffffffffffffffffffffffffffffffffff1916827bffffffffffffffffffffffffffffffffffffffffffffffffffffffff191614806108a557506108a482611699565b5b9050919050565b6060600380546108bb9061419b565b80601f01602080910402602001604051908101604052809291908181526020018280546108e79061419b565b80156109325780601f1061090957610100808354040283529160200191610932565b820191905f5260205f20905b81548152906001019060200180831161091557829003601f168201915b5050505050905090565b5f80610946611702565b9050610953818585611709565b600191505092915050565b5f600254905090565b5f80610971611702565b905061097e85828561171b565b6109898585856117ad565b60019150509392505050565b5f60065f8381526020019081526020015f20600101549050919050565b6109bb82610995565b6109c48161189d565b6109ce83836118b1565b50505050565b5f6012905090565b5f6109e561199b565b905090565b6109f2611702565b73ffffffffffffffffffffffffffffffffffffffff168173ffffffffffffffffffffffffffffffffffffffff1614610a56576040517f6697b23200000000000000000000000000000000000000000000000000000000815260040160405180910390fd5b610a608282611a51565b505050565b5f80610a6f6111ad565b90508065ffffffffffff168310610abf5782816040517fecd3f81e000000000000000000000000000000000000000000000000000000008152600401610ab69291906141cb565b60405180910390fd5b610b16610acb84611b3b565b600b5f8773ffffffffffffffffffffffffffffffffffffffff1673ffffffffffffffffffffffffffffffffffffffff1681526020019081526020015f20611b9490919063ffffffff16565b79ffffffffffffffffffffffffffffffffffffffffffffffffffff1691505092915050565b7f65d7a28e3265b37a6474929f336521b332c1681b933f6cb9f3376673440d862a610b658161189d565b610b6d611c81565b50565b7f9f2df0fed2c77648de5860a4cc508cd0818c85b8b8a1ab4ceeef8d981c8956a6610b9a8161189d565b610ba48383611ce2565b505050565b610bba610bb4611702565b82611d61565b50565b6060610bc7611de0565b65ffffffffffff16610bd76111ad565b65ffffffffffff1614610c16576040517f6ff0714000000000000000000000000000000000000000000000000000000000815260040160405180910390fd5b6040518060400160405280601d81526020017f6d6f64653d626c6f636b6e756d6265722666726f6d3d64656661756c74000000815250905090565b5f600a5f8373ffffffffffffffffffffffffffffffffffffffff1673ffffffffffffffffffffffffffffffffffffffff1681526020019081526020015f205f9054906101000a900473ffffffffffffffffffffffffffffffffffffffff169050919050565b5f610cbf611702565b9050610ccb8183611def565b5050565b5f60055f9054906101000a900460ff16905090565b5f80610cef86610ed9565b905080851115610d3657806040517ffd9a7609000000000000000000000000000000000000000000000000000000008152600401610d2d9190613a0d565b60405180910390fd5b5f610d41878761152c565b9050610d4d8887611ce2565b7f439148f0bbc682ca079e46d6e2c2f0c1e3b820f1a291b069d8882abf8cf18dd98873ffffffffffffffffffffffffffffffffffffffff166323e30c8b610d92611702565b8a8a868b8b6040518763ffffffff1660e01b8152600401610db89695949392919061423c565b6020604051808303815f875af1158015610dd4573d5f803e3d5ffd5b505050506040513d601f19601f82011682018060405250810190610df891906142aa565b14610e3a57876040517f678c5b00000000000000000000000000000000000000000000000000000000008152600401610e319190613bd3565b60405180910390fd5b5f610e43611eff565b9050610e5b8930848a610e569190614302565b61171b565b5f821480610e9457505f73ffffffffffffffffffffffffffffffffffffffff168173ffffffffffffffffffffffffffffffffffffffff16145b15610eb357610eae898389610ea99190614302565b611d61565b610ec9565b610ebd8988611d61565b610ec88982846117ad565b5b6001935050505095945050505050565b5f3073ffffffffffffffffffffffffffffffffffffffff168273ffffffffffffffffffffffffffffffffffffffff1614610f13575f610f47565b610f1b61095e565b7fffffffffffffffffffffffffffffffffffffffffffffffffffffffffffffffff610f469190614335565b5b9050919050565b5f610f5882611f03565b9050919050565b5f805f8373ffffffffffffffffffffffffffffffffffffffff1673ffffffffffffffffffffffffffffffffffffffff1681526020019081526020015f20549050919050565b610fb682610fb0611702565b8361171b565b610fc08282611d61565b5050565b5f610fce82611f58565b9050919050565b7f65d7a28e3265b37a6474929f336521b332c1681b933f6cb9f3376673440d862a610fff8161189d565b611007611f69565b50565b5f6060805f805f606061101b611fcb565b611023612006565b46305f801b5f67ffffffffffffffff81111561104257611041614368565b5b6040519080825280602002602001820160405280156110705781602001602082028036833780820191505090505b507f0f00000000000000000000000000000000000000000000000000000000000000959493929190965096509650965096509650965090919293949596565b5f806110b96111ad565b90508065ffffffffffff1683106111095782816040517fecd3f81e0000000000000000000000000000000000000000000000000000000081526004016111009291906141cb565b60405180910390fd5b61112561111584611b3b565b600c611b9490919063ffffffff16565b79ffffffffffffffffffffffffffffffffffffffffffffffffffff16915050919050565b5f60065f8481526020019081526020015f205f015f8373ffffffffffffffffffffffffffffffffffffffff1673ffffffffffffffffffffffffffffffffffffffff1681526020019081526020015f205f9054906101000a900460ff16905092915050565b5f6111b6611de0565b905090565b6060600480546111ca9061419b565b80601f01602080910402602001604051908101604052809291908181526020018280546111f69061419b565b80156112415780601f1061121857610100808354040283529160200191611241565b820191905f5260205f20905b81548152906001019060200180831161122457829003601f168201915b5050505050905090565b5f611291600b5f8473ffffffffffffffffffffffffffffffffffffffff1673ffffffffffffffffffffffffffffffffffffffff1681526020019081526020015f20612041565b79ffffffffffffffffffffffffffffffffffffffffffffffffffff169050919050565b5f801b81565b5f806112c4611702565b90506112d18185856117ad565b600191505092915050565b8342111561132157836040517f4683af0e0000000000000000000000000000000000000000000000000000000081526004016113189190613a0d565b60405180910390fd5b5f61138261137a7fe48329057bfd03d55e49b547132e39cffd9c1820ad7b9d4c5307691425d15adf89898960405160200161135f9493929190614395565b604051602081830303815290604052805190602001206120a3565b8585856120bc565b905061138e81876120ea565b6113988188611def565b50505050505050565b834211156113e657836040517f627913020000000000000000000000000000000000000000000000000000000081526004016113dd9190613a0d565b60405180910390fd5b5f7f6e71edae12b1b97f4d1f60370fef10105fa2faae0126114a169c64845d6126c98888886114148c612141565b8960405160200161142a969594939291906143d8565b6040516020818303038152906040528051906020012090505f61144c826120a3565b90505f61145b828787876120bc565b90508973ffffffffffffffffffffffffffffffffffffffff168173ffffffffffffffffffffffffffffffffffffffff16146114cf57808a6040517f4b800e460000000000000000000000000000000000000000000000000000000081526004016114c6929190614437565b60405180910390fd5b6114da8a8a8a611709565b50505050505050505050565b7f9f2df0fed2c77648de5860a4cc508cd0818c85b8b8a1ab4ceeef8d981c8956a681565b61151382610995565b61151c8161189d565b6115268383611a51565b50505050565b5f3073ffffffffffffffffffffffffffffffffffffffff168373ffffffffffffffffffffffffffffffffffffffff161461159d57826040517fb5a7db920000000000000000000000000000000000000000000000000000000081526004016115949190613bd3565b60405180910390fd5b6115a78383612194565b905092915050565b5f60015f8473ffffffffffffffffffffffffffffffffffffffff1673ffffffffffffffffffffffffffffffffffffffff1681526020019081526020015f205f8373ffffffffffffffffffffffffffffffffffffffff1673ffffffffffffffffffffffffffffffffffffffff1681526020019081526020015f2054905092915050565b7f65d7a28e3265b37a6474929f336521b332c1681b933f6cb9f3376673440d862a81565b61165d6137ac565b611667838361219b565b905092915050565b5f818361167c919061445e565b905092915050565b5f818361169191906144ab565b905092915050565b5f7f01ffc9a7000000000000000000000000000000000000000000000000000000007bffffffffffffffffffffffffffffffffffffffffffffffffffffffff1916827bffffffffffffffffffffffffffffffffffffffffffffffffffffffff1916149050919050565b5f33905090565b61171683838360016121fa565b505050565b5f61172684846115af565b90507fffffffffffffffffffffffffffffffffffffffffffffffffffffffffffffffff81146117a75781811015611798578281836040517ffb8f41b200000000000000000000000000000000000000000000000000000000815260040161178f939291906144f8565b60405180910390fd5b6117a684848484035f6121fa565b5b50505050565b5f73ffffffffffffffffffffffffffffffffffffffff168373ffffffffffffffffffffffffffffffffffffffff160361181d575f6040517f96c6fd1e0000000000000000000000000000000000000000000000000000000081526004016118149190613bd3565b60405180910390fd5b5f73ffffffffffffffffffffffffffffffffffffffff168273ffffffffffffffffffffffffffffffffffffffff160361188d575f6040517fec442f050000000000000000000000000000000000000000000000000000000081526004016118849190613bd3565b60405180910390fd5b6118988383836123c9565b505050565b6118ae816118a9611702565b6123d9565b50565b5f6118bc8383611149565b61199157600160065f8581526020019081526020015f205f015f8473ffffffffffffffffffffffffffffffffffffffff1673ffffffffffffffffffffffffffffffffffffffff1681526020019081526020015f205f6101000a81548160ff02191690831515021790555061192e611702565b73ffffffffffffffffffffffffffffffffffffffff168273ffffffffffffffffffffffffffffffffffffffff16847f2f8788117e7eff1d82e926ec794901d17c78024a50270940304540a733656f0d60405160405180910390a460019050611995565b5f90505b92915050565b5f7f000000000000000000000000000000000000000000000000000000000000000073ffffffffffffffffffffffffffffffffffffffff163073ffffffffffffffffffffffffffffffffffffffff16148015611a1657507f000000000000000000000000000000000000000000000000000000000000000046145b15611a43577f00000000000000000000000000000000000000000000000000000000000000009050611a4e565b611a4b61242a565b90505b90565b5f611a5c8383611149565b15611b31575f60065f8581526020019081526020015f205f015f8473ffffffffffffffffffffffffffffffffffffffff1673ffffffffffffffffffffffffffffffffffffffff1681526020019081526020015f205f6101000a81548160ff021916908315150217905550611ace611702565b73ffffffffffffffffffffffffffffffffffffffff168273ffffffffffffffffffffffffffffffffffffffff16847ff6391f5c32d9c69d2a47ea670b442974b53935d1edc7fd64eb21e047a839171b60405160405180910390a460019050611b35565b5f90505b92915050565b5f65ffffffffffff8016821115611b8c576030826040517f6dfcc650000000000000000000000000000000000000000000000000000000008152600401611b8392919061456f565b60405180910390fd5b819050919050565b5f80835f018054905090505f808290506005831115611c15575f611bb7846124bf565b84611bc29190614335565b9050611bd0875f01826125b5565b5f015f9054906101000a900465ffffffffffff1665ffffffffffff168665ffffffffffff161015611c0357809150611c13565b600181611c109190614302565b92505b505b5f611c24875f018785856125c7565b90505f8114611c7357611c45875f01600183611c409190614335565b6125b5565b5f0160069054906101000a900479ffffffffffffffffffffffffffffffffffffffffffffffffffff16611c75565b5f5b94505050505092915050565b611c8961263c565b5f60055f6101000a81548160ff0219169083151502179055507f5db9ee0a495bf2e6ff9c91a7834c1ba4fdd244a5e8aa4e537bd38aeae4b073aa611ccb611702565b604051611cd89190613bd3565b60405180910390a1565b5f73ffffffffffffffffffffffffffffffffffffffff168273ffffffffffffffffffffffffffffffffffffffff1603611d52575f6040517fec442f05000000000000000000000000000000000000000000000000000000008152600401611d499190613bd3565b60405180910390fd5b611d5d5f83836123c9565b5050565b5f73ffffffffffffffffffffffffffffffffffffffff168273ffffffffffffffffffffffffffffffffffffffff1603611dd1575f6040517f96c6fd1e000000000000000000000000000000000000000000000000000000008152600401611dc89190613bd3565b60405180910390fd5b611ddc825f836123c9565b5050565b5f611dea43611b3b565b905090565b5f611df983610c51565b905081600a5f8573ffffffffffffffffffffffffffffffffffffffff1673ffffffffffffffffffffffffffffffffffffffff1681526020019081526020015f205f6101000a81548173ffffffffffffffffffffffffffffffffffffffff021916908373ffffffffffffffffffffffffffffffffffffffff1602179055508173ffffffffffffffffffffffffffffffffffffffff168173ffffffffffffffffffffffffffffffffffffffff168473ffffffffffffffffffffffffffffffffffffffff167f3134e8a2e6d97e929a7e54011ea5485d7d196dd5f0ba4d4ef95803e8e3fc257f60405160405180910390a4611efa8183611ef58661267c565b61268d565b505050565b5f90565b5f611f51611f4c600b5f8573ffffffffffffffffffffffffffffffffffffffff1673ffffffffffffffffffffffffffffffffffffffff1681526020019081526020015f206128fd565b61290c565b9050919050565b5f611f6282612963565b9050919050565b611f716129a9565b600160055f6101000a81548160ff0219169083151502179055507f62e78cea01bee320cd4e420270b5ea74000d11b0c9f74754ebdbfc544b05a258611fb4611702565b604051611fc19190613bd3565b60405180910390a1565b606061200160077f00000000000000000000000000000000000000000000000000000000000000006129ea90919063ffffffff16565b905090565b606061203c60087f00000000000000000000000000000000000000000000000000000000000000006129ea90919063ffffffff16565b905090565b5f80825f018054905090505f81146120995761206b835f016001836120669190614335565b6125b5565b5f0160069054906101000a900479ffffffffffffffffffffffffffffffffffffffffffffffffffff1661209b565b5f5b915050919050565b5f6120b56120af61199b565b83612a97565b9050919050565b5f805f806120cc88888888612ad7565b9250925092506120dc8282612bbe565b829350505050949350505050565b5f6120f483612141565b905080821461213c5782816040517f752d88c0000000000000000000000000000000000000000000000000000000008152600401612133929190614596565b60405180910390fd5b505050565b5f60095f8373ffffffffffffffffffffffffffffffffffffffff1673ffffffffffffffffffffffffffffffffffffffff1681526020019081526020015f205f815480929190600101919050559050919050565b5f92915050565b6121a36137ac565b6121f282600b5f8673ffffffffffffffffffffffffffffffffffffffff1673ffffffffffffffffffffffffffffffffffffffff1681526020019081526020015f20612d2090919063ffffffff16565b905092915050565b5f73ffffffffffffffffffffffffffffffffffffffff168473ffffffffffffffffffffffffffffffffffffffff160361226a575f6040517fe602df050000000000000000000000000000000000000000000000000000000081526004016122619190613bd3565b60405180910390fd5b5f73ffffffffffffffffffffffffffffffffffffffff168373ffffffffffffffffffffffffffffffffffffffff16036122da575f6040517f94280d620000000000000000000000000000000000000000000000000000000081526004016122d19190613bd3565b60405180910390fd5b8160015f8673ffffffffffffffffffffffffffffffffffffffff1673ffffffffffffffffffffffffffffffffffffffff1681526020019081526020015f205f8573ffffffffffffffffffffffffffffffffffffffff1673ffffffffffffffffffffffffffffffffffffffff1681526020019081526020015f208190555080156123c3578273ffffffffffffffffffffffffffffffffffffffff168473ffffffffffffffffffffffffffffffffffffffff167f8c5be1e5ebec7d5bd14f71427d1e84f3dd0314c0f7b2291e5b200ac8c7c3b925846040516123ba9190613a0d565b60405180910390a35b50505050565b6123d4838383612def565b505050565b6123e38282611149565b6124265780826040517fe2517d3f00000000000000000000000000000000000000000000000000000000815260040161241d9291906145bd565b60405180910390fd5b5050565b5f7f8b73c3c69bb8fe3d512ecc4cf759cc79239f7b179b0ffacaa9a75d522b39400f7f00000000000000000000000000000000000000000000000000000000000000007f000000000000000000000000000000000000000000000000000000000000000046306040516020016124a49594939291906145e4565b60405160208183030381529060405280519060200120905090565b5f8082036124cf575f90506125b0565b5f60016124db84612e9d565b901c6001901b905060018184816124f5576124f4614635565b5b048201901c9050600181848161250e5761250d614635565b5b048201901c9050600181848161252757612526614635565b5b048201901c905060018184816125405761253f614635565b5b048201901c9050600181848161255957612558614635565b5b048201901c9050600181848161257257612571614635565b5b048201901c9050600181848161258b5761258a614635565b5b048201901c90506125ac818285816125a6576125a5614635565b5b04612f74565b9150505b919050565b5f825f528160205f2001905092915050565b5f5b81831015612631575f6125dc8484612f8c565b90508465ffffffffffff166125f187836125b5565b5f015f9054906101000a900465ffffffffffff1665ffffffffffff16111561261b5780925061262b565b6001816126289190614302565b93505b506125c9565b819050949350505050565b612644610ccf565b61267a576040517f8dfc202b00000000000000000000000000000000000000000000000000000000815260040160405180910390fd5b565b5f61268682610f5f565b9050919050565b8173ffffffffffffffffffffffffffffffffffffffff168373ffffffffffffffffffffffffffffffffffffffff16141580156126c857505f81115b156128f8575f73ffffffffffffffffffffffffffffffffffffffff168373ffffffffffffffffffffffffffffffffffffffff16146127e2575f80612753600b5f8773ffffffffffffffffffffffffffffffffffffffff1673ffffffffffffffffffffffffffffffffffffffff1681526020019081526020015f2061168461274e86612fb1565b61301e565b79ffffffffffffffffffffffffffffffffffffffffffffffffffff16915079ffffffffffffffffffffffffffffffffffffffffffffffffffff1691508473ffffffffffffffffffffffffffffffffffffffff167fdec2bacdd2f05b59de34da9b523dff8be42e5e38e818c82fdb0bae774387a72483836040516127d7929190614662565b60405180910390a250505b5f73ffffffffffffffffffffffffffffffffffffffff168273ffffffffffffffffffffffffffffffffffffffff16146128f7575f80612868600b5f8673ffffffffffffffffffffffffffffffffffffffff1673ffffffffffffffffffffffffffffffffffffffff1681526020019081526020015f2061166f61286386612fb1565b61301e565b79ffffffffffffffffffffffffffffffffffffffffffffffffffff16915079ffffffffffffffffffffffffffffffffffffffffffffffffffff1691508373ffffffffffffffffffffffffffffffffffffffff167fdec2bacdd2f05b59de34da9b523dff8be42e5e38e818c82fdb0bae774387a72483836040516128ec929190614662565b60405180910390a250505b5b505050565b5f815f01805490509050919050565b5f63ffffffff801682111561295b576020826040517f6dfcc6500000000000000000000000000000000000000000000000000000000081526004016129529291906146c2565b60405180910390fd5b819050919050565b5f60095f8373ffffffffffffffffffffffffffffffffffffffff1673ffffffffffffffffffffffffffffffffffffffff1681526020019081526020015f20549050919050565b6129b1610ccf565b156129e8576040517fd93c066500000000000000000000000000000000000000000000000000000000815260040160405180910390fd5b565b606060ff5f1b8314612a06576129ff8361305d565b9050612a91565b818054612a129061419b565b80601f0160208091040260200160405190810160405280929190818152602001828054612a3e9061419b565b8015612a895780601f10612a6057610100808354040283529160200191612a89565b820191905f5260205f20905b815481529060010190602001808311612a6c57829003601f168201915b505050505090505b92915050565b5f6040517f190100000000000000000000000000000000000000000000000000000000000081528360028201528260228201526042812091505092915050565b5f805f7f7fffffffffffffffffffffffffffffff5d576e7357a4501ddfe92f46681b20a0845f1c1115612b13575f600385925092509250612bb4565b5f6001888888886040515f8152602001604052604051612b3694939291906146e9565b6020604051602081039080840390855afa158015612b56573d5f803e3d5ffd5b5050506020604051035190505f73ffffffffffffffffffffffffffffffffffffffff168173ffffffffffffffffffffffffffffffffffffffff1603612ba7575f60015f801b93509350935050612bb4565b805f805f1b935093509350505b9450945094915050565b5f6003811115612bd157612bd061472c565b5b826003811115612be457612be361472c565b5b0315612d1c5760016003811115612bfe57612bfd61472c565b5b826003811115612c1157612c1061472c565b5b03612c48576040517ff645eedf00000000000000000000000000000000000000000000000000000000815260040160405180910390fd5b60026003811115612c5c57612c5b61472c565b5b826003811115612c6f57612c6e61472c565b5b03612cb357805f1c6040517ffce698f7000000000000000000000000000000000000000000000000000000008152600401612caa9190613a0d565b60405180910390fd5b600380811115612cc657612cc561472c565b5b826003811115612cd957612cd861472c565b5b03612d1b57806040517fd78bce0c000000000000000000000000000000000000000000000000000000008152600401612d129190613ae3565b60405180910390fd5b5b5050565b612d286137ac565b825f018263ffffffff1681548110612d4357612d42614759565b5b905f5260205f20016040518060400160405290815f82015f9054906101000a900465ffffffffffff1665ffffffffffff1665ffffffffffff1681526020015f820160069054906101000a900479ffffffffffffffffffffffffffffffffffffffffffffffffffff1679ffffffffffffffffffffffffffffffffffffffffffffffffffff1679ffffffffffffffffffffffffffffffffffffffffffffffffffff1681525050905092915050565b612dfa8383836130cf565b5f73ffffffffffffffffffffffffffffffffffffffff168373ffffffffffffffffffffffffffffffffffffffff1603612e8d575f612e3661095e565b90505f612e416130e7565b905080821115612e8a5781816040517f1cb15d26000000000000000000000000000000000000000000000000000000008152600401612e81929190614662565b60405180910390fd5b50505b612e9883838361310a565b505050565b5f805f90505f608084901c1115612ebc57608083901c92506080810190505b5f604084901c1115612ed657604083901c92506040810190505b5f602084901c1115612ef057602083901c92506020810190505b5f601084901c1115612f0a57601083901c92506010810190505b5f600884901c1115612f2457600883901c92506008810190505b5f600484901c1115612f3e57600483901c92506004810190505b5f600284901c1115612f5857600283901c92506002810190505b5f600184901c1115612f6b576001810190505b80915050919050565b5f818310612f825781612f84565b825b905092915050565b5f6002828418612f9c9190614786565b828416612fa99190614302565b905092915050565b5f79ffffffffffffffffffffffffffffffffffffffffffffffffffff80168211156130165760d0826040517f6dfcc65000000000000000000000000000000000000000000000000000000000815260040161300d9291906147ef565b60405180910390fd5b819050919050565b5f8061305161302b6111ad565b61304161303788612041565b868863ffffffff16565b876131c29092919063ffffffff16565b91509150935093915050565b60605f613069836131dd565b90505f602067ffffffffffffffff81111561308757613086614368565b5b6040519080825280601f01601f1916602001820160405280156130b95781602001600182028036833780820191505090505b5090508181528360208201528092505050919050565b6130d76129a9565b6130e283838361322b565b505050565b5f79ffffffffffffffffffffffffffffffffffffffffffffffffffff8016905090565b5f73ffffffffffffffffffffffffffffffffffffffff168373ffffffffffffffffffffffffffffffffffffffff160361315657613153600c61166f61314e84612fb1565b61301e565b50505b5f73ffffffffffffffffffffffffffffffffffffffff168273ffffffffffffffffffffffffffffffffffffffff16036131a25761319f600c61168461319a84612fb1565b61301e565b50505b6131bd6131ae84610c51565b6131b784610c51565b8361268d565b505050565b5f806131d1855f018585613444565b91509150935093915050565b5f8060ff835f1c169050601f811115613222576040517fb3512b0c00000000000000000000000000000000000000000000000000000000815260040160405180910390fd5b80915050919050565b5f73ffffffffffffffffffffffffffffffffffffffff168373ffffffffffffffffffffffffffffffffffffffff160361327b578060025f82825461326f9190614302565b92505081905550613349565b5f805f8573ffffffffffffffffffffffffffffffffffffffff1673ffffffffffffffffffffffffffffffffffffffff1681526020019081526020015f2054905081811015613304578381836040517fe450d38c0000000000000000000000000000000000000000000000000000000081526004016132fb939291906144f8565b60405180910390fd5b8181035f808673ffffffffffffffffffffffffffffffffffffffff1673ffffffffffffffffffffffffffffffffffffffff1681526020019081526020015f2081905550505b5f73ffffffffffffffffffffffffffffffffffffffff168273ffffffffffffffffffffffffffffffffffffffff1603613390578060025f82825403925050819055506133da565b805f808473ffffffffffffffffffffffffffffffffffffffff1673ffffffffffffffffffffffffffffffffffffffff1681526020019081526020015f205f82825401925050819055505b8173ffffffffffffffffffffffffffffffffffffffff168373ffffffffffffffffffffffffffffffffffffffff167fddf252ad1be2c89b69c2b068fc378daa952ba7f163c4a11628f55a4df523b3ef836040516134379190613a0d565b60405180910390a3505050565b5f805f858054905090505f8111156136c4575f61346d876001846134689190614335565b6125b5565b6040518060400160405290815f82015f9054906101000a900465ffffffffffff1665ffffffffffff1665ffffffffffff1681526020015f820160069054906101000a900479ffffffffffffffffffffffffffffffffffffffffffffffffffff1679ffffffffffffffffffffffffffffffffffffffffffffffffffff1679ffffffffffffffffffffffffffffffffffffffffffffffffffff168152505090508565ffffffffffff16815f015165ffffffffffff161115613558576040517f2520601d00000000000000000000000000000000000000000000000000000000815260040160405180910390fd5b8565ffffffffffff16815f015165ffffffffffff16036135da5784613589886001856135849190614335565b6125b5565b5f0160066101000a81548179ffffffffffffffffffffffffffffffffffffffffffffffffffff021916908379ffffffffffffffffffffffffffffffffffffffffffffffffffff1602179055506136b3565b8660405180604001604052808865ffffffffffff1681526020018779ffffffffffffffffffffffffffffffffffffffffffffffffffff16815250908060018154018082558091505060019003905f5260205f20015f909190919091505f820151815f015f6101000a81548165ffffffffffff021916908365ffffffffffff1602179055506020820151815f0160066101000a81548179ffffffffffffffffffffffffffffffffffffffffffffffffffff021916908379ffffffffffffffffffffffffffffffffffffffffffffffffffff16021790555050505b8060200151859350935050506137a4565b8560405180604001604052808765ffffffffffff1681526020018679ffffffffffffffffffffffffffffffffffffffffffffffffffff16815250908060018154018082558091505060019003905f5260205f20015f909190919091505f820151815f015f6101000a81548165ffffffffffff021916908365ffffffffffff1602179055506020820151815f0160066101000a81548179ffffffffffffffffffffffffffffffffffffffffffffffffffff021916908379ffffffffffffffffffffffffffffffffffffffffffffffffffff16021790555050505f8492509250505b935093915050565b60405180604001604052805f65ffffffffffff1681526020015f79ffffffffffffffffffffffffffffffffffffffffffffffffffff1681525090565b5f80fd5b5f80fd5b5f7fffffffff0000000000000000000000000000000000000000000000000000000082169050919050565b613824816137f0565b811461382e575f80fd5b50565b5f8135905061383f8161381b565b92915050565b5f6020828403121561385a576138596137e8565b5b5f61386784828501613831565b91505092915050565b5f8115159050919050565b61388481613870565b82525050565b5f60208201905061389d5f83018461387b565b92915050565b5f81519050919050565b5f82825260208201905092915050565b8281835e5f83830152505050565b5f601f19601f8301169050919050565b5f6138e5826138a3565b6138ef81856138ad565b93506138ff8185602086016138bd565b613908816138cb565b840191505092915050565b5f6020820190508181035f83015261392b81846138db565b905092915050565b5f73ffffffffffffffffffffffffffffffffffffffff82169050919050565b5f61395c82613933565b9050919050565b61396c81613952565b8114613976575f80fd5b50565b5f8135905061398781613963565b92915050565b5f819050919050565b61399f8161398d565b81146139a9575f80fd5b50565b5f813590506139ba81613996565b92915050565b5f80604083850312156139d6576139d56137e8565b5b5f6139e385828601613979565b92505060206139f4858286016139ac565b9150509250929050565b613a078161398d565b82525050565b5f602082019050613a205f8301846139fe565b92915050565b5f805f60608486031215613a3d57613a3c6137e8565b5b5f613a4a86828701613979565b9350506020613a5b86828701613979565b9250506040613a6c868287016139ac565b9150509250925092565b5f819050919050565b613a8881613a76565b8114613a92575f80fd5b50565b5f81359050613aa381613a7f565b92915050565b5f60208284031215613abe57613abd6137e8565b5b5f613acb84828501613a95565b91505092915050565b613add81613a76565b82525050565b5f602082019050613af65f830184613ad4565b92915050565b5f8060408385031215613b1257613b116137e8565b5b5f613b1f85828601613a95565b9250506020613b3085828601613979565b9150509250929050565b5f60ff82169050919050565b613b4f81613b3a565b82525050565b5f602082019050613b685f830184613b46565b92915050565b5f60208284031215613b8357613b826137e8565b5b5f613b90848285016139ac565b91505092915050565b5f60208284031215613bae57613bad6137e8565b5b5f613bbb84828501613979565b91505092915050565b613bcd81613952565b82525050565b5f602082019050613be65f830184613bc4565b92915050565b5f613bf682613952565b9050919050565b613c0681613bec565b8114613c10575f80fd5b50565b5f81359050613c2181613bfd565b92915050565b5f80fd5b5f80fd5b5f80fd5b5f8083601f840112613c4857613c47613c27565b5b8235905067ffffffffffffffff811115613c6557613c64613c2b565b5b602083019150836001820283011115613c8157613c80613c2f565b5b9250929050565b5f805f805f60808688031215613ca157613ca06137e8565b5b5f613cae88828901613c13565b9550506020613cbf88828901613979565b9450506040613cd0888289016139ac565b935050606086013567ffffffffffffffff811115613cf157613cf06137ec565b5b613cfd88828901613c33565b92509250509295509295909350565b5f63ffffffff82169050919050565b613d2481613d0c565b82525050565b5f602082019050613d3d5f830184613d1b565b92915050565b5f7fff0000000000000000000000000000000000000000000000000000000000000082169050919050565b613d7781613d43565b82525050565b5f81519050919050565b5f82825260208201905092915050565b5f819050602082019050919050565b613daf8161398d565b82525050565b5f613dc08383613da6565b60208301905092915050565b5f602082019050919050565b5f613de282613d7d565b613dec8185613d87565b9350613df783613d97565b805f5b83811015613e27578151613e0e8882613db5565b9750613e1983613dcc565b925050600181019050613dfa565b5085935050505092915050565b5f60e082019050613e475f83018a613d6e565b8181036020830152613e5981896138db565b90508181036040830152613e6d81886138db565b9050613e7c60608301876139fe565b613e896080830186613bc4565b613e9660a0830185613ad4565b81810360c0830152613ea88184613dd8565b905098975050505050505050565b5f65ffffffffffff82169050919050565b613ed081613eb6565b82525050565b5f602082019050613ee95f830184613ec7565b92915050565b613ef881613b3a565b8114613f02575f80fd5b50565b5f81359050613f1381613eef565b92915050565b5f805f805f8060c08789031215613f3357613f326137e8565b5b5f613f4089828a01613979565b9650506020613f5189828a016139ac565b9550506040613f6289828a016139ac565b9450506060613f7389828a01613f05565b9350506080613f8489828a01613a95565b92505060a0613f9589828a01613a95565b9150509295509295509295565b5f805f805f805f60e0888a031215613fbd57613fbc6137e8565b5b5f613fca8a828b01613979565b9750506020613fdb8a828b01613979565b9650506040613fec8a828b016139ac565b9550506060613ffd8a828b016139ac565b945050608061400e8a828b01613f05565b93505060a061401f8a828b01613a95565b92505060c06140308a828b01613a95565b91505092959891949750929550565b5f8060408385031215614055576140546137e8565b5b5f61406285828601613979565b925050602061407385828601613979565b9150509250929050565b61408681613d0c565b8114614090575f80fd5b50565b5f813590506140a18161407d565b92915050565b5f80604083850312156140bd576140bc6137e8565b5b5f6140ca85828601613979565b92505060206140db85828601614093565b9150509250929050565b6140ee81613eb6565b82525050565b5f79ffffffffffffffffffffffffffffffffffffffffffffffffffff82169050919050565b614122816140f4565b82525050565b604082015f82015161413c5f8501826140e5565b50602082015161414f6020850182614119565b50505050565b5f6040820190506141685f830184614128565b92915050565b7f4e487b71000000000000000000000000000000000000000000000000000000005f52602260045260245ffd5b5f60028204905060018216806141b257607f821691505b6020821081036141c5576141c461416e565b5b50919050565b5f6040820190506141de5f8301856139fe565b6141eb6020830184613ec7565b9392505050565b5f82825260208201905092915050565b828183375f83830152505050565b5f61421b83856141f2565b9350614228838584614202565b614231836138cb565b840190509392505050565b5f60a08201905061424f5f830189613bc4565b61425c6020830188613bc4565b61426960408301876139fe565b61427660608301866139fe565b8181036080830152614289818486614210565b9050979650505050505050565b5f815190506142a481613a7f565b92915050565b5f602082840312156142bf576142be6137e8565b5b5f6142cc84828501614296565b91505092915050565b7f4e487b71000000000000000000000000000000000000000000000000000000005f52601160045260245ffd5b5f61430c8261398d565b91506143178361398d565b925082820190508082111561432f5761432e6142d5565b5b92915050565b5f61433f8261398d565b915061434a8361398d565b9250828203905081811115614362576143616142d5565b5b92915050565b7f4e487b71000000000000000000000000000000000000000000000000000000005f52604160045260245ffd5b5f6080820190506143a85f830187613ad4565b6143b56020830186613bc4565b6143c260408301856139fe565b6143cf60608301846139fe565b95945050505050565b5f60c0820190506143eb5f830189613ad4565b6143f86020830188613bc4565b6144056040830187613bc4565b61441260608301866139fe565b61441f60808301856139fe565b61442c60a08301846139fe565b979650505050505050565b5f60408201905061444a5f830185613bc4565b6144576020830184613bc4565b9392505050565b5f614468826140f4565b9150614473836140f4565b9250828201905079ffffffffffffffffffffffffffffffffffffffffffffffffffff8111156144a5576144a46142d5565b5b92915050565b5f6144b5826140f4565b91506144c0836140f4565b9250828203905079ffffffffffffffffffffffffffffffffffffffffffffffffffff8111156144f2576144f16142d5565b5b92915050565b5f60608201905061450b5f830186613bc4565b61451860208301856139fe565b61452560408301846139fe565b949350505050565b5f819050919050565b5f819050919050565b5f61455961455461454f8461452d565b614536565b613b3a565b9050919050565b6145698161453f565b82525050565b5f6040820190506145825f830185614560565b61458f60208301846139fe565b9392505050565b5f6040820190506145a95f830185613bc4565b6145b660208301846139fe565b9392505050565b5f6040820190506145d05f830185613bc4565b6145dd6020830184613ad4565b9392505050565b5f60a0820190506145f75f830188613ad4565b6146046020830187613ad4565b6146116040830186613ad4565b61461e60608301856139fe565b61462b6080830184613bc4565b9695505050505050565b7f4e487b71000000000000000000000000000000000000000000000000000000005f52601260045260245ffd5b5f6040820190506146755f8301856139fe565b61468260208301846139fe565b9392505050565b5f819050919050565b5f6146ac6146a76146a284614689565b614536565b613b3a565b9050919050565b6146bc81614692565b82525050565b5f6040820190506146d55f8301856146b3565b6146e260208301846139fe565b9392505050565b5f6080820190506146fc5f830187613ad4565b6147096020830186613b46565b6147166040830185613ad4565b6147236060830184613ad4565b95945050505050565b7f4e487b71000000000000000000000000000000000000000000000000000000005f52602160045260245ffd5b7f4e487b71000000000000000000000000000000000000000000000000000000005f52603260045260245ffd5b5f6147908261398d565b915061479b8361398d565b9250826147ab576147aa614635565b5b828204905092915050565b5f819050919050565b5f6147d96147d46147cf846147b6565b614536565b613b3a565b9050919050565b6147e9816147bf565b82525050565b5f6040820190506148025f8301856147e0565b61480f60208301846139fe565b939250505056fea2646970667358221220cc697200db83602f30dd6f1d57f4980b1c7de10d1a82ff63e781c6bd7629718164736f6c63430008190033",
			"opcodes": "PUSH2 0x160 PUSH1 0x40 MSTORE CALLVALUE DUP1 ISZERO PUSH2 0x10 JUMPI PUSH0 DUP1 REVERT JUMPDEST POP PUSH1 0x40 MLOAD PUSH2 0x64FE CODESIZE SUB DUP1 PUSH2 0x64FE DUP4 CODECOPY DUP2 DUP2 ADD PUSH1 0x40 MSTORE DUP2 ADD SWAP1 PUSH2 0x32 SWAP2 SWAP1 PUSH2 0x1302 JUMP JUMPDEST PUSH1 0x40 MLOAD DUP1 PUSH1 0x40 ADD PUSH1 0x40 MSTORE DUP1 PUSH1 0x8 DUP2 MSTORE PUSH1 0x20 ADD PUSH32 0x5745535453494445000000000000000000000000000000000000000000000000 DUP2 MSTORE POP DUP1 PUSH1 0x40 MLOAD DUP1 PUSH1 0x40 ADD PUSH1 0x40 MSTORE DUP1 PUSH1 0x1 DUP2 MSTORE PUSH1 0x20 ADD PUSH32 0x3100000000000000000000000000000000000000000000000000000000000000 DUP2 MSTORE POP PUSH1 0x40 MLOAD DUP1 PUSH1 0x40 ADD PUSH1 0x40 MSTORE DUP1 PUSH1 0x8 DUP2 MSTORE PUSH1 0x20 ADD PUSH32 0x5745535453494445000000000000000000000000000000000000000000000000 DUP2 MSTORE POP PUSH1 0x40 MLOAD DUP1 PUSH1 0x40 ADD PUSH1 0x40 MSTORE DUP1 PUSH1 0x3 DUP2 MSTORE PUSH1 0x20 ADD PUSH32 0x5753430000000000000000000000000000000000000000000000000000000000 DUP2 MSTORE POP DUP2 PUSH1 0x3 SWAP1 DUP2 PUSH2 0x11A SWAP2 SWAP1 PUSH2 0x158C JUMP JUMPDEST POP DUP1 PUSH1 0x4 SWAP1 DUP2 PUSH2 0x12A SWAP2 SWAP1 PUSH2 0x158C JUMP JUMPDEST POP POP POP PUSH0 PUSH1 0x5 PUSH0 PUSH2 0x100 EXP DUP2 SLOAD DUP2 PUSH1 0xFF MUL NOT AND SWAP1 DUP4 ISZERO ISZERO MUL OR SWAP1 SSTORE POP PUSH2 0x15A PUSH1 0x7 DUP4 PUSH2 0x2A5 PUSH1 0x20 SHL SWAP1 SWAP2 SWAP1 PUSH1 0x20 SHR JUMP JUMPDEST PUSH2 0x120 DUP2 DUP2 MSTORE POP POP PUSH2 0x176 PUSH1 0x8 DUP3 PUSH2 0x2A5 PUSH1 0x20 SHL SWAP1 SWAP2 SWAP1 PUSH1 0x20 SHR JUMP JUMPDEST PUSH2 0x140 DUP2 DUP2 MSTORE POP POP DUP2 DUP1 MLOAD SWAP1 PUSH1 0x20 ADD KECCAK256 PUSH1 0xE0 DUP2 DUP2 MSTORE POP POP DUP1 DUP1 MLOAD SWAP1 PUSH1 0x20 ADD KECCAK256 PUSH2 0x100 DUP2 DUP2 MSTORE POP POP CHAINID PUSH1 0xA0 DUP2 DUP2 MSTORE POP POP PUSH2 0x1B3 PUSH2 0x2F2 PUSH1 0x20 SHL PUSH1 0x20 SHR JUMP JUMPDEST PUSH1 0x80 DUP2 DUP2 MSTORE POP POP ADDRESS PUSH20 0xFFFFFFFFFFFFFFFFFFFFFFFFFFFFFFFFFFFFFFFF AND PUSH1 0xC0 DUP2 PUSH20 0xFFFFFFFFFFFFFFFFFFFFFFFFFFFFFFFFFFFFFFFF AND DUP2 MSTORE POP POP POP POP POP PUSH2 0x203 PUSH0 DUP1 SHL DUP5 PUSH2 0x34C PUSH1 0x20 SHL PUSH1 0x20 SHR JUMP JUMPDEST POP PUSH2 0x234 PUSH32 0x65D7A28E3265B37A6474929F336521B332C1681B933F6CB9F3376673440D862A DUP4 PUSH2 0x34C PUSH1 0x20 SHL PUSH1 0x20 SHR JUMP JUMPDEST POP PUSH2 0x26C CALLER PUSH2 0x247 PUSH2 0x442 PUSH1 0x20 SHL PUSH1 0x20 SHR JUMP JUMPDEST PUSH1 0xA PUSH2 0x253 SWAP2 SWAP1 PUSH2 0x17C3 JUMP JUMPDEST PUSH3 0xF4240 PUSH2 0x261 SWAP2 SWAP1 PUSH2 0x180D JUMP JUMPDEST PUSH2 0x44A PUSH1 0x20 SHL PUSH1 0x20 SHR JUMP JUMPDEST PUSH2 0x29C PUSH32 0x9F2DF0FED2C77648DE5860A4CC508CD0818C85B8B8A1AB4CEEEF8D981C8956A6 DUP3 PUSH2 0x34C PUSH1 0x20 SHL PUSH1 0x20 SHR JUMP JUMPDEST POP POP POP POP PUSH2 0x1C61 JUMP JUMPDEST PUSH0 PUSH1 0x20 DUP4 MLOAD LT ISZERO PUSH2 0x2C6 JUMPI PUSH2 0x2BF DUP4 PUSH2 0x4CF PUSH1 0x20 SHL PUSH1 0x20 SHR JUMP JUMPDEST SWAP1 POP PUSH2 0x2EC JUMP JUMPDEST DUP3 PUSH2 0x2D6 DUP4 PUSH2 0x534 PUSH1 0x20 SHL PUSH1 0x20 SHR JUMP JUMPDEST PUSH0 ADD SWAP1 DUP2 PUSH2 0x2E4 SWAP2 SWAP1 PUSH2 0x158C JUMP JUMPDEST POP PUSH1 0xFF PUSH0 SHL SWAP1 POP JUMPDEST SWAP3 SWAP2 POP POP JUMP JUMPDEST PUSH0 PUSH32 0x8B73C3C69BB8FE3D512ECC4CF759CC79239F7B179B0FFACAA9A75D522B39400F PUSH1 0xE0 MLOAD PUSH2 0x100 MLOAD CHAINID ADDRESS PUSH1 0x40 MLOAD PUSH1 0x20 ADD PUSH2 0x331 SWAP6 SWAP5 SWAP4 SWAP3 SWAP2 SWAP1 PUSH2 0x1884 JUMP JUMPDEST PUSH1 0x40 MLOAD PUSH1 0x20 DUP2 DUP4 SUB SUB DUP2 MSTORE SWAP1 PUSH1 0x40 MSTORE DUP1 MLOAD SWAP1 PUSH1 0x20 ADD KECCAK256 SWAP1 POP SWAP1 JUMP JUMPDEST PUSH0 PUSH2 0x35D DUP4 DUP4 PUSH2 0x53D PUSH1 0x20 SHL PUSH1 0x20 SHR JUMP JUMPDEST PUSH2 0x438 JUMPI PUSH1 0x1 PUSH1 0x6 PUSH0 DUP6 DUP2 MSTORE PUSH1 0x20 ADD SWAP1 DUP2 MSTORE PUSH1 0x20 ADD PUSH0 KECCAK256 PUSH0 ADD PUSH0 DUP5 PUSH20 0xFFFFFFFFFFFFFFFFFFFFFFFFFFFFFFFFFFFFFFFF AND PUSH20 0xFFFFFFFFFFFFFFFFFFFFFFFFFFFFFFFFFFFFFFFF AND DUP2 MSTORE PUSH1 0x20 ADD SWAP1 DUP2 MSTORE PUSH1 0x20 ADD PUSH0 KECCAK256 PUSH0 PUSH2 0x100 EXP DUP2 SLOAD DUP2 PUSH1 0xFF MUL NOT AND SWAP1 DUP4 ISZERO ISZERO MUL OR SWAP1 SSTORE POP PUSH2 0x3D5 PUSH2 0x5A1 PUSH1 0x20 SHL PUSH1 0x20 SHR JUMP JUMPDEST PUSH20 0xFFFFFFFFFFFFFFFFFFFFFFFFFFFFFFFFFFFFFFFF AND DUP3 PUSH20 0xFFFFFFFFFFFFFFFFFFFFFFFFFFFFFFFFFFFFFFFF AND DUP5 PUSH32 0x2F8788117E7EFF1D82E926EC794901D17C78024A50270940304540A733656F0D PUSH1 0x40 MLOAD PUSH1 0x40 MLOAD DUP1 SWAP2 SUB SWAP1 LOG4 PUSH1 0x1 SWAP1 POP PUSH2 0x43C JUMP JUMPDEST PUSH0 SWAP1 POP JUMPDEST SWAP3 SWAP2 POP POP JUMP JUMPDEST PUSH0 PUSH1 0x12 SWAP1 POP SWAP1 JUMP JUMPDEST PUSH0 PUSH20 0xFFFFFFFFFFFFFFFFFFFFFFFFFFFFFFFFFFFFFFFF AND DUP3 PUSH20 0xFFFFFFFFFFFFFFFFFFFFFFFFFFFFFFFFFFFFFFFF AND SUB PUSH2 0x4BA JUMPI PUSH0 PUSH1 0x40 MLOAD PUSH32 0xEC442F0500000000000000000000000000000000000000000000000000000000 DUP2 MSTORE PUSH1 0x4 ADD PUSH2 0x4B1 SWAP2 SWAP1 PUSH2 0x18D5 JUMP JUMPDEST PUSH1 0x40 MLOAD DUP1 SWAP2 SUB SWAP1 REVERT JUMPDEST PUSH2 0x4CB PUSH0 DUP4 DUP4 PUSH2 0x5A8 PUSH1 0x20 SHL PUSH1 0x20 SHR JUMP JUMPDEST POP POP JUMP JUMPDEST PUSH0 DUP1 DUP3 SWAP1 POP PUSH1 0x1F DUP2 MLOAD GT ISZERO PUSH2 0x51B JUMPI DUP3 PUSH1 0x40 MLOAD PUSH32 0x305A27A900000000000000000000000000000000000000000000000000000000 DUP2 MSTORE PUSH1 0x4 ADD PUSH2 0x512 SWAP2 SWAP1 PUSH2 0x1954 JUMP JUMPDEST PUSH1 0x40 MLOAD DUP1 SWAP2 SUB SWAP1 REVERT JUMPDEST DUP1 MLOAD DUP2 PUSH2 0x527 SWAP1 PUSH2 0x19A1 JUMP JUMPDEST PUSH0 SHR OR PUSH0 SHL SWAP2 POP POP SWAP2 SWAP1 POP JUMP JUMPDEST PUSH0 DUP2 SWAP1 POP SWAP2 SWAP1 POP JUMP JUMPDEST PUSH0 PUSH1 0x6 PUSH0 DUP5 DUP2 MSTORE PUSH1 0x20 ADD SWAP1 DUP2 MSTORE PUSH1 0x20 ADD PUSH0 KECCAK256 PUSH0 ADD PUSH0 DUP4 PUSH20 0xFFFFFFFFFFFFFFFFFFFFFFFFFFFFFFFFFFFFFFFF AND PUSH20 0xFFFFFFFFFFFFFFFFFFFFFFFFFFFFFFFFFFFFFFFF AND DUP2 MSTORE PUSH1 0x20 ADD SWAP1 DUP2 MSTORE PUSH1 0x20 ADD PUSH0 KECCAK256 PUSH0 SWAP1 SLOAD SWAP1 PUSH2 0x100 EXP SWAP1 DIV PUSH1 0xFF AND SWAP1 POP SWAP3 SWAP2 POP POP JUMP JUMPDEST PUSH0 CALLER SWAP1 POP SWAP1 JUMP JUMPDEST PUSH2 0x5B9 DUP4 DUP4 DUP4 PUSH2 0x5BE PUSH1 0x20 SHL PUSH1 0x20 SHR JUMP JUMPDEST POP POP POP JUMP JUMPDEST PUSH2 0x5CF DUP4 DUP4 DUP4 PUSH2 0x684 PUSH1 0x20 SHL PUSH1 0x20 SHR JUMP JUMPDEST PUSH0 PUSH20 0xFFFFFFFFFFFFFFFFFFFFFFFFFFFFFFFFFFFFFFFF AND DUP4 PUSH20 0xFFFFFFFFFFFFFFFFFFFFFFFFFFFFFFFFFFFFFFFF AND SUB PUSH2 0x66E JUMPI PUSH0 PUSH2 0x611 PUSH2 0x6A8 PUSH1 0x20 SHL PUSH1 0x20 SHR JUMP JUMPDEST SWAP1 POP PUSH0 PUSH2 0x622 PUSH2 0x6B1 PUSH1 0x20 SHL PUSH1 0x20 SHR JUMP JUMPDEST SWAP1 POP DUP1 DUP3 GT ISZERO PUSH2 0x66B JUMPI DUP2 DUP2 PUSH1 0x40 MLOAD PUSH32 0x1CB15D2600000000000000000000000000000000000000000000000000000000 DUP2 MSTORE PUSH1 0x4 ADD PUSH2 0x662 SWAP3 SWAP2 SWAP1 PUSH2 0x1A07 JUMP JUMPDEST PUSH1 0x40 MLOAD DUP1 SWAP2 SUB SWAP1 REVERT JUMPDEST POP POP JUMPDEST PUSH2 0x67F DUP4 DUP4 DUP4 PUSH2 0x6D4 PUSH1 0x20 SHL PUSH1 0x20 SHR JUMP JUMPDEST POP POP POP JUMP JUMPDEST PUSH2 0x692 PUSH2 0x7C4 PUSH1 0x20 SHL PUSH1 0x20 SHR JUMP JUMPDEST PUSH2 0x6A3 DUP4 DUP4 DUP4 PUSH2 0x80B PUSH1 0x20 SHL PUSH1 0x20 SHR JUMP JUMPDEST POP POP POP JUMP JUMPDEST PUSH0 PUSH1 0x2 SLOAD SWAP1 POP SWAP1 JUMP JUMPDEST PUSH0 PUSH26 0xFFFFFFFFFFFFFFFFFFFFFFFFFFFFFFFFFFFFFFFFFFFFFFFFFFFF DUP1 AND SWAP1 POP SWAP1 JUMP JUMPDEST PUSH0 PUSH20 0xFFFFFFFFFFFFFFFFFFFFFFFFFFFFFFFFFFFFFFFF AND DUP4 PUSH20 0xFFFFFFFFFFFFFFFFFFFFFFFFFFFFFFFFFFFFFFFF AND SUB PUSH2 0x733 JUMPI PUSH2 0x730 PUSH1 0xC PUSH2 0xA24 PUSH1 0x20 SHL PUSH2 0x166F OR PUSH2 0x725 DUP5 PUSH2 0xA39 PUSH1 0x20 SHL PUSH1 0x20 SHR JUMP JUMPDEST PUSH2 0xAA6 PUSH1 0x20 SHL PUSH1 0x20 SHR JUMP JUMPDEST POP POP JUMPDEST PUSH0 PUSH20 0xFFFFFFFFFFFFFFFFFFFFFFFFFFFFFFFFFFFFFFFF AND DUP3 PUSH20 0xFFFFFFFFFFFFFFFFFFFFFFFFFFFFFFFFFFFFFFFF AND SUB PUSH2 0x792 JUMPI PUSH2 0x78F PUSH1 0xC PUSH2 0xAEE PUSH1 0x20 SHL PUSH2 0x1684 OR PUSH2 0x784 DUP5 PUSH2 0xA39 PUSH1 0x20 SHL PUSH1 0x20 SHR JUMP JUMPDEST PUSH2 0xAA6 PUSH1 0x20 SHL PUSH1 0x20 SHR JUMP JUMPDEST POP POP JUMPDEST PUSH2 0x7BF PUSH2 0x7A4 DUP5 PUSH2 0xB03 PUSH1 0x20 SHL PUSH1 0x20 SHR JUMP JUMPDEST PUSH2 0x7B3 DUP5 PUSH2 0xB03 PUSH1 0x20 SHL PUSH1 0x20 SHR JUMP JUMPDEST DUP4 PUSH2 0xB68 PUSH1 0x20 SHL PUSH1 0x20 SHR JUMP JUMPDEST POP POP POP JUMP JUMPDEST PUSH2 0x7D2 PUSH2 0xDFE PUSH1 0x20 SHL PUSH1 0x20 SHR JUMP JUMPDEST ISZERO PUSH2 0x809 JUMPI PUSH1 0x40 MLOAD PUSH32 0xD93C066500000000000000000000000000000000000000000000000000000000 DUP2 MSTORE PUSH1 0x4 ADD PUSH1 0x40 MLOAD DUP1 SWAP2 SUB SWAP1 REVERT JUMPDEST JUMP JUMPDEST PUSH0 PUSH20 0xFFFFFFFFFFFFFFFFFFFFFFFFFFFFFFFFFFFFFFFF AND DUP4 PUSH20 0xFFFFFFFFFFFFFFFFFFFFFFFFFFFFFFFFFFFFFFFF AND SUB PUSH2 0x85B JUMPI DUP1 PUSH1 0x2 PUSH0 DUP3 DUP3 SLOAD PUSH2 0x84F SWAP2 SWAP1 PUSH2 0x1A2E JUMP JUMPDEST SWAP3 POP POP DUP2 SWAP1 SSTORE POP PUSH2 0x929 JUMP JUMPDEST PUSH0 DUP1 PUSH0 DUP6 PUSH20 0xFFFFFFFFFFFFFFFFFFFFFFFFFFFFFFFFFFFFFFFF AND PUSH20 0xFFFFFFFFFFFFFFFFFFFFFFFFFFFFFFFFFFFFFFFF AND DUP2 MSTORE PUSH1 0x20 ADD SWAP1 DUP2 MSTORE PUSH1 0x20 ADD PUSH0 KECCAK256 SLOAD SWAP1 POP DUP2 DUP2 LT ISZERO PUSH2 0x8E4 JUMPI DUP4 DUP2 DUP4 PUSH1 0x40 MLOAD PUSH32 0xE450D38C00000000000000000000000000000000000000000000000000000000 DUP2 MSTORE PUSH1 0x4 ADD PUSH2 0x8DB SWAP4 SWAP3 SWAP2 SWAP1 PUSH2 0x1A61 JUMP JUMPDEST PUSH1 0x40 MLOAD DUP1 SWAP2 SUB SWAP1 REVERT JUMPDEST DUP2 DUP2 SUB PUSH0 DUP1 DUP7 PUSH20 0xFFFFFFFFFFFFFFFFFFFFFFFFFFFFFFFFFFFFFFFF AND PUSH20 0xFFFFFFFFFFFFFFFFFFFFFFFFFFFFFFFFFFFFFFFF AND DUP2 MSTORE PUSH1 0x20 ADD SWAP1 DUP2 MSTORE PUSH1 0x20 ADD PUSH0 KECCAK256 DUP2 SWAP1 SSTORE POP POP JUMPDEST PUSH0 PUSH20 0xFFFFFFFFFFFFFFFFFFFFFFFFFFFFFFFFFFFFFFFF AND DUP3 PUSH20 0xFFFFFFFFFFFFFFFFFFFFFFFFFFFFFFFFFFFFFFFF AND SUB PUSH2 0x970 JUMPI DUP1 PUSH1 0x2 PUSH0 DUP3 DUP3 SLOAD SUB SWAP3 POP POP DUP2 SWAP1 SSTORE POP PUSH2 0x9BA JUMP JUMPDEST DUP1 PUSH0 DUP1 DUP5 PUSH20 0xFFFFFFFFFFFFFFFFFFFFFFFFFFFFFFFFFFFFFFFF AND PUSH20 0xFFFFFFFFFFFFFFFFFFFFFFFFFFFFFFFFFFFFFFFF AND DUP2 MSTORE PUSH1 0x20 ADD SWAP1 DUP2 MSTORE PUSH1 0x20 ADD PUSH0 KECCAK256 PUSH0 DUP3 DUP3 SLOAD ADD SWAP3 POP POP DUP2 SWAP1 SSTORE POP JUMPDEST DUP2 PUSH20 0xFFFFFFFFFFFFFFFFFFFFFFFFFFFFFFFFFFFFFFFF AND DUP4 PUSH20 0xFFFFFFFFFFFFFFFFFFFFFFFFFFFFFFFFFFFFFFFF AND PUSH32 0xDDF252AD1BE2C89B69C2B068FC378DAA952BA7F163C4A11628F55A4DF523B3EF DUP4 PUSH1 0x40 MLOAD PUSH2 0xA17 SWAP2 SWAP1 PUSH2 0x1A96 JUMP JUMPDEST PUSH1 0x40 MLOAD DUP1 SWAP2 SUB SWAP1 LOG3 POP POP POP JUMP JUMPDEST PUSH0 DUP2 DUP4 PUSH2 0xA31 SWAP2 SWAP1 PUSH2 0x1AD4 JUMP JUMPDEST SWAP1 POP SWAP3 SWAP2 POP POP JUMP JUMPDEST PUSH0 PUSH26 0xFFFFFFFFFFFFFFFFFFFFFFFFFFFFFFFFFFFFFFFFFFFFFFFFFFFF DUP1 AND DUP3 GT ISZERO PUSH2 0xA9E JUMPI PUSH1 0xD0 DUP3 PUSH1 0x40 MLOAD PUSH32 0x6DFCC65000000000000000000000000000000000000000000000000000000000 DUP2 MSTORE PUSH1 0x4 ADD PUSH2 0xA95 SWAP3 SWAP2 SWAP1 PUSH2 0x1B5A JUMP JUMPDEST PUSH1 0x40 MLOAD DUP1 SWAP2 SUB SWAP1 REVERT JUMPDEST DUP2 SWAP1 POP SWAP2 SWAP1 POP JUMP JUMPDEST PUSH0 DUP1 PUSH2 0xAE2 PUSH2 0xAB9 PUSH2 0xE13 PUSH1 0x20 SHL PUSH1 0x20 SHR JUMP JUMPDEST PUSH2 0xAD2 PUSH2 0xACB DUP9 PUSH2 0xE27 PUSH1 0x20 SHL PUSH1 0x20 SHR JUMP JUMPDEST DUP7 DUP9 PUSH1 0x20 SHR JUMP JUMPDEST DUP8 PUSH2 0xE8F PUSH1 0x20 SHL SWAP1 SWAP3 SWAP2 SWAP1 PUSH1 0x20 SHR JUMP JUMPDEST SWAP2 POP SWAP2 POP SWAP4 POP SWAP4 SWAP2 POP POP JUMP JUMPDEST PUSH0 DUP2 DUP4 PUSH2 0xAFB SWAP2 SWAP1 PUSH2 0x1B81 JUMP JUMPDEST SWAP1 POP SWAP3 SWAP2 POP POP JUMP JUMPDEST PUSH0 PUSH1 0xA PUSH0 DUP4 PUSH20 0xFFFFFFFFFFFFFFFFFFFFFFFFFFFFFFFFFFFFFFFF AND PUSH20 0xFFFFFFFFFFFFFFFFFFFFFFFFFFFFFFFFFFFFFFFF AND DUP2 MSTORE PUSH1 0x20 ADD SWAP1 DUP2 MSTORE PUSH1 0x20 ADD PUSH0 KECCAK256 PUSH0 SWAP1 SLOAD SWAP1 PUSH2 0x100 EXP SWAP1 DIV PUSH20 0xFFFFFFFFFFFFFFFFFFFFFFFFFFFFFFFFFFFFFFFF AND SWAP1 POP SWAP2 SWAP1 POP JUMP JUMPDEST DUP2 PUSH20 0xFFFFFFFFFFFFFFFFFFFFFFFFFFFFFFFFFFFFFFFF AND DUP4 PUSH20 0xFFFFFFFFFFFFFFFFFFFFFFFFFFFFFFFFFFFFFFFF AND EQ ISZERO DUP1 ISZERO PUSH2 0xBA3 JUMPI POP PUSH0 DUP2 GT JUMPDEST ISZERO PUSH2 0xDF9 JUMPI PUSH0 PUSH20 0xFFFFFFFFFFFFFFFFFFFFFFFFFFFFFFFFFFFFFFFF AND DUP4 PUSH20 0xFFFFFFFFFFFFFFFFFFFFFFFFFFFFFFFFFFFFFFFF AND EQ PUSH2 0xCD0 JUMPI PUSH0 DUP1 PUSH2 0xC41 PUSH1 0xB PUSH0 DUP8 PUSH20 0xFFFFFFFFFFFFFFFFFFFFFFFFFFFFFFFFFFFFFFFF AND PUSH20 0xFFFFFFFFFFFFFFFFFFFFFFFFFFFFFFFFFFFFFFFF AND DUP2 MSTORE PUSH1 0x20 ADD SWAP1 DUP2 MSTORE PUSH1 0x20 ADD PUSH0 KECCAK256 PUSH2 0xAEE PUSH1 0x20 SHL PUSH2 0x1684 OR PUSH2 0xC36 DUP7 PUSH2 0xA39 PUSH1 0x20 SHL PUSH1 0x20 SHR JUMP JUMPDEST PUSH2 0xAA6 PUSH1 0x20 SHL PUSH1 0x20 SHR JUMP JUMPDEST PUSH26 0xFFFFFFFFFFFFFFFFFFFFFFFFFFFFFFFFFFFFFFFFFFFFFFFFFFFF AND SWAP2 POP PUSH26 0xFFFFFFFFFFFFFFFFFFFFFFFFFFFFFFFFFFFFFFFFFFFFFFFFFFFF AND SWAP2 POP DUP5 PUSH20 0xFFFFFFFFFFFFFFFFFFFFFFFFFFFFFFFFFFFFFFFF AND PUSH32 0xDEC2BACDD2F05B59DE34DA9B523DFF8BE42E5E38E818C82FDB0BAE774387A724 DUP4 DUP4 PUSH1 0x40 MLOAD PUSH2 0xCC5 SWAP3 SWAP2 SWAP1 PUSH2 0x1A07 JUMP JUMPDEST PUSH1 0x40 MLOAD DUP1 SWAP2 SUB SWAP1 LOG2 POP POP JUMPDEST PUSH0 PUSH20 0xFFFFFFFFFFFFFFFFFFFFFFFFFFFFFFFFFFFFFFFF AND DUP3 PUSH20 0xFFFFFFFFFFFFFFFFFFFFFFFFFFFFFFFFFFFFFFFF AND EQ PUSH2 0xDF8 JUMPI PUSH0 DUP1 PUSH2 0xD69 PUSH1 0xB PUSH0 DUP7 PUSH20 0xFFFFFFFFFFFFFFFFFFFFFFFFFFFFFFFFFFFFFFFF AND PUSH20 0xFFFFFFFFFFFFFFFFFFFFFFFFFFFFFFFFFFFFFFFF AND DUP2 MSTORE PUSH1 0x20 ADD SWAP1 DUP2 MSTORE PUSH1 0x20 ADD PUSH0 KECCAK256 PUSH2 0xA24 PUSH1 0x20 SHL PUSH2 0x166F OR PUSH2 0xD5E DUP7 PUSH2 0xA39 PUSH1 0x20 SHL PUSH1 0x20 SHR JUMP JUMPDEST PUSH2 0xAA6 PUSH1 0x20 SHL PUSH1 0x20 SHR JUMP JUMPDEST PUSH26 0xFFFFFFFFFFFFFFFFFFFFFFFFFFFFFFFFFFFFFFFFFFFFFFFFFFFF AND SWAP2 POP PUSH26 0xFFFFFFFFFFFFFFFFFFFFFFFFFFFFFFFFFFFFFFFFFFFFFFFFFFFF AND SWAP2 POP DUP4 PUSH20 0xFFFFFFFFFFFFFFFFFFFFFFFFFFFFFFFFFFFFFFFF AND PUSH32 0xDEC2BACDD2F05B59DE34DA9B523DFF8BE42E5E38E818C82FDB0BAE774387A724 DUP4 DUP4 PUSH1 0x40 MLOAD PUSH2 0xDED SWAP3 SWAP2 SWAP1 PUSH2 0x1A07 JUMP JUMPDEST PUSH1 0x40 MLOAD DUP1 SWAP2 SUB SWAP1 LOG2 POP POP JUMPDEST JUMPDEST POP POP POP JUMP JUMPDEST PUSH0 PUSH1 0x5 PUSH0 SWAP1 SLOAD SWAP1 PUSH2 0x100 EXP SWAP1 DIV PUSH1 0xFF AND SWAP1 POP SWAP1 JUMP JUMPDEST PUSH0 PUSH2 0xE22 PUSH2 0xEB0 PUSH1 0x20 SHL PUSH1 0x20 SHR JUMP JUMPDEST SWAP1 POP SWAP1 JUMP JUMPDEST PUSH0 DUP1 DUP3 PUSH0 ADD DUP1 SLOAD SWAP1 POP SWAP1 POP PUSH0 DUP2 EQ PUSH2 0xE85 JUMPI PUSH2 0xE57 DUP4 PUSH0 ADD PUSH1 0x1 DUP4 PUSH2 0xE4C SWAP2 SWAP1 PUSH2 0x1BCE JUMP JUMPDEST PUSH2 0xEC5 PUSH1 0x20 SHL PUSH1 0x20 SHR JUMP JUMPDEST PUSH0 ADD PUSH1 0x6 SWAP1 SLOAD SWAP1 PUSH2 0x100 EXP SWAP1 DIV PUSH26 0xFFFFFFFFFFFFFFFFFFFFFFFFFFFFFFFFFFFFFFFFFFFFFFFFFFFF AND PUSH2 0xE87 JUMP JUMPDEST PUSH0 JUMPDEST SWAP2 POP POP SWAP2 SWAP1 POP JUMP JUMPDEST PUSH0 DUP1 PUSH2 0xEA4 DUP6 PUSH0 ADD DUP6 DUP6 PUSH2 0xED7 PUSH1 0x20 SHL PUSH1 0x20 SHR JUMP JUMPDEST SWAP2 POP SWAP2 POP SWAP4 POP SWAP4 SWAP2 POP POP JUMP JUMPDEST PUSH0 PUSH2 0xEC0 NUMBER PUSH2 0x124B PUSH1 0x20 SHL PUSH1 0x20 SHR JUMP JUMPDEST SWAP1 POP SWAP1 JUMP JUMPDEST PUSH0 DUP3 PUSH0 MSTORE DUP2 PUSH1 0x20 PUSH0 KECCAK256 ADD SWAP1 POP SWAP3 SWAP2 POP POP JUMP JUMPDEST PUSH0 DUP1 PUSH0 DUP6 DUP1 SLOAD SWAP1 POP SWAP1 POP PUSH0 DUP2 GT ISZERO PUSH2 0x1163 JUMPI PUSH0 PUSH2 0xF06 DUP8 PUSH1 0x1 DUP5 PUSH2 0xEFB SWAP2 SWAP1 PUSH2 0x1BCE JUMP JUMPDEST PUSH2 0xEC5 PUSH1 0x20 SHL PUSH1 0x20 SHR JUMP JUMPDEST PUSH1 0x40 MLOAD DUP1 PUSH1 0x40 ADD PUSH1 0x40 MSTORE SWAP1 DUP2 PUSH0 DUP3 ADD PUSH0 SWAP1 SLOAD SWAP1 PUSH2 0x100 EXP SWAP1 DIV PUSH6 0xFFFFFFFFFFFF AND PUSH6 0xFFFFFFFFFFFF AND PUSH6 0xFFFFFFFFFFFF AND DUP2 MSTORE PUSH1 0x20 ADD PUSH0 DUP3 ADD PUSH1 0x6 SWAP1 SLOAD SWAP1 PUSH2 0x100 EXP SWAP1 DIV PUSH26 0xFFFFFFFFFFFFFFFFFFFFFFFFFFFFFFFFFFFFFFFFFFFFFFFFFFFF AND PUSH26 0xFFFFFFFFFFFFFFFFFFFFFFFFFFFFFFFFFFFFFFFFFFFFFFFFFFFF AND PUSH26 0xFFFFFFFFFFFFFFFFFFFFFFFFFFFFFFFFFFFFFFFFFFFFFFFFFFFF AND DUP2 MSTORE POP POP SWAP1 POP DUP6 PUSH6 0xFFFFFFFFFFFF AND DUP2 PUSH0 ADD MLOAD PUSH6 0xFFFFFFFFFFFF AND GT ISZERO PUSH2 0xFF1 JUMPI PUSH1 0x40 MLOAD PUSH32 0x2520601D00000000000000000000000000000000000000000000000000000000 DUP2 MSTORE PUSH1 0x4 ADD PUSH1 0x40 MLOAD DUP1 SWAP2 SUB SWAP1 REVERT JUMPDEST DUP6 PUSH6 0xFFFFFFFFFFFF AND DUP2 PUSH0 ADD MLOAD PUSH6 0xFFFFFFFFFFFF AND SUB PUSH2 0x1079 JUMPI DUP5 PUSH2 0x1028 DUP9 PUSH1 0x1 DUP6 PUSH2 0x101D SWAP2 SWAP1 PUSH2 0x1BCE JUMP JUMPDEST PUSH2 0xEC5 PUSH1 0x20 SHL PUSH1 0x20 SHR JUMP JUMPDEST PUSH0 ADD PUSH1 0x6 PUSH2 0x100 EXP DUP2 SLOAD DUP2 PUSH26 0xFFFFFFFFFFFFFFFFFFFFFFFFFFFFFFFFFFFFFFFFFFFFFFFFFFFF MUL NOT AND SWAP1 DUP4 PUSH26 0xFFFFFFFFFFFFFFFFFFFFFFFFFFFFFFFFFFFFFFFFFFFFFFFFFFFF AND MUL OR SWAP1 SSTORE POP PUSH2 0x1152 JUMP JUMPDEST DUP7 PUSH1 0x40 MLOAD DUP1 PUSH1 0x40 ADD PUSH1 0x40 MSTORE DUP1 DUP9 PUSH6 0xFFFFFFFFFFFF AND DUP2 MSTORE PUSH1 0x20 ADD DUP8 PUSH26 0xFFFFFFFFFFFFFFFFFFFFFFFFFFFFFFFFFFFFFFFFFFFFFFFFFFFF AND DUP2 MSTORE POP SWAP1 DUP1 PUSH1 0x1 DUP2 SLOAD ADD DUP1 DUP3 SSTORE DUP1 SWAP2 POP POP PUSH1 0x1 SWAP1 SUB SWAP1 PUSH0 MSTORE PUSH1 0x20 PUSH0 KECCAK256 ADD PUSH0 SWAP1 SWAP2 SWAP1 SWAP2 SWAP1 SWAP2 POP PUSH0 DUP3 ADD MLOAD DUP2 PUSH0 ADD PUSH0 PUSH2 0x100 EXP DUP2 SLOAD DUP2 PUSH6 0xFFFFFFFFFFFF MUL NOT AND SWAP1 DUP4 PUSH6 0xFFFFFFFFFFFF AND MUL OR SWAP1 SSTORE POP PUSH1 0x20 DUP3 ADD MLOAD DUP2 PUSH0 ADD PUSH1 0x6 PUSH2 0x100 EXP DUP2 SLOAD DUP2 PUSH26 0xFFFFFFFFFFFFFFFFFFFFFFFFFFFFFFFFFFFFFFFFFFFFFFFFFFFF MUL NOT AND SWAP1 DUP4 PUSH26 0xFFFFFFFFFFFFFFFFFFFFFFFFFFFFFFFFFFFFFFFFFFFFFFFFFFFF AND MUL OR SWAP1 SSTORE POP POP POP JUMPDEST DUP1 PUSH1 0x20 ADD MLOAD DUP6 SWAP4 POP SWAP4 POP POP POP PUSH2 0x1243 JUMP JUMPDEST DUP6 PUSH1 0x40 MLOAD DUP1 PUSH1 0x40 ADD PUSH1 0x40 MSTORE DUP1 DUP8 PUSH6 0xFFFFFFFFFFFF AND DUP2 MSTORE PUSH1 0x20 ADD DUP7 PUSH26 0xFFFFFFFFFFFFFFFFFFFFFFFFFFFFFFFFFFFFFFFFFFFFFFFFFFFF AND DUP2 MSTORE POP SWAP1 DUP1 PUSH1 0x1 DUP2 SLOAD ADD DUP1 DUP3 SSTORE DUP1 SWAP2 POP POP PUSH1 0x1 SWAP1 SUB SWAP1 PUSH0 MSTORE PUSH1 0x20 PUSH0 KECCAK256 ADD PUSH0 SWAP1 SWAP2 SWAP1 SWAP2 SWAP1 SWAP2 POP PUSH0 DUP3 ADD MLOAD DUP2 PUSH0 ADD PUSH0 PUSH2 0x100 EXP DUP2 SLOAD DUP2 PUSH6 0xFFFFFFFFFFFF MUL NOT AND SWAP1 DUP4 PUSH6 0xFFFFFFFFFFFF AND MUL OR SWAP1 SSTORE POP PUSH1 0x20 DUP3 ADD MLOAD DUP2 PUSH0 ADD PUSH1 0x6 PUSH2 0x100 EXP DUP2 SLOAD DUP2 PUSH26 0xFFFFFFFFFFFFFFFFFFFFFFFFFFFFFFFFFFFFFFFFFFFFFFFFFFFF MUL NOT AND SWAP1 DUP4 PUSH26 0xFFFFFFFFFFFFFFFFFFFFFFFFFFFFFFFFFFFFFFFFFFFFFFFFFFFF AND MUL OR SWAP1 SSTORE POP POP POP PUSH0 DUP5 SWAP3 POP SWAP3 POP POP JUMPDEST SWAP4 POP SWAP4 SWAP2 POP POP JUMP JUMPDEST PUSH0 PUSH6 0xFFFFFFFFFFFF DUP1 AND DUP3 GT ISZERO PUSH2 0x129C JUMPI PUSH1 0x30 DUP3 PUSH1 0x40 MLOAD PUSH32 0x6DFCC65000000000000000000000000000000000000000000000000000000000 DUP2 MSTORE PUSH1 0x4 ADD PUSH2 0x1293 SWAP3 SWAP2 SWAP1 PUSH2 0x1C3A JUMP JUMPDEST PUSH1 0x40 MLOAD DUP1 SWAP2 SUB SWAP1 REVERT JUMPDEST DUP2 SWAP1 POP SWAP2 SWAP1 POP JUMP JUMPDEST PUSH0 DUP1 REVERT JUMPDEST PUSH0 PUSH20 0xFFFFFFFFFFFFFFFFFFFFFFFFFFFFFFFFFFFFFFFF DUP3 AND SWAP1 POP SWAP2 SWAP1 POP JUMP JUMPDEST PUSH0 PUSH2 0x12D1 DUP3 PUSH2 0x12A8 JUMP JUMPDEST SWAP1 POP SWAP2 SWAP1 POP JUMP JUMPDEST PUSH2 0x12E1 DUP2 PUSH2 0x12C7 JUMP JUMPDEST DUP2 EQ PUSH2 0x12EB JUMPI PUSH0 DUP1 REVERT JUMPDEST POP JUMP JUMPDEST PUSH0 DUP2 MLOAD SWAP1 POP PUSH2 0x12FC DUP2 PUSH2 0x12D8 JUMP JUMPDEST SWAP3 SWAP2 POP POP JUMP JUMPDEST PUSH0 DUP1 PUSH0 PUSH1 0x60 DUP5 DUP7 SUB SLT ISZERO PUSH2 0x1319 JUMPI PUSH2 0x1318 PUSH2 0x12A4 JUMP JUMPDEST JUMPDEST PUSH0 PUSH2 0x1326 DUP7 DUP3 DUP8 ADD PUSH2 0x12EE JUMP JUMPDEST SWAP4 POP POP PUSH1 0x20 PUSH2 0x1337 DUP7 DUP3 DUP8 ADD PUSH2 0x12EE JUMP JUMPDEST SWAP3 POP POP PUSH1 0x40 PUSH2 0x1348 DUP7 DUP3 DUP8 ADD PUSH2 0x12EE JUMP JUMPDEST SWAP2 POP POP SWAP3 POP SWAP3 POP SWAP3 JUMP JUMPDEST PUSH0 DUP2 MLOAD SWAP1 POP SWAP2 SWAP1 POP JUMP JUMPDEST PUSH32 0x4E487B7100000000000000000000000000000000000000000000000000000000 PUSH0 MSTORE PUSH1 0x41 PUSH1 0x4 MSTORE PUSH1 0x24 PUSH0 REVERT JUMPDEST PUSH32 0x4E487B7100000000000000000000000000000000000000000000000000000000 PUSH0 MSTORE PUSH1 0x22 PUSH1 0x4 MSTORE PUSH1 0x24 PUSH0 REVERT JUMPDEST PUSH0 PUSH1 0x2 DUP3 DIV SWAP1 POP PUSH1 0x1 DUP3 AND DUP1 PUSH2 0x13CD JUMPI PUSH1 0x7F DUP3 AND SWAP2 POP JUMPDEST PUSH1 0x20 DUP3 LT DUP2 SUB PUSH2 0x13E0 JUMPI PUSH2 0x13DF PUSH2 0x1389 JUMP JUMPDEST JUMPDEST POP SWAP2 SWAP1 POP JUMP JUMPDEST PUSH0 DUP2 SWAP1 POP DUP2 PUSH0 MSTORE PUSH1 0x20 PUSH0 KECCAK256 SWAP1 POP SWAP2 SWAP1 POP JUMP JUMPDEST PUSH0 PUSH1 0x20 PUSH1 0x1F DUP4 ADD DIV SWAP1 POP SWAP2 SWAP1 POP JUMP JUMPDEST PUSH0 DUP3 DUP3 SHL SWAP1 POP SWAP3 SWAP2 POP POP JUMP JUMPDEST PUSH0 PUSH1 0x8 DUP4 MUL PUSH2 0x1442 PUSH32 0xFFFFFFFFFFFFFFFFFFFFFFFFFFFFFFFFFFFFFFFFFFFFFFFFFFFFFFFFFFFFFFFF DUP3 PUSH2 0x1407 JUMP JUMPDEST PUSH2 0x144C DUP7 DUP4 PUSH2 0x1407 JUMP JUMPDEST SWAP6 POP DUP1 NOT DUP5 AND SWAP4 POP DUP1 DUP7 AND DUP5 OR SWAP3 POP POP POP SWAP4 SWAP3 POP POP POP JUMP JUMPDEST PUSH0 DUP2 SWAP1 POP SWAP2 SWAP1 POP JUMP JUMPDEST PUSH0 DUP2 SWAP1 POP SWAP2 SWAP1 POP JUMP JUMPDEST PUSH0 PUSH2 0x1490 PUSH2 0x148B PUSH2 0x1486 DUP5 PUSH2 0x1464 JUMP JUMPDEST PUSH2 0x146D JUMP JUMPDEST PUSH2 0x1464 JUMP JUMPDEST SWAP1 POP SWAP2 SWAP1 POP JUMP JUMPDEST PUSH0 DUP2 SWAP1 POP SWAP2 SWAP1 POP JUMP JUMPDEST PUSH2 0x14A9 DUP4 PUSH2 0x1476 JUMP JUMPDEST PUSH2 0x14BD PUSH2 0x14B5 DUP3 PUSH2 0x1497 JUMP JUMPDEST DUP5 DUP5 SLOAD PUSH2 0x1413 JUMP JUMPDEST DUP3 SSTORE POP POP POP POP JUMP JUMPDEST PUSH0 SWAP1 JUMP JUMPDEST PUSH2 0x14D1 PUSH2 0x14C5 JUMP JUMPDEST PUSH2 0x14DC DUP2 DUP5 DUP5 PUSH2 0x14A0 JUMP JUMPDEST POP POP POP JUMP JUMPDEST JUMPDEST DUP2 DUP2 LT ISZERO PUSH2 0x14FF JUMPI PUSH2 0x14F4 PUSH0 DUP3 PUSH2 0x14C9 JUMP JUMPDEST PUSH1 0x1 DUP2 ADD SWAP1 POP PUSH2 0x14E2 JUMP JUMPDEST POP POP JUMP JUMPDEST PUSH1 0x1F DUP3 GT ISZERO PUSH2 0x1544 JUMPI PUSH2 0x1515 DUP2 PUSH2 0x13E6 JUMP JUMPDEST PUSH2 0x151E DUP5 PUSH2 0x13F8 JUMP JUMPDEST DUP2 ADD PUSH1 0x20 DUP6 LT ISZERO PUSH2 0x152D JUMPI DUP2 SWAP1 POP JUMPDEST PUSH2 0x1541 PUSH2 0x1539 DUP6 PUSH2 0x13F8 JUMP JUMPDEST DUP4 ADD DUP3 PUSH2 0x14E1 JUMP JUMPDEST POP POP JUMPDEST POP POP POP JUMP JUMPDEST PUSH0 DUP3 DUP3 SHR SWAP1 POP SWAP3 SWAP2 POP POP JUMP JUMPDEST PUSH0 PUSH2 0x1564 PUSH0 NOT DUP5 PUSH1 0x8 MUL PUSH2 0x1549 JUMP JUMPDEST NOT DUP1 DUP4 AND SWAP2 POP POP SWAP3 SWAP2 POP POP JUMP JUMPDEST PUSH0 PUSH2 0x157C DUP4 DUP4 PUSH2 0x1555 JUMP JUMPDEST SWAP2 POP DUP3 PUSH1 0x2 MUL DUP3 OR SWAP1 POP SWAP3 SWAP2 POP POP JUMP JUMPDEST PUSH2 0x1595 DUP3 PUSH2 0x1352 JUMP JUMPDEST PUSH8 0xFFFFFFFFFFFFFFFF DUP2 GT ISZERO PUSH2 0x15AE JUMPI PUSH2 0x15AD PUSH2 0x135C JUMP JUMPDEST JUMPDEST PUSH2 0x15B8 DUP3 SLOAD PUSH2 0x13B6 JUMP JUMPDEST PUSH2 0x15C3 DUP3 DUP3 DUP6 PUSH2 0x1503 JUMP JUMPDEST PUSH0 PUSH1 0x20 SWAP1 POP PUSH1 0x1F DUP4 GT PUSH1 0x1 DUP2 EQ PUSH2 0x15F4 JUMPI PUSH0 DUP5 ISZERO PUSH2 0x15E2 JUMPI DUP3 DUP8 ADD MLOAD SWAP1 POP JUMPDEST PUSH2 0x15EC DUP6 DUP3 PUSH2 0x1571 JUMP JUMPDEST DUP7 SSTORE POP PUSH2 0x1653 JUMP JUMPDEST PUSH1 0x1F NOT DUP5 AND PUSH2 0x1602 DUP7 PUSH2 0x13E6 JUMP JUMPDEST PUSH0 JUMPDEST DUP3 DUP2 LT ISZERO PUSH2 0x1629 JUMPI DUP5 DUP10 ADD MLOAD DUP3 SSTORE PUSH1 0x1 DUP3 ADD SWAP2 POP PUSH1 0x20 DUP6 ADD SWAP5 POP PUSH1 0x20 DUP2 ADD SWAP1 POP PUSH2 0x1604 JUMP JUMPDEST DUP7 DUP4 LT ISZERO PUSH2 0x1646 JUMPI DUP5 DUP10 ADD MLOAD PUSH2 0x1642 PUSH1 0x1F DUP10 AND DUP3 PUSH2 0x1555 JUMP JUMPDEST DUP4 SSTORE POP JUMPDEST PUSH1 0x1 PUSH1 0x2 DUP9 MUL ADD DUP9 SSTORE POP POP POP JUMPDEST POP POP POP POP POP POP JUMP JUMPDEST PUSH32 0x4E487B7100000000000000000000000000000000000000000000000000000000 PUSH0 MSTORE PUSH1 0x11 PUSH1 0x4 MSTORE PUSH1 0x24 PUSH0 REVERT JUMPDEST PUSH0 DUP2 PUSH1 0x1 SHR SWAP1 POP SWAP2 SWAP1 POP JUMP JUMPDEST PUSH0 DUP1 DUP3 SWAP2 POP DUP4 SWAP1 POP JUMPDEST PUSH1 0x1 DUP6 GT ISZERO PUSH2 0x16DD JUMPI DUP1 DUP7 DIV DUP2 GT ISZERO PUSH2 0x16B9 JUMPI PUSH2 0x16B8 PUSH2 0x165B JUMP JUMPDEST JUMPDEST PUSH1 0x1 DUP6 AND ISZERO PUSH2 0x16C8 JUMPI DUP1 DUP3 MUL SWAP2 POP JUMPDEST DUP1 DUP2 MUL SWAP1 POP PUSH2 0x16D6 DUP6 PUSH2 0x1688 JUMP JUMPDEST SWAP5 POP PUSH2 0x169D JUMP JUMPDEST SWAP5 POP SWAP5 SWAP3 POP POP POP JUMP JUMPDEST PUSH0 DUP3 PUSH2 0x16F5 JUMPI PUSH1 0x1 SWAP1 POP PUSH2 0x17B0 JUMP JUMPDEST DUP2 PUSH2 0x1702 JUMPI PUSH0 SWAP1 POP PUSH2 0x17B0 JUMP JUMPDEST DUP2 PUSH1 0x1 DUP2 EQ PUSH2 0x1718 JUMPI PUSH1 0x2 DUP2 EQ PUSH2 0x1722 JUMPI PUSH2 0x1751 JUMP JUMPDEST PUSH1 0x1 SWAP2 POP POP PUSH2 0x17B0 JUMP JUMPDEST PUSH1 0xFF DUP5 GT ISZERO PUSH2 0x1734 JUMPI PUSH2 0x1733 PUSH2 0x165B JUMP JUMPDEST JUMPDEST DUP4 PUSH1 0x2 EXP SWAP2 POP DUP5 DUP3 GT ISZERO PUSH2 0x174B JUMPI PUSH2 0x174A PUSH2 0x165B JUMP JUMPDEST JUMPDEST POP PUSH2 0x17B0 JUMP JUMPDEST POP PUSH1 0x20 DUP4 LT PUSH2 0x133 DUP4 LT AND PUSH1 0x4E DUP5 LT PUSH1 0xB DUP5 LT AND OR ISZERO PUSH2 0x1786 JUMPI DUP3 DUP3 EXP SWAP1 POP DUP4 DUP2 GT ISZERO PUSH2 0x1781 JUMPI PUSH2 0x1780 PUSH2 0x165B JUMP JUMPDEST JUMPDEST PUSH2 0x17B0 JUMP JUMPDEST PUSH2 0x1793 DUP5 DUP5 DUP5 PUSH1 0x1 PUSH2 0x1694 JUMP JUMPDEST SWAP3 POP SWAP1 POP DUP2 DUP5 DIV DUP2 GT ISZERO PUSH2 0x17AA JUMPI PUSH2 0x17A9 PUSH2 0x165B JUMP JUMPDEST JUMPDEST DUP2 DUP2 MUL SWAP1 POP JUMPDEST SWAP4 SWAP3 POP POP POP JUMP JUMPDEST PUSH0 PUSH1 0xFF DUP3 AND SWAP1 POP SWAP2 SWAP1 POP JUMP JUMPDEST PUSH0 PUSH2 0x17CD DUP3 PUSH2 0x1464 JUMP JUMPDEST SWAP2 POP PUSH2 0x17D8 DUP4 PUSH2 0x17B7 JUMP JUMPDEST SWAP3 POP PUSH2 0x1805 PUSH32 0xFFFFFFFFFFFFFFFFFFFFFFFFFFFFFFFFFFFFFFFFFFFFFFFFFFFFFFFFFFFFFFFF DUP5 DUP5 PUSH2 0x16E6 JUMP JUMPDEST SWAP1 POP SWAP3 SWAP2 POP POP JUMP JUMPDEST PUSH0 PUSH2 0x1817 DUP3 PUSH2 0x1464 JUMP JUMPDEST SWAP2 POP PUSH2 0x1822 DUP4 PUSH2 0x1464 JUMP JUMPDEST SWAP3 POP DUP3 DUP3 MUL PUSH2 0x1830 DUP2 PUSH2 0x1464 JUMP JUMPDEST SWAP2 POP DUP3 DUP3 DIV DUP5 EQ DUP4 ISZERO OR PUSH2 0x1847 JUMPI PUSH2 0x1846 PUSH2 0x165B JUMP JUMPDEST JUMPDEST POP SWAP3 SWAP2 POP POP JUMP JUMPDEST PUSH0 DUP2 SWAP1 POP SWAP2 SWAP1 POP JUMP JUMPDEST PUSH2 0x1860 DUP2 PUSH2 0x184E JUMP JUMPDEST DUP3 MSTORE POP POP JUMP JUMPDEST PUSH2 0x186F DUP2 PUSH2 0x1464 JUMP JUMPDEST DUP3 MSTORE POP POP JUMP JUMPDEST PUSH2 0x187E DUP2 PUSH2 0x12C7 JUMP JUMPDEST DUP3 MSTORE POP POP JUMP JUMPDEST PUSH0 PUSH1 0xA0 DUP3 ADD SWAP1 POP PUSH2 0x1897 PUSH0 DUP4 ADD DUP9 PUSH2 0x1857 JUMP JUMPDEST PUSH2 0x18A4 PUSH1 0x20 DUP4 ADD DUP8 PUSH2 0x1857 JUMP JUMPDEST PUSH2 0x18B1 PUSH1 0x40 DUP4 ADD DUP7 PUSH2 0x1857 JUMP JUMPDEST PUSH2 0x18BE PUSH1 0x60 DUP4 ADD DUP6 PUSH2 0x1866 JUMP JUMPDEST PUSH2 0x18CB PUSH1 0x80 DUP4 ADD DUP5 PUSH2 0x1875 JUMP JUMPDEST SWAP7 SWAP6 POP POP POP POP POP POP JUMP JUMPDEST PUSH0 PUSH1 0x20 DUP3 ADD SWAP1 POP PUSH2 0x18E8 PUSH0 DUP4 ADD DUP5 PUSH2 0x1875 JUMP JUMPDEST SWAP3 SWAP2 POP POP JUMP JUMPDEST PUSH0 DUP3 DUP3 MSTORE PUSH1 0x20 DUP3 ADD SWAP1 POP SWAP3 SWAP2 POP POP JUMP JUMPDEST DUP3 DUP2 DUP4 MCOPY PUSH0 DUP4 DUP4 ADD MSTORE POP POP POP JUMP JUMPDEST PUSH0 PUSH1 0x1F NOT PUSH1 0x1F DUP4 ADD AND SWAP1 POP SWAP2 SWAP1 POP JUMP JUMPDEST PUSH0 PUSH2 0x1926 DUP3 PUSH2 0x1352 JUMP JUMPDEST PUSH2 0x1930 DUP2 DUP6 PUSH2 0x18EE JUMP JUMPDEST SWAP4 POP PUSH2 0x1940 DUP2 DUP6 PUSH1 0x20 DUP7 ADD PUSH2 0x18FE JUMP JUMPDEST PUSH2 0x1949 DUP2 PUSH2 0x190C JUMP JUMPDEST DUP5 ADD SWAP2 POP POP SWAP3 SWAP2 POP POP JUMP JUMPDEST PUSH0 PUSH1 0x20 DUP3 ADD SWAP1 POP DUP2 DUP2 SUB PUSH0 DUP4 ADD MSTORE PUSH2 0x196C DUP2 DUP5 PUSH2 0x191C JUMP JUMPDEST SWAP1 POP SWAP3 SWAP2 POP POP JUMP JUMPDEST PUSH0 DUP2 MLOAD SWAP1 POP SWAP2 SWAP1 POP JUMP JUMPDEST PUSH0 DUP2 SWAP1 POP PUSH1 0x20 DUP3 ADD SWAP1 POP SWAP2 SWAP1 POP JUMP JUMPDEST PUSH0 PUSH2 0x1998 DUP3 MLOAD PUSH2 0x184E JUMP JUMPDEST DUP1 SWAP2 POP POP SWAP2 SWAP1 POP JUMP JUMPDEST PUSH0 PUSH2 0x19AB DUP3 PUSH2 0x1974 JUMP JUMPDEST DUP3 PUSH2 0x19B5 DUP5 PUSH2 0x197E JUMP JUMPDEST SWAP1 POP PUSH2 0x19C0 DUP2 PUSH2 0x198D JUMP JUMPDEST SWAP3 POP PUSH1 0x20 DUP3 LT ISZERO PUSH2 0x1A00 JUMPI PUSH2 0x19FB PUSH32 0xFFFFFFFFFFFFFFFFFFFFFFFFFFFFFFFFFFFFFFFFFFFFFFFFFFFFFFFFFFFFFFFF DUP4 PUSH1 0x20 SUB PUSH1 0x8 MUL PUSH2 0x1407 JUMP JUMPDEST DUP4 AND SWAP3 POP JUMPDEST POP POP SWAP2 SWAP1 POP JUMP JUMPDEST PUSH0 PUSH1 0x40 DUP3 ADD SWAP1 POP PUSH2 0x1A1A PUSH0 DUP4 ADD DUP6 PUSH2 0x1866 JUMP JUMPDEST PUSH2 0x1A27 PUSH1 0x20 DUP4 ADD DUP5 PUSH2 0x1866 JUMP JUMPDEST SWAP4 SWAP3 POP POP POP JUMP JUMPDEST PUSH0 PUSH2 0x1A38 DUP3 PUSH2 0x1464 JUMP JUMPDEST SWAP2 POP PUSH2 0x1A43 DUP4 PUSH2 0x1464 JUMP JUMPDEST SWAP3 POP DUP3 DUP3 ADD SWAP1 POP DUP1 DUP3 GT ISZERO PUSH2 0x1A5B JUMPI PUSH2 0x1A5A PUSH2 0x165B JUMP JUMPDEST JUMPDEST SWAP3 SWAP2 POP POP JUMP JUMPDEST PUSH0 PUSH1 0x60 DUP3 ADD SWAP1 POP PUSH2 0x1A74 PUSH0 DUP4 ADD DUP7 PUSH2 0x1875 JUMP JUMPDEST PUSH2 0x1A81 PUSH1 0x20 DUP4 ADD DUP6 PUSH2 0x1866 JUMP JUMPDEST PUSH2 0x1A8E PUSH1 0x40 DUP4 ADD DUP5 PUSH2 0x1866 JUMP JUMPDEST SWAP5 SWAP4 POP POP POP POP JUMP JUMPDEST PUSH0 PUSH1 0x20 DUP3 ADD SWAP1 POP PUSH2 0x1AA9 PUSH0 DUP4 ADD DUP5 PUSH2 0x1866 JUMP JUMPDEST SWAP3 SWAP2 POP POP JUMP JUMPDEST PUSH0 PUSH26 0xFFFFFFFFFFFFFFFFFFFFFFFFFFFFFFFFFFFFFFFFFFFFFFFFFFFF DUP3 AND SWAP1 POP SWAP2 SWAP1 POP JUMP JUMPDEST PUSH0 PUSH2 0x1ADE DUP3 PUSH2 0x1AAF JUMP JUMPDEST SWAP2 POP PUSH2 0x1AE9 DUP4 PUSH2 0x1AAF JUMP JUMPDEST SWAP3 POP DUP3 DUP3 ADD SWAP1 POP PUSH26 0xFFFFFFFFFFFFFFFFFFFFFFFFFFFFFFFFFFFFFFFFFFFFFFFFFFFF DUP2 GT ISZERO PUSH2 0x1B1B JUMPI PUSH2 0x1B1A PUSH2 0x165B JUMP JUMPDEST JUMPDEST SWAP3 SWAP2 POP POP JUMP JUMPDEST PUSH0 DUP2 SWAP1 POP SWAP2 SWAP1 POP JUMP JUMPDEST PUSH0 PUSH2 0x1B44 PUSH2 0x1B3F PUSH2 0x1B3A DUP5 PUSH2 0x1B21 JUMP JUMPDEST PUSH2 0x146D JUMP JUMPDEST PUSH2 0x17B7 JUMP JUMPDEST SWAP1 POP SWAP2 SWAP1 POP JUMP JUMPDEST PUSH2 0x1B54 DUP2 PUSH2 0x1B2A JUMP JUMPDEST DUP3 MSTORE POP POP JUMP JUMPDEST PUSH0 PUSH1 0x40 DUP3 ADD SWAP1 POP PUSH2 0x1B6D PUSH0 DUP4 ADD DUP6 PUSH2 0x1B4B JUMP JUMPDEST PUSH2 0x1B7A PUSH1 0x20 DUP4 ADD DUP5 PUSH2 0x1866 JUMP JUMPDEST SWAP4 SWAP3 POP POP POP JUMP JUMPDEST PUSH0 PUSH2 0x1B8B DUP3 PUSH2 0x1AAF JUMP JUMPDEST SWAP2 POP PUSH2 0x1B96 DUP4 PUSH2 0x1AAF JUMP JUMPDEST SWAP3 POP DUP3 DUP3 SUB SWAP1 POP PUSH26 0xFFFFFFFFFFFFFFFFFFFFFFFFFFFFFFFFFFFFFFFFFFFFFFFFFFFF DUP2 GT ISZERO PUSH2 0x1BC8 JUMPI PUSH2 0x1BC7 PUSH2 0x165B JUMP JUMPDEST JUMPDEST SWAP3 SWAP2 POP POP JUMP JUMPDEST PUSH0 PUSH2 0x1BD8 DUP3 PUSH2 0x1464 JUMP JUMPDEST SWAP2 POP PUSH2 0x1BE3 DUP4 PUSH2 0x1464 JUMP JUMPDEST SWAP3 POP DUP3 DUP3 SUB SWAP1 POP DUP2 DUP2 GT ISZERO PUSH2 0x1BFB JUMPI PUSH2 0x1BFA PUSH2 0x165B JUMP JUMPDEST JUMPDEST SWAP3 SWAP2 POP POP JUMP JUMPDEST PUSH0 DUP2 SWAP1 POP SWAP2 SWAP1 POP JUMP JUMPDEST PUSH0 PUSH2 0x1C24 PUSH2 0x1C1F PUSH2 0x1C1A DUP5 PUSH2 0x1C01 JUMP JUMPDEST PUSH2 0x146D JUMP JUMPDEST PUSH2 0x17B7 JUMP JUMPDEST SWAP1 POP SWAP2 SWAP1 POP JUMP JUMPDEST PUSH2 0x1C34 DUP2 PUSH2 0x1C0A JUMP JUMPDEST DUP3 MSTORE POP POP JUMP JUMPDEST PUSH0 PUSH1 0x40 DUP3 ADD SWAP1 POP PUSH2 0x1C4D PUSH0 DUP4 ADD DUP6 PUSH2 0x1C2B JUMP JUMPDEST PUSH2 0x1C5A PUSH1 0x20 DUP4 ADD DUP5 PUSH2 0x1866 JUMP JUMPDEST SWAP4 SWAP3 POP POP POP JUMP JUMPDEST PUSH1 0x80 MLOAD PUSH1 0xA0 MLOAD PUSH1 0xC0 MLOAD PUSH1 0xE0 MLOAD PUSH2 0x100 MLOAD PUSH2 0x120 MLOAD PUSH2 0x140 MLOAD PUSH2 0x484C PUSH2 0x1CB2 PUSH0 CODECOPY PUSH0 PUSH2 0x200F ADD MSTORE PUSH0 PUSH2 0x1FD4 ADD MSTORE PUSH0 PUSH2 0x246F ADD MSTORE PUSH0 PUSH2 0x244E ADD MSTORE PUSH0 PUSH2 0x199E ADD MSTORE PUSH0 PUSH2 0x19F4 ADD MSTORE PUSH0 PUSH2 0x1A1D ADD MSTORE PUSH2 0x484C PUSH0 RETURN INVALID PUSH1 0x80 PUSH1 0x40 MSTORE CALLVALUE DUP1 ISZERO PUSH2 0xF JUMPI PUSH0 DUP1 REVERT JUMPDEST POP PUSH1 0x4 CALLDATASIZE LT PUSH2 0x251 JUMPI PUSH0 CALLDATALOAD PUSH1 0xE0 SHR DUP1 PUSH4 0x6FCFFF45 GT PUSH2 0x144 JUMPI DUP1 PUSH4 0x9AB24EB0 GT PUSH2 0xC1 JUMPI DUP1 PUSH4 0xD5391393 GT PUSH2 0x85 JUMPI DUP1 PUSH4 0xD5391393 EQ PUSH2 0x74B JUMPI DUP1 PUSH4 0xD547741F EQ PUSH2 0x769 JUMPI DUP1 PUSH4 0xD9D98CE4 EQ PUSH2 0x785 JUMPI DUP1 PUSH4 0xDD62ED3E EQ PUSH2 0x7B5 JUMPI DUP1 PUSH4 0xE63AB1E9 EQ PUSH2 0x7E5 JUMPI DUP1 PUSH4 0xF1127ED8 EQ PUSH2 0x803 JUMPI PUSH2 0x251 JUMP JUMPDEST DUP1 PUSH4 0x9AB24EB0 EQ PUSH2 0x695 JUMPI DUP1 PUSH4 0xA217FDDF EQ PUSH2 0x6C5 JUMPI DUP1 PUSH4 0xA9059CBB EQ PUSH2 0x6E3 JUMPI DUP1 PUSH4 0xC3CDA520 EQ PUSH2 0x713 JUMPI DUP1 PUSH4 0xD505ACCF EQ PUSH2 0x72F JUMPI PUSH2 0x251 JUMP JUMPDEST DUP1 PUSH4 0x84B0196E GT PUSH2 0x108 JUMPI DUP1 PUSH4 0x84B0196E EQ PUSH2 0x5D5 JUMPI DUP1 PUSH4 0x8E539E8C EQ PUSH2 0x5F9 JUMPI DUP1 PUSH4 0x91D14854 EQ PUSH2 0x629 JUMPI DUP1 PUSH4 0x91DDADF4 EQ PUSH2 0x659 JUMPI DUP1 PUSH4 0x95D89B41 EQ PUSH2 0x677 JUMPI PUSH2 0x251 JUMP JUMPDEST DUP1 PUSH4 0x6FCFFF45 EQ PUSH2 0x51F JUMPI DUP1 PUSH4 0x70A08231 EQ PUSH2 0x54F JUMPI DUP1 PUSH4 0x79CC6790 EQ PUSH2 0x57F JUMPI DUP1 PUSH4 0x7ECEBE00 EQ PUSH2 0x59B JUMPI DUP1 PUSH4 0x8456CB59 EQ PUSH2 0x5CB JUMPI PUSH2 0x251 JUMP JUMPDEST DUP1 PUSH4 0x3A46B1A8 GT PUSH2 0x1D2 JUMPI DUP1 PUSH4 0x587CDE1E GT PUSH2 0x196 JUMPI DUP1 PUSH4 0x587CDE1E EQ PUSH2 0x455 JUMPI DUP1 PUSH4 0x5C19A95C EQ PUSH2 0x485 JUMPI DUP1 PUSH4 0x5C975ABB EQ PUSH2 0x4A1 JUMPI DUP1 PUSH4 0x5CFFE9DE EQ PUSH2 0x4BF JUMPI DUP1 PUSH4 0x613255AB EQ PUSH2 0x4EF JUMPI PUSH2 0x251 JUMP JUMPDEST DUP1 PUSH4 0x3A46B1A8 EQ PUSH2 0x3C5 JUMPI DUP1 PUSH4 0x3F4BA83A EQ PUSH2 0x3F5 JUMPI DUP1 PUSH4 0x40C10F19 EQ PUSH2 0x3FF JUMPI DUP1 PUSH4 0x42966C68 EQ PUSH2 0x41B JUMPI DUP1 PUSH4 0x4BF5D7E9 EQ PUSH2 0x437 JUMPI PUSH2 0x251 JUMP JUMPDEST DUP1 PUSH4 0x248A9CA3 GT PUSH2 0x219 JUMPI DUP1 PUSH4 0x248A9CA3 EQ PUSH2 0x321 JUMPI DUP1 PUSH4 0x2F2FF15D EQ PUSH2 0x351 JUMPI DUP1 PUSH4 0x313CE567 EQ PUSH2 0x36D JUMPI DUP1 PUSH4 0x3644E515 EQ PUSH2 0x38B JUMPI DUP1 PUSH4 0x36568ABE EQ PUSH2 0x3A9 JUMPI PUSH2 0x251 JUMP JUMPDEST DUP1 PUSH4 0x1FFC9A7 EQ PUSH2 0x255 JUMPI DUP1 PUSH4 0x6FDDE03 EQ PUSH2 0x285 JUMPI DUP1 PUSH4 0x95EA7B3 EQ PUSH2 0x2A3 JUMPI DUP1 PUSH4 0x18160DDD EQ PUSH2 0x2D3 JUMPI DUP1 PUSH4 0x23B872DD EQ PUSH2 0x2F1 JUMPI JUMPDEST PUSH0 DUP1 REVERT JUMPDEST PUSH2 0x26F PUSH1 0x4 DUP1 CALLDATASIZE SUB DUP2 ADD SWAP1 PUSH2 0x26A SWAP2 SWAP1 PUSH2 0x3845 JUMP JUMPDEST PUSH2 0x833 JUMP JUMPDEST PUSH1 0x40 MLOAD PUSH2 0x27C SWAP2 SWAP1 PUSH2 0x388A JUMP JUMPDEST PUSH1 0x40 MLOAD DUP1 SWAP2 SUB SWAP1 RETURN JUMPDEST PUSH2 0x28D PUSH2 0x8AC JUMP JUMPDEST PUSH1 0x40 MLOAD PUSH2 0x29A SWAP2 SWAP1 PUSH2 0x3913 JUMP JUMPDEST PUSH1 0x40 MLOAD DUP1 SWAP2 SUB SWAP1 RETURN JUMPDEST PUSH2 0x2BD PUSH1 0x4 DUP1 CALLDATASIZE SUB DUP2 ADD SWAP1 PUSH2 0x2B8 SWAP2 SWAP1 PUSH2 0x39C0 JUMP JUMPDEST PUSH2 0x93C JUMP JUMPDEST PUSH1 0x40 MLOAD PUSH2 0x2CA SWAP2 SWAP1 PUSH2 0x388A JUMP JUMPDEST PUSH1 0x40 MLOAD DUP1 SWAP2 SUB SWAP1 RETURN JUMPDEST PUSH2 0x2DB PUSH2 0x95E JUMP JUMPDEST PUSH1 0x40 MLOAD PUSH2 0x2E8 SWAP2 SWAP1 PUSH2 0x3A0D JUMP JUMPDEST PUSH1 0x40 MLOAD DUP1 SWAP2 SUB SWAP1 RETURN JUMPDEST PUSH2 0x30B PUSH1 0x4 DUP1 CALLDATASIZE SUB DUP2 ADD SWAP1 PUSH2 0x306 SWAP2 SWAP1 PUSH2 0x3A26 JUMP JUMPDEST PUSH2 0x967 JUMP JUMPDEST PUSH1 0x40 MLOAD PUSH2 0x318 SWAP2 SWAP1 PUSH2 0x388A JUMP JUMPDEST PUSH1 0x40 MLOAD DUP1 SWAP2 SUB SWAP1 RETURN JUMPDEST PUSH2 0x33B PUSH1 0x4 DUP1 CALLDATASIZE SUB DUP2 ADD SWAP1 PUSH2 0x336 SWAP2 SWAP1 PUSH2 0x3AA9 JUMP JUMPDEST PUSH2 0x995 JUMP JUMPDEST PUSH1 0x40 MLOAD PUSH2 0x348 SWAP2 SWAP1 PUSH2 0x3AE3 JUMP JUMPDEST PUSH1 0x40 MLOAD DUP1 SWAP2 SUB SWAP1 RETURN JUMPDEST PUSH2 0x36B PUSH1 0x4 DUP1 CALLDATASIZE SUB DUP2 ADD SWAP1 PUSH2 0x366 SWAP2 SWAP1 PUSH2 0x3AFC JUMP JUMPDEST PUSH2 0x9B2 JUMP JUMPDEST STOP JUMPDEST PUSH2 0x375 PUSH2 0x9D4 JUMP JUMPDEST PUSH1 0x40 MLOAD PUSH2 0x382 SWAP2 SWAP1 PUSH2 0x3B55 JUMP JUMPDEST PUSH1 0x40 MLOAD DUP1 SWAP2 SUB SWAP1 RETURN JUMPDEST PUSH2 0x393 PUSH2 0x9DC JUMP JUMPDEST PUSH1 0x40 MLOAD PUSH2 0x3A0 SWAP2 SWAP1 PUSH2 0x3AE3 JUMP JUMPDEST PUSH1 0x40 MLOAD DUP1 SWAP2 SUB SWAP1 RETURN JUMPDEST PUSH2 0x3C3 PUSH1 0x4 DUP1 CALLDATASIZE SUB DUP2 ADD SWAP1 PUSH2 0x3BE SWAP2 SWAP1 PUSH2 0x3AFC JUMP JUMPDEST PUSH2 0x9EA JUMP JUMPDEST STOP JUMPDEST PUSH2 0x3DF PUSH1 0x4 DUP1 CALLDATASIZE SUB DUP2 ADD SWAP1 PUSH2 0x3DA SWAP2 SWAP1 PUSH2 0x39C0 JUMP JUMPDEST PUSH2 0xA65 JUMP JUMPDEST PUSH1 0x40 MLOAD PUSH2 0x3EC SWAP2 SWAP1 PUSH2 0x3A0D JUMP JUMPDEST PUSH1 0x40 MLOAD DUP1 SWAP2 SUB SWAP1 RETURN JUMPDEST PUSH2 0x3FD PUSH2 0xB3B JUMP JUMPDEST STOP JUMPDEST PUSH2 0x419 PUSH1 0x4 DUP1 CALLDATASIZE SUB DUP2 ADD SWAP1 PUSH2 0x414 SWAP2 SWAP1 PUSH2 0x39C0 JUMP JUMPDEST PUSH2 0xB70 JUMP JUMPDEST STOP JUMPDEST PUSH2 0x435 PUSH1 0x4 DUP1 CALLDATASIZE SUB DUP2 ADD SWAP1 PUSH2 0x430 SWAP2 SWAP1 PUSH2 0x3B6E JUMP JUMPDEST PUSH2 0xBA9 JUMP JUMPDEST STOP JUMPDEST PUSH2 0x43F PUSH2 0xBBD JUMP JUMPDEST PUSH1 0x40 MLOAD PUSH2 0x44C SWAP2 SWAP1 PUSH2 0x3913 JUMP JUMPDEST PUSH1 0x40 MLOAD DUP1 SWAP2 SUB SWAP1 RETURN JUMPDEST PUSH2 0x46F PUSH1 0x4 DUP1 CALLDATASIZE SUB DUP2 ADD SWAP1 PUSH2 0x46A SWAP2 SWAP1 PUSH2 0x3B99 JUMP JUMPDEST PUSH2 0xC51 JUMP JUMPDEST PUSH1 0x40 MLOAD PUSH2 0x47C SWAP2 SWAP1 PUSH2 0x3BD3 JUMP JUMPDEST PUSH1 0x40 MLOAD DUP1 SWAP2 SUB SWAP1 RETURN JUMPDEST PUSH2 0x49F PUSH1 0x4 DUP1 CALLDATASIZE SUB DUP2 ADD SWAP1 PUSH2 0x49A SWAP2 SWAP1 PUSH2 0x3B99 JUMP JUMPDEST PUSH2 0xCB6 JUMP JUMPDEST STOP JUMPDEST PUSH2 0x4A9 PUSH2 0xCCF JUMP JUMPDEST PUSH1 0x40 MLOAD PUSH2 0x4B6 SWAP2 SWAP1 PUSH2 0x388A JUMP JUMPDEST PUSH1 0x40 MLOAD DUP1 SWAP2 SUB SWAP1 RETURN JUMPDEST PUSH2 0x4D9 PUSH1 0x4 DUP1 CALLDATASIZE SUB DUP2 ADD SWAP1 PUSH2 0x4D4 SWAP2 SWAP1 PUSH2 0x3C88 JUMP JUMPDEST PUSH2 0xCE4 JUMP JUMPDEST PUSH1 0x40 MLOAD PUSH2 0x4E6 SWAP2 SWAP1 PUSH2 0x388A JUMP JUMPDEST PUSH1 0x40 MLOAD DUP1 SWAP2 SUB SWAP1 RETURN JUMPDEST PUSH2 0x509 PUSH1 0x4 DUP1 CALLDATASIZE SUB DUP2 ADD SWAP1 PUSH2 0x504 SWAP2 SWAP1 PUSH2 0x3B99 JUMP JUMPDEST PUSH2 0xED9 JUMP JUMPDEST PUSH1 0x40 MLOAD PUSH2 0x516 SWAP2 SWAP1 PUSH2 0x3A0D JUMP JUMPDEST PUSH1 0x40 MLOAD DUP1 SWAP2 SUB SWAP1 RETURN JUMPDEST PUSH2 0x539 PUSH1 0x4 DUP1 CALLDATASIZE SUB DUP2 ADD SWAP1 PUSH2 0x534 SWAP2 SWAP1 PUSH2 0x3B99 JUMP JUMPDEST PUSH2 0xF4E JUMP JUMPDEST PUSH1 0x40 MLOAD PUSH2 0x546 SWAP2 SWAP1 PUSH2 0x3D2A JUMP JUMPDEST PUSH1 0x40 MLOAD DUP1 SWAP2 SUB SWAP1 RETURN JUMPDEST PUSH2 0x569 PUSH1 0x4 DUP1 CALLDATASIZE SUB DUP2 ADD SWAP1 PUSH2 0x564 SWAP2 SWAP1 PUSH2 0x3B99 JUMP JUMPDEST PUSH2 0xF5F JUMP JUMPDEST PUSH1 0x40 MLOAD PUSH2 0x576 SWAP2 SWAP1 PUSH2 0x3A0D JUMP JUMPDEST PUSH1 0x40 MLOAD DUP1 SWAP2 SUB SWAP1 RETURN JUMPDEST PUSH2 0x599 PUSH1 0x4 DUP1 CALLDATASIZE SUB DUP2 ADD SWAP1 PUSH2 0x594 SWAP2 SWAP1 PUSH2 0x39C0 JUMP JUMPDEST PUSH2 0xFA4 JUMP JUMPDEST STOP JUMPDEST PUSH2 0x5B5 PUSH1 0x4 DUP1 CALLDATASIZE SUB DUP2 ADD SWAP1 PUSH2 0x5B0 SWAP2 SWAP1 PUSH2 0x3B99 JUMP JUMPDEST PUSH2 0xFC4 JUMP JUMPDEST PUSH1 0x40 MLOAD PUSH2 0x5C2 SWAP2 SWAP1 PUSH2 0x3A0D JUMP JUMPDEST PUSH1 0x40 MLOAD DUP1 SWAP2 SUB SWAP1 RETURN JUMPDEST PUSH2 0x5D3 PUSH2 0xFD5 JUMP JUMPDEST STOP JUMPDEST PUSH2 0x5DD PUSH2 0x100A JUMP JUMPDEST PUSH1 0x40 MLOAD PUSH2 0x5F0 SWAP8 SWAP7 SWAP6 SWAP5 SWAP4 SWAP3 SWAP2 SWAP1 PUSH2 0x3E34 JUMP JUMPDEST PUSH1 0x40 MLOAD DUP1 SWAP2 SUB SWAP1 RETURN JUMPDEST PUSH2 0x613 PUSH1 0x4 DUP1 CALLDATASIZE SUB DUP2 ADD SWAP1 PUSH2 0x60E SWAP2 SWAP1 PUSH2 0x3B6E JUMP JUMPDEST PUSH2 0x10AF JUMP JUMPDEST PUSH1 0x40 MLOAD PUSH2 0x620 SWAP2 SWAP1 PUSH2 0x3A0D JUMP JUMPDEST PUSH1 0x40 MLOAD DUP1 SWAP2 SUB SWAP1 RETURN JUMPDEST PUSH2 0x643 PUSH1 0x4 DUP1 CALLDATASIZE SUB DUP2 ADD SWAP1 PUSH2 0x63E SWAP2 SWAP1 PUSH2 0x3AFC JUMP JUMPDEST PUSH2 0x1149 JUMP JUMPDEST PUSH1 0x40 MLOAD PUSH2 0x650 SWAP2 SWAP1 PUSH2 0x388A JUMP JUMPDEST PUSH1 0x40 MLOAD DUP1 SWAP2 SUB SWAP1 RETURN JUMPDEST PUSH2 0x661 PUSH2 0x11AD JUMP JUMPDEST PUSH1 0x40 MLOAD PUSH2 0x66E SWAP2 SWAP1 PUSH2 0x3ED6 JUMP JUMPDEST PUSH1 0x40 MLOAD DUP1 SWAP2 SUB SWAP1 RETURN JUMPDEST PUSH2 0x67F PUSH2 0x11BB JUMP JUMPDEST PUSH1 0x40 MLOAD PUSH2 0x68C SWAP2 SWAP1 PUSH2 0x3913 JUMP JUMPDEST PUSH1 0x40 MLOAD DUP1 SWAP2 SUB SWAP1 RETURN JUMPDEST PUSH2 0x6AF PUSH1 0x4 DUP1 CALLDATASIZE SUB DUP2 ADD SWAP1 PUSH2 0x6AA SWAP2 SWAP1 PUSH2 0x3B99 JUMP JUMPDEST PUSH2 0x124B JUMP JUMPDEST PUSH1 0x40 MLOAD PUSH2 0x6BC SWAP2 SWAP1 PUSH2 0x3A0D JUMP JUMPDEST PUSH1 0x40 MLOAD DUP1 SWAP2 SUB SWAP1 RETURN JUMPDEST PUSH2 0x6CD PUSH2 0x12B4 JUMP JUMPDEST PUSH1 0x40 MLOAD PUSH2 0x6DA SWAP2 SWAP1 PUSH2 0x3AE3 JUMP JUMPDEST PUSH1 0x40 MLOAD DUP1 SWAP2 SUB SWAP1 RETURN JUMPDEST PUSH2 0x6FD PUSH1 0x4 DUP1 CALLDATASIZE SUB DUP2 ADD SWAP1 PUSH2 0x6F8 SWAP2 SWAP1 PUSH2 0x39C0 JUMP JUMPDEST PUSH2 0x12BA JUMP JUMPDEST PUSH1 0x40 MLOAD PUSH2 0x70A SWAP2 SWAP1 PUSH2 0x388A JUMP JUMPDEST PUSH1 0x40 MLOAD DUP1 SWAP2 SUB SWAP1 RETURN JUMPDEST PUSH2 0x72D PUSH1 0x4 DUP1 CALLDATASIZE SUB DUP2 ADD SWAP1 PUSH2 0x728 SWAP2 SWAP1 PUSH2 0x3F19 JUMP JUMPDEST PUSH2 0x12DC JUMP JUMPDEST STOP JUMPDEST PUSH2 0x749 PUSH1 0x4 DUP1 CALLDATASIZE SUB DUP2 ADD SWAP1 PUSH2 0x744 SWAP2 SWAP1 PUSH2 0x3FA2 JUMP JUMPDEST PUSH2 0x13A1 JUMP JUMPDEST STOP JUMPDEST PUSH2 0x753 PUSH2 0x14E6 JUMP JUMPDEST PUSH1 0x40 MLOAD PUSH2 0x760 SWAP2 SWAP1 PUSH2 0x3AE3 JUMP JUMPDEST PUSH1 0x40 MLOAD DUP1 SWAP2 SUB SWAP1 RETURN JUMPDEST PUSH2 0x783 PUSH1 0x4 DUP1 CALLDATASIZE SUB DUP2 ADD SWAP1 PUSH2 0x77E SWAP2 SWAP1 PUSH2 0x3AFC JUMP JUMPDEST PUSH2 0x150A JUMP JUMPDEST STOP JUMPDEST PUSH2 0x79F PUSH1 0x4 DUP1 CALLDATASIZE SUB DUP2 ADD SWAP1 PUSH2 0x79A SWAP2 SWAP1 PUSH2 0x39C0 JUMP JUMPDEST PUSH2 0x152C JUMP JUMPDEST PUSH1 0x40 MLOAD PUSH2 0x7AC SWAP2 SWAP1 PUSH2 0x3A0D JUMP JUMPDEST PUSH1 0x40 MLOAD DUP1 SWAP2 SUB SWAP1 RETURN JUMPDEST PUSH2 0x7CF PUSH1 0x4 DUP1 CALLDATASIZE SUB DUP2 ADD SWAP1 PUSH2 0x7CA SWAP2 SWAP1 PUSH2 0x403F JUMP JUMPDEST PUSH2 0x15AF JUMP JUMPDEST PUSH1 0x40 MLOAD PUSH2 0x7DC SWAP2 SWAP1 PUSH2 0x3A0D JUMP JUMPDEST PUSH1 0x40 MLOAD DUP1 SWAP2 SUB SWAP1 RETURN JUMPDEST PUSH2 0x7ED PUSH2 0x1631 JUMP JUMPDEST PUSH1 0x40 MLOAD PUSH2 0x7FA SWAP2 SWAP1 PUSH2 0x3AE3 JUMP JUMPDEST PUSH1 0x40 MLOAD DUP1 SWAP2 SUB SWAP1 RETURN JUMPDEST PUSH2 0x81D PUSH1 0x4 DUP1 CALLDATASIZE SUB DUP2 ADD SWAP1 PUSH2 0x818 SWAP2 SWAP1 PUSH2 0x40A7 JUMP JUMPDEST PUSH2 0x1655 JUMP JUMPDEST PUSH1 0x40 MLOAD PUSH2 0x82A SWAP2 SWAP1 PUSH2 0x4155 JUMP JUMPDEST PUSH1 0x40 MLOAD DUP1 SWAP2 SUB SWAP1 RETURN JUMPDEST PUSH0 PUSH32 0x7965DB0B00000000000000000000000000000000000000000000000000000000 PUSH28 0xFFFFFFFFFFFFFFFFFFFFFFFFFFFFFFFFFFFFFFFFFFFFFFFFFFFFFFFF NOT AND DUP3 PUSH28 0xFFFFFFFFFFFFFFFFFFFFFFFFFFFFFFFFFFFFFFFFFFFFFFFFFFFFFFFF NOT AND EQ DUP1 PUSH2 0x8A5 JUMPI POP PUSH2 0x8A4 DUP3 PUSH2 0x1699 JUMP JUMPDEST JUMPDEST SWAP1 POP SWAP2 SWAP1 POP JUMP JUMPDEST PUSH1 0x60 PUSH1 0x3 DUP1 SLOAD PUSH2 0x8BB SWAP1 PUSH2 0x419B JUMP JUMPDEST DUP1 PUSH1 0x1F ADD PUSH1 0x20 DUP1 SWAP2 DIV MUL PUSH1 0x20 ADD PUSH1 0x40 MLOAD SWAP1 DUP2 ADD PUSH1 0x40 MSTORE DUP1 SWAP3 SWAP2 SWAP1 DUP2 DUP2 MSTORE PUSH1 0x20 ADD DUP3 DUP1 SLOAD PUSH2 0x8E7 SWAP1 PUSH2 0x419B JUMP JUMPDEST DUP1 ISZERO PUSH2 0x932 JUMPI DUP1 PUSH1 0x1F LT PUSH2 0x909 JUMPI PUSH2 0x100 DUP1 DUP4 SLOAD DIV MUL DUP4 MSTORE SWAP2 PUSH1 0x20 ADD SWAP2 PUSH2 0x932 JUMP JUMPDEST DUP3 ADD SWAP2 SWAP1 PUSH0 MSTORE PUSH1 0x20 PUSH0 KECCAK256 SWAP1 JUMPDEST DUP2 SLOAD DUP2 MSTORE SWAP1 PUSH1 0x1 ADD SWAP1 PUSH1 0x20 ADD DUP1 DUP4 GT PUSH2 0x915 JUMPI DUP3 SWAP1 SUB PUSH1 0x1F AND DUP3 ADD SWAP2 JUMPDEST POP POP POP POP POP SWAP1 POP SWAP1 JUMP JUMPDEST PUSH0 DUP1 PUSH2 0x946 PUSH2 0x1702 JUMP JUMPDEST SWAP1 POP PUSH2 0x953 DUP2 DUP6 DUP6 PUSH2 0x1709 JUMP JUMPDEST PUSH1 0x1 SWAP2 POP POP SWAP3 SWAP2 POP POP JUMP JUMPDEST PUSH0 PUSH1 0x2 SLOAD SWAP1 POP SWAP1 JUMP JUMPDEST PUSH0 DUP1 PUSH2 0x971 PUSH2 0x1702 JUMP JUMPDEST SWAP1 POP PUSH2 0x97E DUP6 DUP3 DUP6 PUSH2 0x171B JUMP JUMPDEST PUSH2 0x989 DUP6 DUP6 DUP6 PUSH2 0x17AD JUMP JUMPDEST PUSH1 0x1 SWAP2 POP POP SWAP4 SWAP3 POP POP POP JUMP JUMPDEST PUSH0 PUSH1 0x6 PUSH0 DUP4 DUP2 MSTORE PUSH1 0x20 ADD SWAP1 DUP2 MSTORE PUSH1 0x20 ADD PUSH0 KECCAK256 PUSH1 0x1 ADD SLOAD SWAP1 POP SWAP2 SWAP1 POP JUMP JUMPDEST PUSH2 0x9BB DUP3 PUSH2 0x995 JUMP JUMPDEST PUSH2 0x9C4 DUP2 PUSH2 0x189D JUMP JUMPDEST PUSH2 0x9CE DUP4 DUP4 PUSH2 0x18B1 JUMP JUMPDEST POP POP POP POP JUMP JUMPDEST PUSH0 PUSH1 0x12 SWAP1 POP SWAP1 JUMP JUMPDEST PUSH0 PUSH2 0x9E5 PUSH2 0x199B JUMP JUMPDEST SWAP1 POP SWAP1 JUMP JUMPDEST PUSH2 0x9F2 PUSH2 0x1702 JUMP JUMPDEST PUSH20 0xFFFFFFFFFFFFFFFFFFFFFFFFFFFFFFFFFFFFFFFF AND DUP2 PUSH20 0xFFFFFFFFFFFFFFFFFFFFFFFFFFFFFFFFFFFFFFFF AND EQ PUSH2 0xA56 JUMPI PUSH1 0x40 MLOAD PUSH32 0x6697B23200000000000000000000000000000000000000000000000000000000 DUP2 MSTORE PUSH1 0x4 ADD PUSH1 0x40 MLOAD DUP1 SWAP2 SUB SWAP1 REVERT JUMPDEST PUSH2 0xA60 DUP3 DUP3 PUSH2 0x1A51 JUMP JUMPDEST POP POP POP JUMP JUMPDEST PUSH0 DUP1 PUSH2 0xA6F PUSH2 0x11AD JUMP JUMPDEST SWAP1 POP DUP1 PUSH6 0xFFFFFFFFFFFF AND DUP4 LT PUSH2 0xABF JUMPI DUP3 DUP2 PUSH1 0x40 MLOAD PUSH32 0xECD3F81E00000000000000000000000000000000000000000000000000000000 DUP2 MSTORE PUSH1 0x4 ADD PUSH2 0xAB6 SWAP3 SWAP2 SWAP1 PUSH2 0x41CB JUMP JUMPDEST PUSH1 0x40 MLOAD DUP1 SWAP2 SUB SWAP1 REVERT JUMPDEST PUSH2 0xB16 PUSH2 0xACB DUP5 PUSH2 0x1B3B JUMP JUMPDEST PUSH1 0xB PUSH0 DUP8 PUSH20 0xFFFFFFFFFFFFFFFFFFFFFFFFFFFFFFFFFFFFFFFF AND PUSH20 0xFFFFFFFFFFFFFFFFFFFFFFFFFFFFFFFFFFFFFFFF AND DUP2 MSTORE PUSH1 0x20 ADD SWAP1 DUP2 MSTORE PUSH1 0x20 ADD PUSH0 KECCAK256 PUSH2 0x1B94 SWAP1 SWAP2 SWAP1 PUSH4 0xFFFFFFFF AND JUMP JUMPDEST PUSH26 0xFFFFFFFFFFFFFFFFFFFFFFFFFFFFFFFFFFFFFFFFFFFFFFFFFFFF AND SWAP2 POP POP SWAP3 SWAP2 POP POP JUMP JUMPDEST PUSH32 0x65D7A28E3265B37A6474929F336521B332C1681B933F6CB9F3376673440D862A PUSH2 0xB65 DUP2 PUSH2 0x189D JUMP JUMPDEST PUSH2 0xB6D PUSH2 0x1C81 JUMP JUMPDEST POP JUMP JUMPDEST PUSH32 0x9F2DF0FED2C77648DE5860A4CC508CD0818C85B8B8A1AB4CEEEF8D981C8956A6 PUSH2 0xB9A DUP2 PUSH2 0x189D JUMP JUMPDEST PUSH2 0xBA4 DUP4 DUP4 PUSH2 0x1CE2 JUMP JUMPDEST POP POP POP JUMP JUMPDEST PUSH2 0xBBA PUSH2 0xBB4 PUSH2 0x1702 JUMP JUMPDEST DUP3 PUSH2 0x1D61 JUMP JUMPDEST POP JUMP JUMPDEST PUSH1 0x60 PUSH2 0xBC7 PUSH2 0x1DE0 JUMP JUMPDEST PUSH6 0xFFFFFFFFFFFF AND PUSH2 0xBD7 PUSH2 0x11AD JUMP JUMPDEST PUSH6 0xFFFFFFFFFFFF AND EQ PUSH2 0xC16 JUMPI PUSH1 0x40 MLOAD PUSH32 0x6FF0714000000000000000000000000000000000000000000000000000000000 DUP2 MSTORE PUSH1 0x4 ADD PUSH1 0x40 MLOAD DUP1 SWAP2 SUB SWAP1 REVERT JUMPDEST PUSH1 0x40 MLOAD DUP1 PUSH1 0x40 ADD PUSH1 0x40 MSTORE DUP1 PUSH1 0x1D DUP2 MSTORE PUSH1 0x20 ADD PUSH32 0x6D6F64653D626C6F636B6E756D6265722666726F6D3D64656661756C74000000 DUP2 MSTORE POP SWAP1 POP SWAP1 JUMP JUMPDEST PUSH0 PUSH1 0xA PUSH0 DUP4 PUSH20 0xFFFFFFFFFFFFFFFFFFFFFFFFFFFFFFFFFFFFFFFF AND PUSH20 0xFFFFFFFFFFFFFFFFFFFFFFFFFFFFFFFFFFFFFFFF AND DUP2 MSTORE PUSH1 0x20 ADD SWAP1 DUP2 MSTORE PUSH1 0x20 ADD PUSH0 KECCAK256 PUSH0 SWAP1 SLOAD SWAP1 PUSH2 0x100 EXP SWAP1 DIV PUSH20 0xFFFFFFFFFFFFFFFFFFFFFFFFFFFFFFFFFFFFFFFF AND SWAP1 POP SWAP2 SWAP1 POP JUMP JUMPDEST PUSH0 PUSH2 0xCBF PUSH2 0x1702 JUMP JUMPDEST SWAP1 POP PUSH2 0xCCB DUP2 DUP4 PUSH2 0x1DEF JUMP JUMPDEST POP POP JUMP JUMPDEST PUSH0 PUSH1 0x5 PUSH0 SWAP1 SLOAD SWAP1 PUSH2 0x100 EXP SWAP1 DIV PUSH1 0xFF AND SWAP1 POP SWAP1 JUMP JUMPDEST PUSH0 DUP1 PUSH2 0xCEF DUP7 PUSH2 0xED9 JUMP JUMPDEST SWAP1 POP DUP1 DUP6 GT ISZERO PUSH2 0xD36 JUMPI DUP1 PUSH1 0x40 MLOAD PUSH32 0xFD9A760900000000000000000000000000000000000000000000000000000000 DUP2 MSTORE PUSH1 0x4 ADD PUSH2 0xD2D SWAP2 SWAP1 PUSH2 0x3A0D JUMP JUMPDEST PUSH1 0x40 MLOAD DUP1 SWAP2 SUB SWAP1 REVERT JUMPDEST PUSH0 PUSH2 0xD41 DUP8 DUP8 PUSH2 0x152C JUMP JUMPDEST SWAP1 POP PUSH2 0xD4D DUP9 DUP8 PUSH2 0x1CE2 JUMP JUMPDEST PUSH32 0x439148F0BBC682CA079E46D6E2C2F0C1E3B820F1A291B069D8882ABF8CF18DD9 DUP9 PUSH20 0xFFFFFFFFFFFFFFFFFFFFFFFFFFFFFFFFFFFFFFFF AND PUSH4 0x23E30C8B PUSH2 0xD92 PUSH2 0x1702 JUMP JUMPDEST DUP11 DUP11 DUP7 DUP12 DUP12 PUSH1 0x40 MLOAD DUP8 PUSH4 0xFFFFFFFF AND PUSH1 0xE0 SHL DUP2 MSTORE PUSH1 0x4 ADD PUSH2 0xDB8 SWAP7 SWAP6 SWAP5 SWAP4 SWAP3 SWAP2 SWAP1 PUSH2 0x423C JUMP JUMPDEST PUSH1 0x20 PUSH1 0x40 MLOAD DUP1 DUP4 SUB DUP2 PUSH0 DUP8 GAS CALL ISZERO DUP1 ISZERO PUSH2 0xDD4 JUMPI RETURNDATASIZE PUSH0 DUP1 RETURNDATACOPY RETURNDATASIZE PUSH0 REVERT JUMPDEST POP POP POP POP PUSH1 0x40 MLOAD RETURNDATASIZE PUSH1 0x1F NOT PUSH1 0x1F DUP3 ADD AND DUP3 ADD DUP1 PUSH1 0x40 MSTORE POP DUP2 ADD SWAP1 PUSH2 0xDF8 SWAP2 SWAP1 PUSH2 0x42AA JUMP JUMPDEST EQ PUSH2 0xE3A JUMPI DUP8 PUSH1 0x40 MLOAD PUSH32 0x678C5B0000000000000000000000000000000000000000000000000000000000 DUP2 MSTORE PUSH1 0x4 ADD PUSH2 0xE31 SWAP2 SWAP1 PUSH2 0x3BD3 JUMP JUMPDEST PUSH1 0x40 MLOAD DUP1 SWAP2 SUB SWAP1 REVERT JUMPDEST PUSH0 PUSH2 0xE43 PUSH2 0x1EFF JUMP JUMPDEST SWAP1 POP PUSH2 0xE5B DUP10 ADDRESS DUP5 DUP11 PUSH2 0xE56 SWAP2 SWAP1 PUSH2 0x4302 JUMP JUMPDEST PUSH2 0x171B JUMP JUMPDEST PUSH0 DUP3 EQ DUP1 PUSH2 0xE94 JUMPI POP PUSH0 PUSH20 0xFFFFFFFFFFFFFFFFFFFFFFFFFFFFFFFFFFFFFFFF AND DUP2 PUSH20 0xFFFFFFFFFFFFFFFFFFFFFFFFFFFFFFFFFFFFFFFF AND EQ JUMPDEST ISZERO PUSH2 0xEB3 JUMPI PUSH2 0xEAE DUP10 DUP4 DUP10 PUSH2 0xEA9 SWAP2 SWAP1 PUSH2 0x4302 JUMP JUMPDEST PUSH2 0x1D61 JUMP JUMPDEST PUSH2 0xEC9 JUMP JUMPDEST PUSH2 0xEBD DUP10 DUP9 PUSH2 0x1D61 JUMP JUMPDEST PUSH2 0xEC8 DUP10 DUP3 DUP5 PUSH2 0x17AD JUMP JUMPDEST JUMPDEST PUSH1 0x1 SWAP4 POP POP POP POP SWAP6 SWAP5 POP POP POP POP POP JUMP JUMPDEST PUSH0 ADDRESS PUSH20 0xFFFFFFFFFFFFFFFFFFFFFFFFFFFFFFFFFFFFFFFF AND DUP3 PUSH20 0xFFFFFFFFFFFFFFFFFFFFFFFFFFFFFFFFFFFFFFFF AND EQ PUSH2 0xF13 JUMPI PUSH0 PUSH2 0xF47 JUMP JUMPDEST PUSH2 0xF1B PUSH2 0x95E JUMP JUMPDEST PUSH32 0xFFFFFFFFFFFFFFFFFFFFFFFFFFFFFFFFFFFFFFFFFFFFFFFFFFFFFFFFFFFFFFFF PUSH2 0xF46 SWAP2 SWAP1 PUSH2 0x4335 JUMP JUMPDEST JUMPDEST SWAP1 POP SWAP2 SWAP1 POP JUMP JUMPDEST PUSH0 PUSH2 0xF58 DUP3 PUSH2 0x1F03 JUMP JUMPDEST SWAP1 POP SWAP2 SWAP1 POP JUMP JUMPDEST PUSH0 DUP1 PUSH0 DUP4 PUSH20 0xFFFFFFFFFFFFFFFFFFFFFFFFFFFFFFFFFFFFFFFF AND PUSH20 0xFFFFFFFFFFFFFFFFFFFFFFFFFFFFFFFFFFFFFFFF AND DUP2 MSTORE PUSH1 0x20 ADD SWAP1 DUP2 MSTORE PUSH1 0x20 ADD PUSH0 KECCAK256 SLOAD SWAP1 POP SWAP2 SWAP1 POP JUMP JUMPDEST PUSH2 0xFB6 DUP3 PUSH2 0xFB0 PUSH2 0x1702 JUMP JUMPDEST DUP4 PUSH2 0x171B JUMP JUMPDEST PUSH2 0xFC0 DUP3 DUP3 PUSH2 0x1D61 JUMP JUMPDEST POP POP JUMP JUMPDEST PUSH0 PUSH2 0xFCE DUP3 PUSH2 0x1F58 JUMP JUMPDEST SWAP1 POP SWAP2 SWAP1 POP JUMP JUMPDEST PUSH32 0x65D7A28E3265B37A6474929F336521B332C1681B933F6CB9F3376673440D862A PUSH2 0xFFF DUP2 PUSH2 0x189D JUMP JUMPDEST PUSH2 0x1007 PUSH2 0x1F69 JUMP JUMPDEST POP JUMP JUMPDEST PUSH0 PUSH1 0x60 DUP1 PUSH0 DUP1 PUSH0 PUSH1 0x60 PUSH2 0x101B PUSH2 0x1FCB JUMP JUMPDEST PUSH2 0x1023 PUSH2 0x2006 JUMP JUMPDEST CHAINID ADDRESS PUSH0 DUP1 SHL PUSH0 PUSH8 0xFFFFFFFFFFFFFFFF DUP2 GT ISZERO PUSH2 0x1042 JUMPI PUSH2 0x1041 PUSH2 0x4368 JUMP JUMPDEST JUMPDEST PUSH1 0x40 MLOAD SWAP1 DUP1 DUP3 MSTORE DUP1 PUSH1 0x20 MUL PUSH1 0x20 ADD DUP3 ADD PUSH1 0x40 MSTORE DUP1 ISZERO PUSH2 0x1070 JUMPI DUP2 PUSH1 0x20 ADD PUSH1 0x20 DUP3 MUL DUP1 CALLDATASIZE DUP4 CALLDATACOPY DUP1 DUP3 ADD SWAP2 POP POP SWAP1 POP JUMPDEST POP PUSH32 0xF00000000000000000000000000000000000000000000000000000000000000 SWAP6 SWAP5 SWAP4 SWAP3 SWAP2 SWAP1 SWAP7 POP SWAP7 POP SWAP7 POP SWAP7 POP SWAP7 POP SWAP7 POP SWAP7 POP SWAP1 SWAP2 SWAP3 SWAP4 SWAP5 SWAP6 SWAP7 JUMP JUMPDEST PUSH0 DUP1 PUSH2 0x10B9 PUSH2 0x11AD JUMP JUMPDEST SWAP1 POP DUP1 PUSH6 0xFFFFFFFFFFFF AND DUP4 LT PUSH2 0x1109 JUMPI DUP3 DUP2 PUSH1 0x40 MLOAD PUSH32 0xECD3F81E00000000000000000000000000000000000000000000000000000000 DUP2 MSTORE PUSH1 0x4 ADD PUSH2 0x1100 SWAP3 SWAP2 SWAP1 PUSH2 0x41CB JUMP JUMPDEST PUSH1 0x40 MLOAD DUP1 SWAP2 SUB SWAP1 REVERT JUMPDEST PUSH2 0x1125 PUSH2 0x1115 DUP5 PUSH2 0x1B3B JUMP JUMPDEST PUSH1 0xC PUSH2 0x1B94 SWAP1 SWAP2 SWAP1 PUSH4 0xFFFFFFFF AND JUMP JUMPDEST PUSH26 0xFFFFFFFFFFFFFFFFFFFFFFFFFFFFFFFFFFFFFFFFFFFFFFFFFFFF AND SWAP2 POP POP SWAP2 SWAP1 POP JUMP JUMPDEST PUSH0 PUSH1 0x6 PUSH0 DUP5 DUP2 MSTORE PUSH1 0x20 ADD SWAP1 DUP2 MSTORE PUSH1 0x20 ADD PUSH0 KECCAK256 PUSH0 ADD PUSH0 DUP4 PUSH20 0xFFFFFFFFFFFFFFFFFFFFFFFFFFFFFFFFFFFFFFFF AND PUSH20 0xFFFFFFFFFFFFFFFFFFFFFFFFFFFFFFFFFFFFFFFF AND DUP2 MSTORE PUSH1 0x20 ADD SWAP1 DUP2 MSTORE PUSH1 0x20 ADD PUSH0 KECCAK256 PUSH0 SWAP1 SLOAD SWAP1 PUSH2 0x100 EXP SWAP1 DIV PUSH1 0xFF AND SWAP1 POP SWAP3 SWAP2 POP POP JUMP JUMPDEST PUSH0 PUSH2 0x11B6 PUSH2 0x1DE0 JUMP JUMPDEST SWAP1 POP SWAP1 JUMP JUMPDEST PUSH1 0x60 PUSH1 0x4 DUP1 SLOAD PUSH2 0x11CA SWAP1 PUSH2 0x419B JUMP JUMPDEST DUP1 PUSH1 0x1F ADD PUSH1 0x20 DUP1 SWAP2 DIV MUL PUSH1 0x20 ADD PUSH1 0x40 MLOAD SWAP1 DUP2 ADD PUSH1 0x40 MSTORE DUP1 SWAP3 SWAP2 SWAP1 DUP2 DUP2 MSTORE PUSH1 0x20 ADD DUP3 DUP1 SLOAD PUSH2 0x11F6 SWAP1 PUSH2 0x419B JUMP JUMPDEST DUP1 ISZERO PUSH2 0x1241 JUMPI DUP1 PUSH1 0x1F LT PUSH2 0x1218 JUMPI PUSH2 0x100 DUP1 DUP4 SLOAD DIV MUL DUP4 MSTORE SWAP2 PUSH1 0x20 ADD SWAP2 PUSH2 0x1241 JUMP JUMPDEST DUP3 ADD SWAP2 SWAP1 PUSH0 MSTORE PUSH1 0x20 PUSH0 KECCAK256 SWAP1 JUMPDEST DUP2 SLOAD DUP2 MSTORE SWAP1 PUSH1 0x1 ADD SWAP1 PUSH1 0x20 ADD DUP1 DUP4 GT PUSH2 0x1224 JUMPI DUP3 SWAP1 SUB PUSH1 0x1F AND DUP3 ADD SWAP2 JUMPDEST POP POP POP POP POP SWAP1 POP SWAP1 JUMP JUMPDEST PUSH0 PUSH2 0x1291 PUSH1 0xB PUSH0 DUP5 PUSH20 0xFFFFFFFFFFFFFFFFFFFFFFFFFFFFFFFFFFFFFFFF AND PUSH20 0xFFFFFFFFFFFFFFFFFFFFFFFFFFFFFFFFFFFFFFFF AND DUP2 MSTORE PUSH1 0x20 ADD SWAP1 DUP2 MSTORE PUSH1 0x20 ADD PUSH0 KECCAK256 PUSH2 0x2041 JUMP JUMPDEST PUSH26 0xFFFFFFFFFFFFFFFFFFFFFFFFFFFFFFFFFFFFFFFFFFFFFFFFFFFF AND SWAP1 POP SWAP2 SWAP1 POP JUMP JUMPDEST PUSH0 DUP1 SHL DUP2 JUMP JUMPDEST PUSH0 DUP1 PUSH2 0x12C4 PUSH2 0x1702 JUMP JUMPDEST SWAP1 POP PUSH2 0x12D1 DUP2 DUP6 DUP6 PUSH2 0x17AD JUMP JUMPDEST PUSH1 0x1 SWAP2 POP POP SWAP3 SWAP2 POP POP JUMP JUMPDEST DUP4 TIMESTAMP GT ISZERO PUSH2 0x1321 JUMPI DUP4 PUSH1 0x40 MLOAD PUSH32 0x4683AF0E00000000000000000000000000000000000000000000000000000000 DUP2 MSTORE PUSH1 0x4 ADD PUSH2 0x1318 SWAP2 SWAP1 PUSH2 0x3A0D JUMP JUMPDEST PUSH1 0x40 MLOAD DUP1 SWAP2 SUB SWAP1 REVERT JUMPDEST PUSH0 PUSH2 0x1382 PUSH2 0x137A PUSH32 0xE48329057BFD03D55E49B547132E39CFFD9C1820AD7B9D4C5307691425D15ADF DUP10 DUP10 DUP10 PUSH1 0x40 MLOAD PUSH1 0x20 ADD PUSH2 0x135F SWAP5 SWAP4 SWAP3 SWAP2 SWAP1 PUSH2 0x4395 JUMP JUMPDEST PUSH1 0x40 MLOAD PUSH1 0x20 DUP2 DUP4 SUB SUB DUP2 MSTORE SWAP1 PUSH1 0x40 MSTORE DUP1 MLOAD SWAP1 PUSH1 0x20 ADD KECCAK256 PUSH2 0x20A3 JUMP JUMPDEST DUP6 DUP6 DUP6 PUSH2 0x20BC JUMP JUMPDEST SWAP1 POP PUSH2 0x138E DUP2 DUP8 PUSH2 0x20EA JUMP JUMPDEST PUSH2 0x1398 DUP2 DUP9 PUSH2 0x1DEF JUMP JUMPDEST POP POP POP POP POP POP POP JUMP JUMPDEST DUP4 TIMESTAMP GT ISZERO PUSH2 0x13E6 JUMPI DUP4 PUSH1 0x40 MLOAD PUSH32 0x6279130200000000000000000000000000000000000000000000000000000000 DUP2 MSTORE PUSH1 0x4 ADD PUSH2 0x13DD SWAP2 SWAP1 PUSH2 0x3A0D JUMP JUMPDEST PUSH1 0x40 MLOAD DUP1 SWAP2 SUB SWAP1 REVERT JUMPDEST PUSH0 PUSH32 0x6E71EDAE12B1B97F4D1F60370FEF10105FA2FAAE0126114A169C64845D6126C9 DUP9 DUP9 DUP9 PUSH2 0x1414 DUP13 PUSH2 0x2141 JUMP JUMPDEST DUP10 PUSH1 0x40 MLOAD PUSH1 0x20 ADD PUSH2 0x142A SWAP7 SWAP6 SWAP5 SWAP4 SWAP3 SWAP2 SWAP1 PUSH2 0x43D8 JUMP JUMPDEST PUSH1 0x40 MLOAD PUSH1 0x20 DUP2 DUP4 SUB SUB DUP2 MSTORE SWAP1 PUSH1 0x40 MSTORE DUP1 MLOAD SWAP1 PUSH1 0x20 ADD KECCAK256 SWAP1 POP PUSH0 PUSH2 0x144C DUP3 PUSH2 0x20A3 JUMP JUMPDEST SWAP1 POP PUSH0 PUSH2 0x145B DUP3 DUP8 DUP8 DUP8 PUSH2 0x20BC JUMP JUMPDEST SWAP1 POP DUP10 PUSH20 0xFFFFFFFFFFFFFFFFFFFFFFFFFFFFFFFFFFFFFFFF AND DUP2 PUSH20 0xFFFFFFFFFFFFFFFFFFFFFFFFFFFFFFFFFFFFFFFF AND EQ PUSH2 0x14CF JUMPI DUP1 DUP11 PUSH1 0x40 MLOAD PUSH32 0x4B800E4600000000000000000000000000000000000000000000000000000000 DUP2 MSTORE PUSH1 0x4 ADD PUSH2 0x14C6 SWAP3 SWAP2 SWAP1 PUSH2 0x4437 JUMP JUMPDEST PUSH1 0x40 MLOAD DUP1 SWAP2 SUB SWAP1 REVERT JUMPDEST PUSH2 0x14DA DUP11 DUP11 DUP11 PUSH2 0x1709 JUMP JUMPDEST POP POP POP POP POP POP POP POP POP POP JUMP JUMPDEST PUSH32 0x9F2DF0FED2C77648DE5860A4CC508CD0818C85B8B8A1AB4CEEEF8D981C8956A6 DUP2 JUMP JUMPDEST PUSH2 0x1513 DUP3 PUSH2 0x995 JUMP JUMPDEST PUSH2 0x151C DUP2 PUSH2 0x189D JUMP JUMPDEST PUSH2 0x1526 DUP4 DUP4 PUSH2 0x1A51 JUMP JUMPDEST POP POP POP POP JUMP JUMPDEST PUSH0 ADDRESS PUSH20 0xFFFFFFFFFFFFFFFFFFFFFFFFFFFFFFFFFFFFFFFF AND DUP4 PUSH20 0xFFFFFFFFFFFFFFFFFFFFFFFFFFFFFFFFFFFFFFFF AND EQ PUSH2 0x159D JUMPI DUP3 PUSH1 0x40 MLOAD PUSH32 0xB5A7DB9200000000000000000000000000000000000000000000000000000000 DUP2 MSTORE PUSH1 0x4 ADD PUSH2 0x1594 SWAP2 SWAP1 PUSH2 0x3BD3 JUMP JUMPDEST PUSH1 0x40 MLOAD DUP1 SWAP2 SUB SWAP1 REVERT JUMPDEST PUSH2 0x15A7 DUP4 DUP4 PUSH2 0x2194 JUMP JUMPDEST SWAP1 POP SWAP3 SWAP2 POP POP JUMP JUMPDEST PUSH0 PUSH1 0x1 PUSH0 DUP5 PUSH20 0xFFFFFFFFFFFFFFFFFFFFFFFFFFFFFFFFFFFFFFFF AND PUSH20 0xFFFFFFFFFFFFFFFFFFFFFFFFFFFFFFFFFFFFFFFF AND DUP2 MSTORE PUSH1 0x20 ADD SWAP1 DUP2 MSTORE PUSH1 0x20 ADD PUSH0 KECCAK256 PUSH0 DUP4 PUSH20 0xFFFFFFFFFFFFFFFFFFFFFFFFFFFFFFFFFFFFFFFF AND PUSH20 0xFFFFFFFFFFFFFFFFFFFFFFFFFFFFFFFFFFFFFFFF AND DUP2 MSTORE PUSH1 0x20 ADD SWAP1 DUP2 MSTORE PUSH1 0x20 ADD PUSH0 KECCAK256 SLOAD SWAP1 POP SWAP3 SWAP2 POP POP JUMP JUMPDEST PUSH32 0x65D7A28E3265B37A6474929F336521B332C1681B933F6CB9F3376673440D862A DUP2 JUMP JUMPDEST PUSH2 0x165D PUSH2 0x37AC JUMP JUMPDEST PUSH2 0x1667 DUP4 DUP4 PUSH2 0x219B JUMP JUMPDEST SWAP1 POP SWAP3 SWAP2 POP POP JUMP JUMPDEST PUSH0 DUP2 DUP4 PUSH2 0x167C SWAP2 SWAP1 PUSH2 0x445E JUMP JUMPDEST SWAP1 POP SWAP3 SWAP2 POP POP JUMP JUMPDEST PUSH0 DUP2 DUP4 PUSH2 0x1691 SWAP2 SWAP1 PUSH2 0x44AB JUMP JUMPDEST SWAP1 POP SWAP3 SWAP2 POP POP JUMP JUMPDEST PUSH0 PUSH32 0x1FFC9A700000000000000000000000000000000000000000000000000000000 PUSH28 0xFFFFFFFFFFFFFFFFFFFFFFFFFFFFFFFFFFFFFFFFFFFFFFFFFFFFFFFF NOT AND DUP3 PUSH28 0xFFFFFFFFFFFFFFFFFFFFFFFFFFFFFFFFFFFFFFFFFFFFFFFFFFFFFFFF NOT AND EQ SWAP1 POP SWAP2 SWAP1 POP JUMP JUMPDEST PUSH0 CALLER SWAP1 POP SWAP1 JUMP JUMPDEST PUSH2 0x1716 DUP4 DUP4 DUP4 PUSH1 0x1 PUSH2 0x21FA JUMP JUMPDEST POP POP POP JUMP JUMPDEST PUSH0 PUSH2 0x1726 DUP5 DUP5 PUSH2 0x15AF JUMP JUMPDEST SWAP1 POP PUSH32 0xFFFFFFFFFFFFFFFFFFFFFFFFFFFFFFFFFFFFFFFFFFFFFFFFFFFFFFFFFFFFFFFF DUP2 EQ PUSH2 0x17A7 JUMPI DUP2 DUP2 LT ISZERO PUSH2 0x1798 JUMPI DUP3 DUP2 DUP4 PUSH1 0x40 MLOAD PUSH32 0xFB8F41B200000000000000000000000000000000000000000000000000000000 DUP2 MSTORE PUSH1 0x4 ADD PUSH2 0x178F SWAP4 SWAP3 SWAP2 SWAP1 PUSH2 0x44F8 JUMP JUMPDEST PUSH1 0x40 MLOAD DUP1 SWAP2 SUB SWAP1 REVERT JUMPDEST PUSH2 0x17A6 DUP5 DUP5 DUP5 DUP5 SUB PUSH0 PUSH2 0x21FA JUMP JUMPDEST JUMPDEST POP POP POP POP JUMP JUMPDEST PUSH0 PUSH20 0xFFFFFFFFFFFFFFFFFFFFFFFFFFFFFFFFFFFFFFFF AND DUP4 PUSH20 0xFFFFFFFFFFFFFFFFFFFFFFFFFFFFFFFFFFFFFFFF AND SUB PUSH2 0x181D JUMPI PUSH0 PUSH1 0x40 MLOAD PUSH32 0x96C6FD1E00000000000000000000000000000000000000000000000000000000 DUP2 MSTORE PUSH1 0x4 ADD PUSH2 0x1814 SWAP2 SWAP1 PUSH2 0x3BD3 JUMP JUMPDEST PUSH1 0x40 MLOAD DUP1 SWAP2 SUB SWAP1 REVERT JUMPDEST PUSH0 PUSH20 0xFFFFFFFFFFFFFFFFFFFFFFFFFFFFFFFFFFFFFFFF AND DUP3 PUSH20 0xFFFFFFFFFFFFFFFFFFFFFFFFFFFFFFFFFFFFFFFF AND SUB PUSH2 0x188D JUMPI PUSH0 PUSH1 0x40 MLOAD PUSH32 0xEC442F0500000000000000000000000000000000000000000000000000000000 DUP2 MSTORE PUSH1 0x4 ADD PUSH2 0x1884 SWAP2 SWAP1 PUSH2 0x3BD3 JUMP JUMPDEST PUSH1 0x40 MLOAD DUP1 SWAP2 SUB SWAP1 REVERT JUMPDEST PUSH2 0x1898 DUP4 DUP4 DUP4 PUSH2 0x23C9 JUMP JUMPDEST POP POP POP JUMP JUMPDEST PUSH2 0x18AE DUP2 PUSH2 0x18A9 PUSH2 0x1702 JUMP JUMPDEST PUSH2 0x23D9 JUMP JUMPDEST POP JUMP JUMPDEST PUSH0 PUSH2 0x18BC DUP4 DUP4 PUSH2 0x1149 JUMP JUMPDEST PUSH2 0x1991 JUMPI PUSH1 0x1 PUSH1 0x6 PUSH0 DUP6 DUP2 MSTORE PUSH1 0x20 ADD SWAP1 DUP2 MSTORE PUSH1 0x20 ADD PUSH0 KECCAK256 PUSH0 ADD PUSH0 DUP5 PUSH20 0xFFFFFFFFFFFFFFFFFFFFFFFFFFFFFFFFFFFFFFFF AND PUSH20 0xFFFFFFFFFFFFFFFFFFFFFFFFFFFFFFFFFFFFFFFF AND DUP2 MSTORE PUSH1 0x20 ADD SWAP1 DUP2 MSTORE PUSH1 0x20 ADD PUSH0 KECCAK256 PUSH0 PUSH2 0x100 EXP DUP2 SLOAD DUP2 PUSH1 0xFF MUL NOT AND SWAP1 DUP4 ISZERO ISZERO MUL OR SWAP1 SSTORE POP PUSH2 0x192E PUSH2 0x1702 JUMP JUMPDEST PUSH20 0xFFFFFFFFFFFFFFFFFFFFFFFFFFFFFFFFFFFFFFFF AND DUP3 PUSH20 0xFFFFFFFFFFFFFFFFFFFFFFFFFFFFFFFFFFFFFFFF AND DUP5 PUSH32 0x2F8788117E7EFF1D82E926EC794901D17C78024A50270940304540A733656F0D PUSH1 0x40 MLOAD PUSH1 0x40 MLOAD DUP1 SWAP2 SUB SWAP1 LOG4 PUSH1 0x1 SWAP1 POP PUSH2 0x1995 JUMP JUMPDEST PUSH0 SWAP1 POP JUMPDEST SWAP3 SWAP2 POP POP JUMP JUMPDEST PUSH0 PUSH32 0x0 PUSH20 0xFFFFFFFFFFFFFFFFFFFFFFFFFFFFFFFFFFFFFFFF AND ADDRESS PUSH20 0xFFFFFFFFFFFFFFFFFFFFFFFFFFFFFFFFFFFFFFFF AND EQ DUP1 ISZERO PUSH2 0x1A16 JUMPI POP PUSH32 0x0 CHAINID EQ JUMPDEST ISZERO PUSH2 0x1A43 JUMPI PUSH32 0x0 SWAP1 POP PUSH2 0x1A4E JUMP JUMPDEST PUSH2 0x1A4B PUSH2 0x242A JUMP JUMPDEST SWAP1 POP JUMPDEST SWAP1 JUMP JUMPDEST PUSH0 PUSH2 0x1A5C DUP4 DUP4 PUSH2 0x1149 JUMP JUMPDEST ISZERO PUSH2 0x1B31 JUMPI PUSH0 PUSH1 0x6 PUSH0 DUP6 DUP2 MSTORE PUSH1 0x20 ADD SWAP1 DUP2 MSTORE PUSH1 0x20 ADD PUSH0 KECCAK256 PUSH0 ADD PUSH0 DUP5 PUSH20 0xFFFFFFFFFFFFFFFFFFFFFFFFFFFFFFFFFFFFFFFF AND PUSH20 0xFFFFFFFFFFFFFFFFFFFFFFFFFFFFFFFFFFFFFFFF AND DUP2 MSTORE PUSH1 0x20 ADD SWAP1 DUP2 MSTORE PUSH1 0x20 ADD PUSH0 KECCAK256 PUSH0 PUSH2 0x100 EXP DUP2 SLOAD DUP2 PUSH1 0xFF MUL NOT AND SWAP1 DUP4 ISZERO ISZERO MUL OR SWAP1 SSTORE POP PUSH2 0x1ACE PUSH2 0x1702 JUMP JUMPDEST PUSH20 0xFFFFFFFFFFFFFFFFFFFFFFFFFFFFFFFFFFFFFFFF AND DUP3 PUSH20 0xFFFFFFFFFFFFFFFFFFFFFFFFFFFFFFFFFFFFFFFF AND DUP5 PUSH32 0xF6391F5C32D9C69D2A47EA670B442974B53935D1EDC7FD64EB21E047A839171B PUSH1 0x40 MLOAD PUSH1 0x40 MLOAD DUP1 SWAP2 SUB SWAP1 LOG4 PUSH1 0x1 SWAP1 POP PUSH2 0x1B35 JUMP JUMPDEST PUSH0 SWAP1 POP JUMPDEST SWAP3 SWAP2 POP POP JUMP JUMPDEST PUSH0 PUSH6 0xFFFFFFFFFFFF DUP1 AND DUP3 GT ISZERO PUSH2 0x1B8C JUMPI PUSH1 0x30 DUP3 PUSH1 0x40 MLOAD PUSH32 0x6DFCC65000000000000000000000000000000000000000000000000000000000 DUP2 MSTORE PUSH1 0x4 ADD PUSH2 0x1B83 SWAP3 SWAP2 SWAP1 PUSH2 0x456F JUMP JUMPDEST PUSH1 0x40 MLOAD DUP1 SWAP2 SUB SWAP1 REVERT JUMPDEST DUP2 SWAP1 POP SWAP2 SWAP1 POP JUMP JUMPDEST PUSH0 DUP1 DUP4 PUSH0 ADD DUP1 SLOAD SWAP1 POP SWAP1 POP PUSH0 DUP1 DUP3 SWAP1 POP PUSH1 0x5 DUP4 GT ISZERO PUSH2 0x1C15 JUMPI PUSH0 PUSH2 0x1BB7 DUP5 PUSH2 0x24BF JUMP JUMPDEST DUP5 PUSH2 0x1BC2 SWAP2 SWAP1 PUSH2 0x4335 JUMP JUMPDEST SWAP1 POP PUSH2 0x1BD0 DUP8 PUSH0 ADD DUP3 PUSH2 0x25B5 JUMP JUMPDEST PUSH0 ADD PUSH0 SWAP1 SLOAD SWAP1 PUSH2 0x100 EXP SWAP1 DIV PUSH6 0xFFFFFFFFFFFF AND PUSH6 0xFFFFFFFFFFFF AND DUP7 PUSH6 0xFFFFFFFFFFFF AND LT ISZERO PUSH2 0x1C03 JUMPI DUP1 SWAP2 POP PUSH2 0x1C13 JUMP JUMPDEST PUSH1 0x1 DUP2 PUSH2 0x1C10 SWAP2 SWAP1 PUSH2 0x4302 JUMP JUMPDEST SWAP3 POP JUMPDEST POP JUMPDEST PUSH0 PUSH2 0x1C24 DUP8 PUSH0 ADD DUP8 DUP6 DUP6 PUSH2 0x25C7 JUMP JUMPDEST SWAP1 POP PUSH0 DUP2 EQ PUSH2 0x1C73 JUMPI PUSH2 0x1C45 DUP8 PUSH0 ADD PUSH1 0x1 DUP4 PUSH2 0x1C40 SWAP2 SWAP1 PUSH2 0x4335 JUMP JUMPDEST PUSH2 0x25B5 JUMP JUMPDEST PUSH0 ADD PUSH1 0x6 SWAP1 SLOAD SWAP1 PUSH2 0x100 EXP SWAP1 DIV PUSH26 0xFFFFFFFFFFFFFFFFFFFFFFFFFFFFFFFFFFFFFFFFFFFFFFFFFFFF AND PUSH2 0x1C75 JUMP JUMPDEST PUSH0 JUMPDEST SWAP5 POP POP POP POP POP SWAP3 SWAP2 POP POP JUMP JUMPDEST PUSH2 0x1C89 PUSH2 0x263C JUMP JUMPDEST PUSH0 PUSH1 0x5 PUSH0 PUSH2 0x100 EXP DUP2 SLOAD DUP2 PUSH1 0xFF MUL NOT AND SWAP1 DUP4 ISZERO ISZERO MUL OR SWAP1 SSTORE POP PUSH32 0x5DB9EE0A495BF2E6FF9C91A7834C1BA4FDD244A5E8AA4E537BD38AEAE4B073AA PUSH2 0x1CCB PUSH2 0x1702 JUMP JUMPDEST PUSH1 0x40 MLOAD PUSH2 0x1CD8 SWAP2 SWAP1 PUSH2 0x3BD3 JUMP JUMPDEST PUSH1 0x40 MLOAD DUP1 SWAP2 SUB SWAP1 LOG1 JUMP JUMPDEST PUSH0 PUSH20 0xFFFFFFFFFFFFFFFFFFFFFFFFFFFFFFFFFFFFFFFF AND DUP3 PUSH20 0xFFFFFFFFFFFFFFFFFFFFFFFFFFFFFFFFFFFFFFFF AND SUB PUSH2 0x1D52 JUMPI PUSH0 PUSH1 0x40 MLOAD PUSH32 0xEC442F0500000000000000000000000000000000000000000000000000000000 DUP2 MSTORE PUSH1 0x4 ADD PUSH2 0x1D49 SWAP2 SWAP1 PUSH2 0x3BD3 JUMP JUMPDEST PUSH1 0x40 MLOAD DUP1 SWAP2 SUB SWAP1 REVERT JUMPDEST PUSH2 0x1D5D PUSH0 DUP4 DUP4 PUSH2 0x23C9 JUMP JUMPDEST POP POP JUMP JUMPDEST PUSH0 PUSH20 0xFFFFFFFFFFFFFFFFFFFFFFFFFFFFFFFFFFFFFFFF AND DUP3 PUSH20 0xFFFFFFFFFFFFFFFFFFFFFFFFFFFFFFFFFFFFFFFF AND SUB PUSH2 0x1DD1 JUMPI PUSH0 PUSH1 0x40 MLOAD PUSH32 0x96C6FD1E00000000000000000000000000000000000000000000000000000000 DUP2 MSTORE PUSH1 0x4 ADD PUSH2 0x1DC8 SWAP2 SWAP1 PUSH2 0x3BD3 JUMP JUMPDEST PUSH1 0x40 MLOAD DUP1 SWAP2 SUB SWAP1 REVERT JUMPDEST PUSH2 0x1DDC DUP3 PUSH0 DUP4 PUSH2 0x23C9 JUMP JUMPDEST POP POP JUMP JUMPDEST PUSH0 PUSH2 0x1DEA NUMBER PUSH2 0x1B3B JUMP JUMPDEST SWAP1 POP SWAP1 JUMP JUMPDEST PUSH0 PUSH2 0x1DF9 DUP4 PUSH2 0xC51 JUMP JUMPDEST SWAP1 POP DUP2 PUSH1 0xA PUSH0 DUP6 PUSH20 0xFFFFFFFFFFFFFFFFFFFFFFFFFFFFFFFFFFFFFFFF AND PUSH20 0xFFFFFFFFFFFFFFFFFFFFFFFFFFFFFFFFFFFFFFFF AND DUP2 MSTORE PUSH1 0x20 ADD SWAP1 DUP2 MSTORE PUSH1 0x20 ADD PUSH0 KECCAK256 PUSH0 PUSH2 0x100 EXP DUP2 SLOAD DUP2 PUSH20 0xFFFFFFFFFFFFFFFFFFFFFFFFFFFFFFFFFFFFFFFF MUL NOT AND SWAP1 DUP4 PUSH20 0xFFFFFFFFFFFFFFFFFFFFFFFFFFFFFFFFFFFFFFFF AND MUL OR SWAP1 SSTORE POP DUP2 PUSH20 0xFFFFFFFFFFFFFFFFFFFFFFFFFFFFFFFFFFFFFFFF AND DUP2 PUSH20 0xFFFFFFFFFFFFFFFFFFFFFFFFFFFFFFFFFFFFFFFF AND DUP5 PUSH20 0xFFFFFFFFFFFFFFFFFFFFFFFFFFFFFFFFFFFFFFFF AND PUSH32 0x3134E8A2E6D97E929A7E54011EA5485D7D196DD5F0BA4D4EF95803E8E3FC257F PUSH1 0x40 MLOAD PUSH1 0x40 MLOAD DUP1 SWAP2 SUB SWAP1 LOG4 PUSH2 0x1EFA DUP2 DUP4 PUSH2 0x1EF5 DUP7 PUSH2 0x267C JUMP JUMPDEST PUSH2 0x268D JUMP JUMPDEST POP POP POP JUMP JUMPDEST PUSH0 SWAP1 JUMP JUMPDEST PUSH0 PUSH2 0x1F51 PUSH2 0x1F4C PUSH1 0xB PUSH0 DUP6 PUSH20 0xFFFFFFFFFFFFFFFFFFFFFFFFFFFFFFFFFFFFFFFF AND PUSH20 0xFFFFFFFFFFFFFFFFFFFFFFFFFFFFFFFFFFFFFFFF AND DUP2 MSTORE PUSH1 0x20 ADD SWAP1 DUP2 MSTORE PUSH1 0x20 ADD PUSH0 KECCAK256 PUSH2 0x28FD JUMP JUMPDEST PUSH2 0x290C JUMP JUMPDEST SWAP1 POP SWAP2 SWAP1 POP JUMP JUMPDEST PUSH0 PUSH2 0x1F62 DUP3 PUSH2 0x2963 JUMP JUMPDEST SWAP1 POP SWAP2 SWAP1 POP JUMP JUMPDEST PUSH2 0x1F71 PUSH2 0x29A9 JUMP JUMPDEST PUSH1 0x1 PUSH1 0x5 PUSH0 PUSH2 0x100 EXP DUP2 SLOAD DUP2 PUSH1 0xFF MUL NOT AND SWAP1 DUP4 ISZERO ISZERO MUL OR SWAP1 SSTORE POP PUSH32 0x62E78CEA01BEE320CD4E420270B5EA74000D11B0C9F74754EBDBFC544B05A258 PUSH2 0x1FB4 PUSH2 0x1702 JUMP JUMPDEST PUSH1 0x40 MLOAD PUSH2 0x1FC1 SWAP2 SWAP1 PUSH2 0x3BD3 JUMP JUMPDEST PUSH1 0x40 MLOAD DUP1 SWAP2 SUB SWAP1 LOG1 JUMP JUMPDEST PUSH1 0x60 PUSH2 0x2001 PUSH1 0x7 PUSH32 0x0 PUSH2 0x29EA SWAP1 SWAP2 SWAP1 PUSH4 0xFFFFFFFF AND JUMP JUMPDEST SWAP1 POP SWAP1 JUMP JUMPDEST PUSH1 0x60 PUSH2 0x203C PUSH1 0x8 PUSH32 0x0 PUSH2 0x29EA SWAP1 SWAP2 SWAP1 PUSH4 0xFFFFFFFF AND JUMP JUMPDEST SWAP1 POP SWAP1 JUMP JUMPDEST PUSH0 DUP1 DUP3 PUSH0 ADD DUP1 SLOAD SWAP1 POP SWAP1 POP PUSH0 DUP2 EQ PUSH2 0x2099 JUMPI PUSH2 0x206B DUP4 PUSH0 ADD PUSH1 0x1 DUP4 PUSH2 0x2066 SWAP2 SWAP1 PUSH2 0x4335 JUMP JUMPDEST PUSH2 0x25B5 JUMP JUMPDEST PUSH0 ADD PUSH1 0x6 SWAP1 SLOAD SWAP1 PUSH2 0x100 EXP SWAP1 DIV PUSH26 0xFFFFFFFFFFFFFFFFFFFFFFFFFFFFFFFFFFFFFFFFFFFFFFFFFFFF AND PUSH2 0x209B JUMP JUMPDEST PUSH0 JUMPDEST SWAP2 POP POP SWAP2 SWAP1 POP JUMP JUMPDEST PUSH0 PUSH2 0x20B5 PUSH2 0x20AF PUSH2 0x199B JUMP JUMPDEST DUP4 PUSH2 0x2A97 JUMP JUMPDEST SWAP1 POP SWAP2 SWAP1 POP JUMP JUMPDEST PUSH0 DUP1 PUSH0 DUP1 PUSH2 0x20CC DUP9 DUP9 DUP9 DUP9 PUSH2 0x2AD7 JUMP JUMPDEST SWAP3 POP SWAP3 POP SWAP3 POP PUSH2 0x20DC DUP3 DUP3 PUSH2 0x2BBE JUMP JUMPDEST DUP3 SWAP4 POP POP POP POP SWAP5 SWAP4 POP POP POP POP JUMP JUMPDEST PUSH0 PUSH2 0x20F4 DUP4 PUSH2 0x2141 JUMP JUMPDEST SWAP1 POP DUP1 DUP3 EQ PUSH2 0x213C JUMPI DUP3 DUP2 PUSH1 0x40 MLOAD PUSH32 0x752D88C000000000000000000000000000000000000000000000000000000000 DUP2 MSTORE PUSH1 0x4 ADD PUSH2 0x2133 SWAP3 SWAP2 SWAP1 PUSH2 0x4596 JUMP JUMPDEST PUSH1 0x40 MLOAD DUP1 SWAP2 SUB SWAP1 REVERT JUMPDEST POP POP POP JUMP JUMPDEST PUSH0 PUSH1 0x9 PUSH0 DUP4 PUSH20 0xFFFFFFFFFFFFFFFFFFFFFFFFFFFFFFFFFFFFFFFF AND PUSH20 0xFFFFFFFFFFFFFFFFFFFFFFFFFFFFFFFFFFFFFFFF AND DUP2 MSTORE PUSH1 0x20 ADD SWAP1 DUP2 MSTORE PUSH1 0x20 ADD PUSH0 KECCAK256 PUSH0 DUP2 SLOAD DUP1 SWAP3 SWAP2 SWAP1 PUSH1 0x1 ADD SWAP2 SWAP1 POP SSTORE SWAP1 POP SWAP2 SWAP1 POP JUMP JUMPDEST PUSH0 SWAP3 SWAP2 POP POP JUMP JUMPDEST PUSH2 0x21A3 PUSH2 0x37AC JUMP JUMPDEST PUSH2 0x21F2 DUP3 PUSH1 0xB PUSH0 DUP7 PUSH20 0xFFFFFFFFFFFFFFFFFFFFFFFFFFFFFFFFFFFFFFFF AND PUSH20 0xFFFFFFFFFFFFFFFFFFFFFFFFFFFFFFFFFFFFFFFF AND DUP2 MSTORE PUSH1 0x20 ADD SWAP1 DUP2 MSTORE PUSH1 0x20 ADD PUSH0 KECCAK256 PUSH2 0x2D20 SWAP1 SWAP2 SWAP1 PUSH4 0xFFFFFFFF AND JUMP JUMPDEST SWAP1 POP SWAP3 SWAP2 POP POP JUMP JUMPDEST PUSH0 PUSH20 0xFFFFFFFFFFFFFFFFFFFFFFFFFFFFFFFFFFFFFFFF AND DUP5 PUSH20 0xFFFFFFFFFFFFFFFFFFFFFFFFFFFFFFFFFFFFFFFF AND SUB PUSH2 0x226A JUMPI PUSH0 PUSH1 0x40 MLOAD PUSH32 0xE602DF0500000000000000000000000000000000000000000000000000000000 DUP2 MSTORE PUSH1 0x4 ADD PUSH2 0x2261 SWAP2 SWAP1 PUSH2 0x3BD3 JUMP JUMPDEST PUSH1 0x40 MLOAD DUP1 SWAP2 SUB SWAP1 REVERT JUMPDEST PUSH0 PUSH20 0xFFFFFFFFFFFFFFFFFFFFFFFFFFFFFFFFFFFFFFFF AND DUP4 PUSH20 0xFFFFFFFFFFFFFFFFFFFFFFFFFFFFFFFFFFFFFFFF AND SUB PUSH2 0x22DA JUMPI PUSH0 PUSH1 0x40 MLOAD PUSH32 0x94280D6200000000000000000000000000000000000000000000000000000000 DUP2 MSTORE PUSH1 0x4 ADD PUSH2 0x22D1 SWAP2 SWAP1 PUSH2 0x3BD3 JUMP JUMPDEST PUSH1 0x40 MLOAD DUP1 SWAP2 SUB SWAP1 REVERT JUMPDEST DUP2 PUSH1 0x1 PUSH0 DUP7 PUSH20 0xFFFFFFFFFFFFFFFFFFFFFFFFFFFFFFFFFFFFFFFF AND PUSH20 0xFFFFFFFFFFFFFFFFFFFFFFFFFFFFFFFFFFFFFFFF AND DUP2 MSTORE PUSH1 0x20 ADD SWAP1 DUP2 MSTORE PUSH1 0x20 ADD PUSH0 KECCAK256 PUSH0 DUP6 PUSH20 0xFFFFFFFFFFFFFFFFFFFFFFFFFFFFFFFFFFFFFFFF AND PUSH20 0xFFFFFFFFFFFFFFFFFFFFFFFFFFFFFFFFFFFFFFFF AND DUP2 MSTORE PUSH1 0x20 ADD SWAP1 DUP2 MSTORE PUSH1 0x20 ADD PUSH0 KECCAK256 DUP2 SWAP1 SSTORE POP DUP1 ISZERO PUSH2 0x23C3 JUMPI DUP3 PUSH20 0xFFFFFFFFFFFFFFFFFFFFFFFFFFFFFFFFFFFFFFFF AND DUP5 PUSH20 0xFFFFFFFFFFFFFFFFFFFFFFFFFFFFFFFFFFFFFFFF AND PUSH32 0x8C5BE1E5EBEC7D5BD14F71427D1E84F3DD0314C0F7B2291E5B200AC8C7C3B925 DUP5 PUSH1 0x40 MLOAD PUSH2 0x23BA SWAP2 SWAP1 PUSH2 0x3A0D JUMP JUMPDEST PUSH1 0x40 MLOAD DUP1 SWAP2 SUB SWAP1 LOG3 JUMPDEST POP POP POP POP JUMP JUMPDEST PUSH2 0x23D4 DUP4 DUP4 DUP4 PUSH2 0x2DEF JUMP JUMPDEST POP POP POP JUMP JUMPDEST PUSH2 0x23E3 DUP3 DUP3 PUSH2 0x1149 JUMP JUMPDEST PUSH2 0x2426 JUMPI DUP1 DUP3 PUSH1 0x40 MLOAD PUSH32 0xE2517D3F00000000000000000000000000000000000000000000000000000000 DUP2 MSTORE PUSH1 0x4 ADD PUSH2 0x241D SWAP3 SWAP2 SWAP1 PUSH2 0x45BD JUMP JUMPDEST PUSH1 0x40 MLOAD DUP1 SWAP2 SUB SWAP1 REVERT JUMPDEST POP POP JUMP JUMPDEST PUSH0 PUSH32 0x8B73C3C69BB8FE3D512ECC4CF759CC79239F7B179B0FFACAA9A75D522B39400F PUSH32 0x0 PUSH32 0x0 CHAINID ADDRESS PUSH1 0x40 MLOAD PUSH1 0x20 ADD PUSH2 0x24A4 SWAP6 SWAP5 SWAP4 SWAP3 SWAP2 SWAP1 PUSH2 0x45E4 JUMP JUMPDEST PUSH1 0x40 MLOAD PUSH1 0x20 DUP2 DUP4 SUB SUB DUP2 MSTORE SWAP1 PUSH1 0x40 MSTORE DUP1 MLOAD SWAP1 PUSH1 0x20 ADD KECCAK256 SWAP1 POP SWAP1 JUMP JUMPDEST PUSH0 DUP1 DUP3 SUB PUSH2 0x24CF JUMPI PUSH0 SWAP1 POP PUSH2 0x25B0 JUMP JUMPDEST PUSH0 PUSH1 0x1 PUSH2 0x24DB DUP5 PUSH2 0x2E9D JUMP JUMPDEST SWAP1 SHR PUSH1 0x1 SWAP1 SHL SWAP1 POP PUSH1 0x1 DUP2 DUP5 DUP2 PUSH2 0x24F5 JUMPI PUSH2 0x24F4 PUSH2 0x4635 JUMP JUMPDEST JUMPDEST DIV DUP3 ADD SWAP1 SHR SWAP1 POP PUSH1 0x1 DUP2 DUP5 DUP2 PUSH2 0x250E JUMPI PUSH2 0x250D PUSH2 0x4635 JUMP JUMPDEST JUMPDEST DIV DUP3 ADD SWAP1 SHR SWAP1 POP PUSH1 0x1 DUP2 DUP5 DUP2 PUSH2 0x2527 JUMPI PUSH2 0x2526 PUSH2 0x4635 JUMP JUMPDEST JUMPDEST DIV DUP3 ADD SWAP1 SHR SWAP1 POP PUSH1 0x1 DUP2 DUP5 DUP2 PUSH2 0x2540 JUMPI PUSH2 0x253F PUSH2 0x4635 JUMP JUMPDEST JUMPDEST DIV DUP3 ADD SWAP1 SHR SWAP1 POP PUSH1 0x1 DUP2 DUP5 DUP2 PUSH2 0x2559 JUMPI PUSH2 0x2558 PUSH2 0x4635 JUMP JUMPDEST JUMPDEST DIV DUP3 ADD SWAP1 SHR SWAP1 POP PUSH1 0x1 DUP2 DUP5 DUP2 PUSH2 0x2572 JUMPI PUSH2 0x2571 PUSH2 0x4635 JUMP JUMPDEST JUMPDEST DIV DUP3 ADD SWAP1 SHR SWAP1 POP PUSH1 0x1 DUP2 DUP5 DUP2 PUSH2 0x258B JUMPI PUSH2 0x258A PUSH2 0x4635 JUMP JUMPDEST JUMPDEST DIV DUP3 ADD SWAP1 SHR SWAP1 POP PUSH2 0x25AC DUP2 DUP3 DUP6 DUP2 PUSH2 0x25A6 JUMPI PUSH2 0x25A5 PUSH2 0x4635 JUMP JUMPDEST JUMPDEST DIV PUSH2 0x2F74 JUMP JUMPDEST SWAP2 POP POP JUMPDEST SWAP2 SWAP1 POP JUMP JUMPDEST PUSH0 DUP3 PUSH0 MSTORE DUP2 PUSH1 0x20 PUSH0 KECCAK256 ADD SWAP1 POP SWAP3 SWAP2 POP POP JUMP JUMPDEST PUSH0 JUMPDEST DUP2 DUP4 LT ISZERO PUSH2 0x2631 JUMPI PUSH0 PUSH2 0x25DC DUP5 DUP5 PUSH2 0x2F8C JUMP JUMPDEST SWAP1 POP DUP5 PUSH6 0xFFFFFFFFFFFF AND PUSH2 0x25F1 DUP8 DUP4 PUSH2 0x25B5 JUMP JUMPDEST PUSH0 ADD PUSH0 SWAP1 SLOAD SWAP1 PUSH2 0x100 EXP SWAP1 DIV PUSH6 0xFFFFFFFFFFFF AND PUSH6 0xFFFFFFFFFFFF AND GT ISZERO PUSH2 0x261B JUMPI DUP1 SWAP3 POP PUSH2 0x262B JUMP JUMPDEST PUSH1 0x1 DUP2 PUSH2 0x2628 SWAP2 SWAP1 PUSH2 0x4302 JUMP JUMPDEST SWAP4 POP JUMPDEST POP PUSH2 0x25C9 JUMP JUMPDEST DUP2 SWAP1 POP SWAP5 SWAP4 POP POP POP POP JUMP JUMPDEST PUSH2 0x2644 PUSH2 0xCCF JUMP JUMPDEST PUSH2 0x267A JUMPI PUSH1 0x40 MLOAD PUSH32 0x8DFC202B00000000000000000000000000000000000000000000000000000000 DUP2 MSTORE PUSH1 0x4 ADD PUSH1 0x40 MLOAD DUP1 SWAP2 SUB SWAP1 REVERT JUMPDEST JUMP JUMPDEST PUSH0 PUSH2 0x2686 DUP3 PUSH2 0xF5F JUMP JUMPDEST SWAP1 POP SWAP2 SWAP1 POP JUMP JUMPDEST DUP2 PUSH20 0xFFFFFFFFFFFFFFFFFFFFFFFFFFFFFFFFFFFFFFFF AND DUP4 PUSH20 0xFFFFFFFFFFFFFFFFFFFFFFFFFFFFFFFFFFFFFFFF AND EQ ISZERO DUP1 ISZERO PUSH2 0x26C8 JUMPI POP PUSH0 DUP2 GT JUMPDEST ISZERO PUSH2 0x28F8 JUMPI PUSH0 PUSH20 0xFFFFFFFFFFFFFFFFFFFFFFFFFFFFFFFFFFFFFFFF AND DUP4 PUSH20 0xFFFFFFFFFFFFFFFFFFFFFFFFFFFFFFFFFFFFFFFF AND EQ PUSH2 0x27E2 JUMPI PUSH0 DUP1 PUSH2 0x2753 PUSH1 0xB PUSH0 DUP8 PUSH20 0xFFFFFFFFFFFFFFFFFFFFFFFFFFFFFFFFFFFFFFFF AND PUSH20 0xFFFFFFFFFFFFFFFFFFFFFFFFFFFFFFFFFFFFFFFF AND DUP2 MSTORE PUSH1 0x20 ADD SWAP1 DUP2 MSTORE PUSH1 0x20 ADD PUSH0 KECCAK256 PUSH2 0x1684 PUSH2 0x274E DUP7 PUSH2 0x2FB1 JUMP JUMPDEST PUSH2 0x301E JUMP JUMPDEST PUSH26 0xFFFFFFFFFFFFFFFFFFFFFFFFFFFFFFFFFFFFFFFFFFFFFFFFFFFF AND SWAP2 POP PUSH26 0xFFFFFFFFFFFFFFFFFFFFFFFFFFFFFFFFFFFFFFFFFFFFFFFFFFFF AND SWAP2 POP DUP5 PUSH20 0xFFFFFFFFFFFFFFFFFFFFFFFFFFFFFFFFFFFFFFFF AND PUSH32 0xDEC2BACDD2F05B59DE34DA9B523DFF8BE42E5E38E818C82FDB0BAE774387A724 DUP4 DUP4 PUSH1 0x40 MLOAD PUSH2 0x27D7 SWAP3 SWAP2 SWAP1 PUSH2 0x4662 JUMP JUMPDEST PUSH1 0x40 MLOAD DUP1 SWAP2 SUB SWAP1 LOG2 POP POP JUMPDEST PUSH0 PUSH20 0xFFFFFFFFFFFFFFFFFFFFFFFFFFFFFFFFFFFFFFFF AND DUP3 PUSH20 0xFFFFFFFFFFFFFFFFFFFFFFFFFFFFFFFFFFFFFFFF AND EQ PUSH2 0x28F7 JUMPI PUSH0 DUP1 PUSH2 0x2868 PUSH1 0xB PUSH0 DUP7 PUSH20 0xFFFFFFFFFFFFFFFFFFFFFFFFFFFFFFFFFFFFFFFF AND PUSH20 0xFFFFFFFFFFFFFFFFFFFFFFFFFFFFFFFFFFFFFFFF AND DUP2 MSTORE PUSH1 0x20 ADD SWAP1 DUP2 MSTORE PUSH1 0x20 ADD PUSH0 KECCAK256 PUSH2 0x166F PUSH2 0x2863 DUP7 PUSH2 0x2FB1 JUMP JUMPDEST PUSH2 0x301E JUMP JUMPDEST PUSH26 0xFFFFFFFFFFFFFFFFFFFFFFFFFFFFFFFFFFFFFFFFFFFFFFFFFFFF AND SWAP2 POP PUSH26 0xFFFFFFFFFFFFFFFFFFFFFFFFFFFFFFFFFFFFFFFFFFFFFFFFFFFF AND SWAP2 POP DUP4 PUSH20 0xFFFFFFFFFFFFFFFFFFFFFFFFFFFFFFFFFFFFFFFF AND PUSH32 0xDEC2BACDD2F05B59DE34DA9B523DFF8BE42E5E38E818C82FDB0BAE774387A724 DUP4 DUP4 PUSH1 0x40 MLOAD PUSH2 0x28EC SWAP3 SWAP2 SWAP1 PUSH2 0x4662 JUMP JUMPDEST PUSH1 0x40 MLOAD DUP1 SWAP2 SUB SWAP1 LOG2 POP POP JUMPDEST JUMPDEST POP POP POP JUMP JUMPDEST PUSH0 DUP2 PUSH0 ADD DUP1 SLOAD SWAP1 POP SWAP1 POP SWAP2 SWAP1 POP JUMP JUMPDEST PUSH0 PUSH4 0xFFFFFFFF DUP1 AND DUP3 GT ISZERO PUSH2 0x295B JUMPI PUSH1 0x20 DUP3 PUSH1 0x40 MLOAD PUSH32 0x6DFCC65000000000000000000000000000000000000000000000000000000000 DUP2 MSTORE PUSH1 0x4 ADD PUSH2 0x2952 SWAP3 SWAP2 SWAP1 PUSH2 0x46C2 JUMP JUMPDEST PUSH1 0x40 MLOAD DUP1 SWAP2 SUB SWAP1 REVERT JUMPDEST DUP2 SWAP1 POP SWAP2 SWAP1 POP JUMP JUMPDEST PUSH0 PUSH1 0x9 PUSH0 DUP4 PUSH20 0xFFFFFFFFFFFFFFFFFFFFFFFFFFFFFFFFFFFFFFFF AND PUSH20 0xFFFFFFFFFFFFFFFFFFFFFFFFFFFFFFFFFFFFFFFF AND DUP2 MSTORE PUSH1 0x20 ADD SWAP1 DUP2 MSTORE PUSH1 0x20 ADD PUSH0 KECCAK256 SLOAD SWAP1 POP SWAP2 SWAP1 POP JUMP JUMPDEST PUSH2 0x29B1 PUSH2 0xCCF JUMP JUMPDEST ISZERO PUSH2 0x29E8 JUMPI PUSH1 0x40 MLOAD PUSH32 0xD93C066500000000000000000000000000000000000000000000000000000000 DUP2 MSTORE PUSH1 0x4 ADD PUSH1 0x40 MLOAD DUP1 SWAP2 SUB SWAP1 REVERT JUMPDEST JUMP JUMPDEST PUSH1 0x60 PUSH1 0xFF PUSH0 SHL DUP4 EQ PUSH2 0x2A06 JUMPI PUSH2 0x29FF DUP4 PUSH2 0x305D JUMP JUMPDEST SWAP1 POP PUSH2 0x2A91 JUMP JUMPDEST DUP2 DUP1 SLOAD PUSH2 0x2A12 SWAP1 PUSH2 0x419B JUMP JUMPDEST DUP1 PUSH1 0x1F ADD PUSH1 0x20 DUP1 SWAP2 DIV MUL PUSH1 0x20 ADD PUSH1 0x40 MLOAD SWAP1 DUP2 ADD PUSH1 0x40 MSTORE DUP1 SWAP3 SWAP2 SWAP1 DUP2 DUP2 MSTORE PUSH1 0x20 ADD DUP3 DUP1 SLOAD PUSH2 0x2A3E SWAP1 PUSH2 0x419B JUMP JUMPDEST DUP1 ISZERO PUSH2 0x2A89 JUMPI DUP1 PUSH1 0x1F LT PUSH2 0x2A60 JUMPI PUSH2 0x100 DUP1 DUP4 SLOAD DIV MUL DUP4 MSTORE SWAP2 PUSH1 0x20 ADD SWAP2 PUSH2 0x2A89 JUMP JUMPDEST DUP3 ADD SWAP2 SWAP1 PUSH0 MSTORE PUSH1 0x20 PUSH0 KECCAK256 SWAP1 JUMPDEST DUP2 SLOAD DUP2 MSTORE SWAP1 PUSH1 0x1 ADD SWAP1 PUSH1 0x20 ADD DUP1 DUP4 GT PUSH2 0x2A6C JUMPI DUP3 SWAP1 SUB PUSH1 0x1F AND DUP3 ADD SWAP2 JUMPDEST POP POP POP POP POP SWAP1 POP JUMPDEST SWAP3 SWAP2 POP POP JUMP JUMPDEST PUSH0 PUSH1 0x40 MLOAD PUSH32 0x1901000000000000000000000000000000000000000000000000000000000000 DUP2 MSTORE DUP4 PUSH1 0x2 DUP3 ADD MSTORE DUP3 PUSH1 0x22 DUP3 ADD MSTORE PUSH1 0x42 DUP2 KECCAK256 SWAP2 POP POP SWAP3 SWAP2 POP POP JUMP JUMPDEST PUSH0 DUP1 PUSH0 PUSH32 0x7FFFFFFFFFFFFFFFFFFFFFFFFFFFFFFF5D576E7357A4501DDFE92F46681B20A0 DUP5 PUSH0 SHR GT ISZERO PUSH2 0x2B13 JUMPI PUSH0 PUSH1 0x3 DUP6 SWAP3 POP SWAP3 POP SWAP3 POP PUSH2 0x2BB4 JUMP JUMPDEST PUSH0 PUSH1 0x1 DUP9 DUP9 DUP9 DUP9 PUSH1 0x40 MLOAD PUSH0 DUP2 MSTORE PUSH1 0x20 ADD PUSH1 0x40 MSTORE PUSH1 0x40 MLOAD PUSH2 0x2B36 SWAP5 SWAP4 SWAP3 SWAP2 SWAP1 PUSH2 0x46E9 JUMP JUMPDEST PUSH1 0x20 PUSH1 0x40 MLOAD PUSH1 0x20 DUP2 SUB SWAP1 DUP1 DUP5 SUB SWAP1 DUP6 GAS STATICCALL ISZERO DUP1 ISZERO PUSH2 0x2B56 JUMPI RETURNDATASIZE PUSH0 DUP1 RETURNDATACOPY RETURNDATASIZE PUSH0 REVERT JUMPDEST POP POP POP PUSH1 0x20 PUSH1 0x40 MLOAD SUB MLOAD SWAP1 POP PUSH0 PUSH20 0xFFFFFFFFFFFFFFFFFFFFFFFFFFFFFFFFFFFFFFFF AND DUP2 PUSH20 0xFFFFFFFFFFFFFFFFFFFFFFFFFFFFFFFFFFFFFFFF AND SUB PUSH2 0x2BA7 JUMPI PUSH0 PUSH1 0x1 PUSH0 DUP1 SHL SWAP4 POP SWAP4 POP SWAP4 POP POP PUSH2 0x2BB4 JUMP JUMPDEST DUP1 PUSH0 DUP1 PUSH0 SHL SWAP4 POP SWAP4 POP SWAP4 POP POP JUMPDEST SWAP5 POP SWAP5 POP SWAP5 SWAP2 POP POP JUMP JUMPDEST PUSH0 PUSH1 0x3 DUP2 GT ISZERO PUSH2 0x2BD1 JUMPI PUSH2 0x2BD0 PUSH2 0x472C JUMP JUMPDEST JUMPDEST DUP3 PUSH1 0x3 DUP2 GT ISZERO PUSH2 0x2BE4 JUMPI PUSH2 0x2BE3 PUSH2 0x472C JUMP JUMPDEST JUMPDEST SUB ISZERO PUSH2 0x2D1C JUMPI PUSH1 0x1 PUSH1 0x3 DUP2 GT ISZERO PUSH2 0x2BFE JUMPI PUSH2 0x2BFD PUSH2 0x472C JUMP JUMPDEST JUMPDEST DUP3 PUSH1 0x3 DUP2 GT ISZERO PUSH2 0x2C11 JUMPI PUSH2 0x2C10 PUSH2 0x472C JUMP JUMPDEST JUMPDEST SUB PUSH2 0x2C48 JUMPI PUSH1 0x40 MLOAD PUSH32 0xF645EEDF00000000000000000000000000000000000000000000000000000000 DUP2 MSTORE PUSH1 0x4 ADD PUSH1 0x40 MLOAD DUP1 SWAP2 SUB SWAP1 REVERT JUMPDEST PUSH1 0x2 PUSH1 0x3 DUP2 GT ISZERO PUSH2 0x2C5C JUMPI PUSH2 0x2C5B PUSH2 0x472C JUMP JUMPDEST JUMPDEST DUP3 PUSH1 0x3 DUP2 GT ISZERO PUSH2 0x2C6F JUMPI PUSH2 0x2C6E PUSH2 0x472C JUMP JUMPDEST JUMPDEST SUB PUSH2 0x2CB3 JUMPI DUP1 PUSH0 SHR PUSH1 0x40 MLOAD PUSH32 0xFCE698F700000000000000000000000000000000000000000000000000000000 DUP2 MSTORE PUSH1 0x4 ADD PUSH2 0x2CAA SWAP2 SWAP1 PUSH2 0x3A0D JUMP JUMPDEST PUSH1 0x40 MLOAD DUP1 SWAP2 SUB SWAP1 REVERT JUMPDEST PUSH1 0x3 DUP1 DUP2 GT ISZERO PUSH2 0x2CC6 JUMPI PUSH2 0x2CC5 PUSH2 0x472C JUMP JUMPDEST JUMPDEST DUP3 PUSH1 0x3 DUP2 GT ISZERO PUSH2 0x2CD9 JUMPI PUSH2 0x2CD8 PUSH2 0x472C JUMP JUMPDEST JUMPDEST SUB PUSH2 0x2D1B JUMPI DUP1 PUSH1 0x40 MLOAD PUSH32 0xD78BCE0C00000000000000000000000000000000000000000000000000000000 DUP2 MSTORE PUSH1 0x4 ADD PUSH2 0x2D12 SWAP2 SWAP1 PUSH2 0x3AE3 JUMP JUMPDEST PUSH1 0x40 MLOAD DUP1 SWAP2 SUB SWAP1 REVERT JUMPDEST JUMPDEST POP POP JUMP JUMPDEST PUSH2 0x2D28 PUSH2 0x37AC JUMP JUMPDEST DUP3 PUSH0 ADD DUP3 PUSH4 0xFFFFFFFF AND DUP2 SLOAD DUP2 LT PUSH2 0x2D43 JUMPI PUSH2 0x2D42 PUSH2 0x4759 JUMP JUMPDEST JUMPDEST SWAP1 PUSH0 MSTORE PUSH1 0x20 PUSH0 KECCAK256 ADD PUSH1 0x40 MLOAD DUP1 PUSH1 0x40 ADD PUSH1 0x40 MSTORE SWAP1 DUP2 PUSH0 DUP3 ADD PUSH0 SWAP1 SLOAD SWAP1 PUSH2 0x100 EXP SWAP1 DIV PUSH6 0xFFFFFFFFFFFF AND PUSH6 0xFFFFFFFFFFFF AND PUSH6 0xFFFFFFFFFFFF AND DUP2 MSTORE PUSH1 0x20 ADD PUSH0 DUP3 ADD PUSH1 0x6 SWAP1 SLOAD SWAP1 PUSH2 0x100 EXP SWAP1 DIV PUSH26 0xFFFFFFFFFFFFFFFFFFFFFFFFFFFFFFFFFFFFFFFFFFFFFFFFFFFF AND PUSH26 0xFFFFFFFFFFFFFFFFFFFFFFFFFFFFFFFFFFFFFFFFFFFFFFFFFFFF AND PUSH26 0xFFFFFFFFFFFFFFFFFFFFFFFFFFFFFFFFFFFFFFFFFFFFFFFFFFFF AND DUP2 MSTORE POP POP SWAP1 POP SWAP3 SWAP2 POP POP JUMP JUMPDEST PUSH2 0x2DFA DUP4 DUP4 DUP4 PUSH2 0x30CF JUMP JUMPDEST PUSH0 PUSH20 0xFFFFFFFFFFFFFFFFFFFFFFFFFFFFFFFFFFFFFFFF AND DUP4 PUSH20 0xFFFFFFFFFFFFFFFFFFFFFFFFFFFFFFFFFFFFFFFF AND SUB PUSH2 0x2E8D JUMPI PUSH0 PUSH2 0x2E36 PUSH2 0x95E JUMP JUMPDEST SWAP1 POP PUSH0 PUSH2 0x2E41 PUSH2 0x30E7 JUMP JUMPDEST SWAP1 POP DUP1 DUP3 GT ISZERO PUSH2 0x2E8A JUMPI DUP2 DUP2 PUSH1 0x40 MLOAD PUSH32 0x1CB15D2600000000000000000000000000000000000000000000000000000000 DUP2 MSTORE PUSH1 0x4 ADD PUSH2 0x2E81 SWAP3 SWAP2 SWAP1 PUSH2 0x4662 JUMP JUMPDEST PUSH1 0x40 MLOAD DUP1 SWAP2 SUB SWAP1 REVERT JUMPDEST POP POP JUMPDEST PUSH2 0x2E98 DUP4 DUP4 DUP4 PUSH2 0x310A JUMP JUMPDEST POP POP POP JUMP JUMPDEST PUSH0 DUP1 PUSH0 SWAP1 POP PUSH0 PUSH1 0x80 DUP5 SWAP1 SHR GT ISZERO PUSH2 0x2EBC JUMPI PUSH1 0x80 DUP4 SWAP1 SHR SWAP3 POP PUSH1 0x80 DUP2 ADD SWAP1 POP JUMPDEST PUSH0 PUSH1 0x40 DUP5 SWAP1 SHR GT ISZERO PUSH2 0x2ED6 JUMPI PUSH1 0x40 DUP4 SWAP1 SHR SWAP3 POP PUSH1 0x40 DUP2 ADD SWAP1 POP JUMPDEST PUSH0 PUSH1 0x20 DUP5 SWAP1 SHR GT ISZERO PUSH2 0x2EF0 JUMPI PUSH1 0x20 DUP4 SWAP1 SHR SWAP3 POP PUSH1 0x20 DUP2 ADD SWAP1 POP JUMPDEST PUSH0 PUSH1 0x10 DUP5 SWAP1 SHR GT ISZERO PUSH2 0x2F0A JUMPI PUSH1 0x10 DUP4 SWAP1 SHR SWAP3 POP PUSH1 0x10 DUP2 ADD SWAP1 POP JUMPDEST PUSH0 PUSH1 0x8 DUP5 SWAP1 SHR GT ISZERO PUSH2 0x2F24 JUMPI PUSH1 0x8 DUP4 SWAP1 SHR SWAP3 POP PUSH1 0x8 DUP2 ADD SWAP1 POP JUMPDEST PUSH0 PUSH1 0x4 DUP5 SWAP1 SHR GT ISZERO PUSH2 0x2F3E JUMPI PUSH1 0x4 DUP4 SWAP1 SHR SWAP3 POP PUSH1 0x4 DUP2 ADD SWAP1 POP JUMPDEST PUSH0 PUSH1 0x2 DUP5 SWAP1 SHR GT ISZERO PUSH2 0x2F58 JUMPI PUSH1 0x2 DUP4 SWAP1 SHR SWAP3 POP PUSH1 0x2 DUP2 ADD SWAP1 POP JUMPDEST PUSH0 PUSH1 0x1 DUP5 SWAP1 SHR GT ISZERO PUSH2 0x2F6B JUMPI PUSH1 0x1 DUP2 ADD SWAP1 POP JUMPDEST DUP1 SWAP2 POP POP SWAP2 SWAP1 POP JUMP JUMPDEST PUSH0 DUP2 DUP4 LT PUSH2 0x2F82 JUMPI DUP2 PUSH2 0x2F84 JUMP JUMPDEST DUP3 JUMPDEST SWAP1 POP SWAP3 SWAP2 POP POP JUMP JUMPDEST PUSH0 PUSH1 0x2 DUP3 DUP5 XOR PUSH2 0x2F9C SWAP2 SWAP1 PUSH2 0x4786 JUMP JUMPDEST DUP3 DUP5 AND PUSH2 0x2FA9 SWAP2 SWAP1 PUSH2 0x4302 JUMP JUMPDEST SWAP1 POP SWAP3 SWAP2 POP POP JUMP JUMPDEST PUSH0 PUSH26 0xFFFFFFFFFFFFFFFFFFFFFFFFFFFFFFFFFFFFFFFFFFFFFFFFFFFF DUP1 AND DUP3 GT ISZERO PUSH2 0x3016 JUMPI PUSH1 0xD0 DUP3 PUSH1 0x40 MLOAD PUSH32 0x6DFCC65000000000000000000000000000000000000000000000000000000000 DUP2 MSTORE PUSH1 0x4 ADD PUSH2 0x300D SWAP3 SWAP2 SWAP1 PUSH2 0x47EF JUMP JUMPDEST PUSH1 0x40 MLOAD DUP1 SWAP2 SUB SWAP1 REVERT JUMPDEST DUP2 SWAP1 POP SWAP2 SWAP1 POP JUMP JUMPDEST PUSH0 DUP1 PUSH2 0x3051 PUSH2 0x302B PUSH2 0x11AD JUMP JUMPDEST PUSH2 0x3041 PUSH2 0x3037 DUP9 PUSH2 0x2041 JUMP JUMPDEST DUP7 DUP9 PUSH4 0xFFFFFFFF AND JUMP JUMPDEST DUP8 PUSH2 0x31C2 SWAP1 SWAP3 SWAP2 SWAP1 PUSH4 0xFFFFFFFF AND JUMP JUMPDEST SWAP2 POP SWAP2 POP SWAP4 POP SWAP4 SWAP2 POP POP JUMP JUMPDEST PUSH1 0x60 PUSH0 PUSH2 0x3069 DUP4 PUSH2 0x31DD JUMP JUMPDEST SWAP1 POP PUSH0 PUSH1 0x20 PUSH8 0xFFFFFFFFFFFFFFFF DUP2 GT ISZERO PUSH2 0x3087 JUMPI PUSH2 0x3086 PUSH2 0x4368 JUMP JUMPDEST JUMPDEST PUSH1 0x40 MLOAD SWAP1 DUP1 DUP3 MSTORE DUP1 PUSH1 0x1F ADD PUSH1 0x1F NOT AND PUSH1 0x20 ADD DUP3 ADD PUSH1 0x40 MSTORE DUP1 ISZERO PUSH2 0x30B9 JUMPI DUP2 PUSH1 0x20 ADD PUSH1 0x1 DUP3 MUL DUP1 CALLDATASIZE DUP4 CALLDATACOPY DUP1 DUP3 ADD SWAP2 POP POP SWAP1 POP JUMPDEST POP SWAP1 POP DUP2 DUP2 MSTORE DUP4 PUSH1 0x20 DUP3 ADD MSTORE DUP1 SWAP3 POP POP POP SWAP2 SWAP1 POP JUMP JUMPDEST PUSH2 0x30D7 PUSH2 0x29A9 JUMP JUMPDEST PUSH2 0x30E2 DUP4 DUP4 DUP4 PUSH2 0x322B JUMP JUMPDEST POP POP POP JUMP JUMPDEST PUSH0 PUSH26 0xFFFFFFFFFFFFFFFFFFFFFFFFFFFFFFFFFFFFFFFFFFFFFFFFFFFF DUP1 AND SWAP1 POP SWAP1 JUMP JUMPDEST PUSH0 PUSH20 0xFFFFFFFFFFFFFFFFFFFFFFFFFFFFFFFFFFFFFFFF AND DUP4 PUSH20 0xFFFFFFFFFFFFFFFFFFFFFFFFFFFFFFFFFFFFFFFF AND SUB PUSH2 0x3156 JUMPI PUSH2 0x3153 PUSH1 0xC PUSH2 0x166F PUSH2 0x314E DUP5 PUSH2 0x2FB1 JUMP JUMPDEST PUSH2 0x301E JUMP JUMPDEST POP POP JUMPDEST PUSH0 PUSH20 0xFFFFFFFFFFFFFFFFFFFFFFFFFFFFFFFFFFFFFFFF AND DUP3 PUSH20 0xFFFFFFFFFFFFFFFFFFFFFFFFFFFFFFFFFFFFFFFF AND SUB PUSH2 0x31A2 JUMPI PUSH2 0x319F PUSH1 0xC PUSH2 0x1684 PUSH2 0x319A DUP5 PUSH2 0x2FB1 JUMP JUMPDEST PUSH2 0x301E JUMP JUMPDEST POP POP JUMPDEST PUSH2 0x31BD PUSH2 0x31AE DUP5 PUSH2 0xC51 JUMP JUMPDEST PUSH2 0x31B7 DUP5 PUSH2 0xC51 JUMP JUMPDEST DUP4 PUSH2 0x268D JUMP JUMPDEST POP POP POP JUMP JUMPDEST PUSH0 DUP1 PUSH2 0x31D1 DUP6 PUSH0 ADD DUP6 DUP6 PUSH2 0x3444 JUMP JUMPDEST SWAP2 POP SWAP2 POP SWAP4 POP SWAP4 SWAP2 POP POP JUMP JUMPDEST PUSH0 DUP1 PUSH1 0xFF DUP4 PUSH0 SHR AND SWAP1 POP PUSH1 0x1F DUP2 GT ISZERO PUSH2 0x3222 JUMPI PUSH1 0x40 MLOAD PUSH32 0xB3512B0C00000000000000000000000000000000000000000000000000000000 DUP2 MSTORE PUSH1 0x4 ADD PUSH1 0x40 MLOAD DUP1 SWAP2 SUB SWAP1 REVERT JUMPDEST DUP1 SWAP2 POP POP SWAP2 SWAP1 POP JUMP JUMPDEST PUSH0 PUSH20 0xFFFFFFFFFFFFFFFFFFFFFFFFFFFFFFFFFFFFFFFF AND DUP4 PUSH20 0xFFFFFFFFFFFFFFFFFFFFFFFFFFFFFFFFFFFFFFFF AND SUB PUSH2 0x327B JUMPI DUP1 PUSH1 0x2 PUSH0 DUP3 DUP3 SLOAD PUSH2 0x326F SWAP2 SWAP1 PUSH2 0x4302 JUMP JUMPDEST SWAP3 POP POP DUP2 SWAP1 SSTORE POP PUSH2 0x3349 JUMP JUMPDEST PUSH0 DUP1 PUSH0 DUP6 PUSH20 0xFFFFFFFFFFFFFFFFFFFFFFFFFFFFFFFFFFFFFFFF AND PUSH20 0xFFFFFFFFFFFFFFFFFFFFFFFFFFFFFFFFFFFFFFFF AND DUP2 MSTORE PUSH1 0x20 ADD SWAP1 DUP2 MSTORE PUSH1 0x20 ADD PUSH0 KECCAK256 SLOAD SWAP1 POP DUP2 DUP2 LT ISZERO PUSH2 0x3304 JUMPI DUP4 DUP2 DUP4 PUSH1 0x40 MLOAD PUSH32 0xE450D38C00000000000000000000000000000000000000000000000000000000 DUP2 MSTORE PUSH1 0x4 ADD PUSH2 0x32FB SWAP4 SWAP3 SWAP2 SWAP1 PUSH2 0x44F8 JUMP JUMPDEST PUSH1 0x40 MLOAD DUP1 SWAP2 SUB SWAP1 REVERT JUMPDEST DUP2 DUP2 SUB PUSH0 DUP1 DUP7 PUSH20 0xFFFFFFFFFFFFFFFFFFFFFFFFFFFFFFFFFFFFFFFF AND PUSH20 0xFFFFFFFFFFFFFFFFFFFFFFFFFFFFFFFFFFFFFFFF AND DUP2 MSTORE PUSH1 0x20 ADD SWAP1 DUP2 MSTORE PUSH1 0x20 ADD PUSH0 KECCAK256 DUP2 SWAP1 SSTORE POP POP JUMPDEST PUSH0 PUSH20 0xFFFFFFFFFFFFFFFFFFFFFFFFFFFFFFFFFFFFFFFF AND DUP3 PUSH20 0xFFFFFFFFFFFFFFFFFFFFFFFFFFFFFFFFFFFFFFFF AND SUB PUSH2 0x3390 JUMPI DUP1 PUSH1 0x2 PUSH0 DUP3 DUP3 SLOAD SUB SWAP3 POP POP DUP2 SWAP1 SSTORE POP PUSH2 0x33DA JUMP JUMPDEST DUP1 PUSH0 DUP1 DUP5 PUSH20 0xFFFFFFFFFFFFFFFFFFFFFFFFFFFFFFFFFFFFFFFF AND PUSH20 0xFFFFFFFFFFFFFFFFFFFFFFFFFFFFFFFFFFFFFFFF AND DUP2 MSTORE PUSH1 0x20 ADD SWAP1 DUP2 MSTORE PUSH1 0x20 ADD PUSH0 KECCAK256 PUSH0 DUP3 DUP3 SLOAD ADD SWAP3 POP POP DUP2 SWAP1 SSTORE POP JUMPDEST DUP2 PUSH20 0xFFFFFFFFFFFFFFFFFFFFFFFFFFFFFFFFFFFFFFFF AND DUP4 PUSH20 0xFFFFFFFFFFFFFFFFFFFFFFFFFFFFFFFFFFFFFFFF AND PUSH32 0xDDF252AD1BE2C89B69C2B068FC378DAA952BA7F163C4A11628F55A4DF523B3EF DUP4 PUSH1 0x40 MLOAD PUSH2 0x3437 SWAP2 SWAP1 PUSH2 0x3A0D JUMP JUMPDEST PUSH1 0x40 MLOAD DUP1 SWAP2 SUB SWAP1 LOG3 POP POP POP JUMP JUMPDEST PUSH0 DUP1 PUSH0 DUP6 DUP1 SLOAD SWAP1 POP SWAP1 POP PUSH0 DUP2 GT ISZERO PUSH2 0x36C4 JUMPI PUSH0 PUSH2 0x346D DUP8 PUSH1 0x1 DUP5 PUSH2 0x3468 SWAP2 SWAP1 PUSH2 0x4335 JUMP JUMPDEST PUSH2 0x25B5 JUMP JUMPDEST PUSH1 0x40 MLOAD DUP1 PUSH1 0x40 ADD PUSH1 0x40 MSTORE SWAP1 DUP2 PUSH0 DUP3 ADD PUSH0 SWAP1 SLOAD SWAP1 PUSH2 0x100 EXP SWAP1 DIV PUSH6 0xFFFFFFFFFFFF AND PUSH6 0xFFFFFFFFFFFF AND PUSH6 0xFFFFFFFFFFFF AND DUP2 MSTORE PUSH1 0x20 ADD PUSH0 DUP3 ADD PUSH1 0x6 SWAP1 SLOAD SWAP1 PUSH2 0x100 EXP SWAP1 DIV PUSH26 0xFFFFFFFFFFFFFFFFFFFFFFFFFFFFFFFFFFFFFFFFFFFFFFFFFFFF AND PUSH26 0xFFFFFFFFFFFFFFFFFFFFFFFFFFFFFFFFFFFFFFFFFFFFFFFFFFFF AND PUSH26 0xFFFFFFFFFFFFFFFFFFFFFFFFFFFFFFFFFFFFFFFFFFFFFFFFFFFF AND DUP2 MSTORE POP POP SWAP1 POP DUP6 PUSH6 0xFFFFFFFFFFFF AND DUP2 PUSH0 ADD MLOAD PUSH6 0xFFFFFFFFFFFF AND GT ISZERO PUSH2 0x3558 JUMPI PUSH1 0x40 MLOAD PUSH32 0x2520601D00000000000000000000000000000000000000000000000000000000 DUP2 MSTORE PUSH1 0x4 ADD PUSH1 0x40 MLOAD DUP1 SWAP2 SUB SWAP1 REVERT JUMPDEST DUP6 PUSH6 0xFFFFFFFFFFFF AND DUP2 PUSH0 ADD MLOAD PUSH6 0xFFFFFFFFFFFF AND SUB PUSH2 0x35DA JUMPI DUP5 PUSH2 0x3589 DUP9 PUSH1 0x1 DUP6 PUSH2 0x3584 SWAP2 SWAP1 PUSH2 0x4335 JUMP JUMPDEST PUSH2 0x25B5 JUMP JUMPDEST PUSH0 ADD PUSH1 0x6 PUSH2 0x100 EXP DUP2 SLOAD DUP2 PUSH26 0xFFFFFFFFFFFFFFFFFFFFFFFFFFFFFFFFFFFFFFFFFFFFFFFFFFFF MUL NOT AND SWAP1 DUP4 PUSH26 0xFFFFFFFFFFFFFFFFFFFFFFFFFFFFFFFFFFFFFFFFFFFFFFFFFFFF AND MUL OR SWAP1 SSTORE POP PUSH2 0x36B3 JUMP JUMPDEST DUP7 PUSH1 0x40 MLOAD DUP1 PUSH1 0x40 ADD PUSH1 0x40 MSTORE DUP1 DUP9 PUSH6 0xFFFFFFFFFFFF AND DUP2 MSTORE PUSH1 0x20 ADD DUP8 PUSH26 0xFFFFFFFFFFFFFFFFFFFFFFFFFFFFFFFFFFFFFFFFFFFFFFFFFFFF AND DUP2 MSTORE POP SWAP1 DUP1 PUSH1 0x1 DUP2 SLOAD ADD DUP1 DUP3 SSTORE DUP1 SWAP2 POP POP PUSH1 0x1 SWAP1 SUB SWAP1 PUSH0 MSTORE PUSH1 0x20 PUSH0 KECCAK256 ADD PUSH0 SWAP1 SWAP2 SWAP1 SWAP2 SWAP1 SWAP2 POP PUSH0 DUP3 ADD MLOAD DUP2 PUSH0 ADD PUSH0 PUSH2 0x100 EXP DUP2 SLOAD DUP2 PUSH6 0xFFFFFFFFFFFF MUL NOT AND SWAP1 DUP4 PUSH6 0xFFFFFFFFFFFF AND MUL OR SWAP1 SSTORE POP PUSH1 0x20 DUP3 ADD MLOAD DUP2 PUSH0 ADD PUSH1 0x6 PUSH2 0x100 EXP DUP2 SLOAD DUP2 PUSH26 0xFFFFFFFFFFFFFFFFFFFFFFFFFFFFFFFFFFFFFFFFFFFFFFFFFFFF MUL NOT AND SWAP1 DUP4 PUSH26 0xFFFFFFFFFFFFFFFFFFFFFFFFFFFFFFFFFFFFFFFFFFFFFFFFFFFF AND MUL OR SWAP1 SSTORE POP POP POP JUMPDEST DUP1 PUSH1 0x20 ADD MLOAD DUP6 SWAP4 POP SWAP4 POP POP POP PUSH2 0x37A4 JUMP JUMPDEST DUP6 PUSH1 0x40 MLOAD DUP1 PUSH1 0x40 ADD PUSH1 0x40 MSTORE DUP1 DUP8 PUSH6 0xFFFFFFFFFFFF AND DUP2 MSTORE PUSH1 0x20 ADD DUP7 PUSH26 0xFFFFFFFFFFFFFFFFFFFFFFFFFFFFFFFFFFFFFFFFFFFFFFFFFFFF AND DUP2 MSTORE POP SWAP1 DUP1 PUSH1 0x1 DUP2 SLOAD ADD DUP1 DUP3 SSTORE DUP1 SWAP2 POP POP PUSH1 0x1 SWAP1 SUB SWAP1 PUSH0 MSTORE PUSH1 0x20 PUSH0 KECCAK256 ADD PUSH0 SWAP1 SWAP2 SWAP1 SWAP2 SWAP1 SWAP2 POP PUSH0 DUP3 ADD MLOAD DUP2 PUSH0 ADD PUSH0 PUSH2 0x100 EXP DUP2 SLOAD DUP2 PUSH6 0xFFFFFFFFFFFF MUL NOT AND SWAP1 DUP4 PUSH6 0xFFFFFFFFFFFF AND MUL OR SWAP1 SSTORE POP PUSH1 0x20 DUP3 ADD MLOAD DUP2 PUSH0 ADD PUSH1 0x6 PUSH2 0x100 EXP DUP2 SLOAD DUP2 PUSH26 0xFFFFFFFFFFFFFFFFFFFFFFFFFFFFFFFFFFFFFFFFFFFFFFFFFFFF MUL NOT AND SWAP1 DUP4 PUSH26 0xFFFFFFFFFFFFFFFFFFFFFFFFFFFFFFFFFFFFFFFFFFFFFFFFFFFF AND MUL OR SWAP1 SSTORE POP POP POP PUSH0 DUP5 SWAP3 POP SWAP3 POP POP JUMPDEST SWAP4 POP SWAP4 SWAP2 POP POP JUMP JUMPDEST PUSH1 0x40 MLOAD DUP1 PUSH1 0x40 ADD PUSH1 0x40 MSTORE DUP1 PUSH0 PUSH6 0xFFFFFFFFFFFF AND DUP2 MSTORE PUSH1 0x20 ADD PUSH0 PUSH26 0xFFFFFFFFFFFFFFFFFFFFFFFFFFFFFFFFFFFFFFFFFFFFFFFFFFFF AND DUP2 MSTORE POP SWAP1 JUMP JUMPDEST PUSH0 DUP1 REVERT JUMPDEST PUSH0 DUP1 REVERT JUMPDEST PUSH0 PUSH32 0xFFFFFFFF00000000000000000000000000000000000000000000000000000000 DUP3 AND SWAP1 POP SWAP2 SWAP1 POP JUMP JUMPDEST PUSH2 0x3824 DUP2 PUSH2 0x37F0 JUMP JUMPDEST DUP2 EQ PUSH2 0x382E JUMPI PUSH0 DUP1 REVERT JUMPDEST POP JUMP JUMPDEST PUSH0 DUP2 CALLDATALOAD SWAP1 POP PUSH2 0x383F DUP2 PUSH2 0x381B JUMP JUMPDEST SWAP3 SWAP2 POP POP JUMP JUMPDEST PUSH0 PUSH1 0x20 DUP3 DUP5 SUB SLT ISZERO PUSH2 0x385A JUMPI PUSH2 0x3859 PUSH2 0x37E8 JUMP JUMPDEST JUMPDEST PUSH0 PUSH2 0x3867 DUP5 DUP3 DUP6 ADD PUSH2 0x3831 JUMP JUMPDEST SWAP2 POP POP SWAP3 SWAP2 POP POP JUMP JUMPDEST PUSH0 DUP2 ISZERO ISZERO SWAP1 POP SWAP2 SWAP1 POP JUMP JUMPDEST PUSH2 0x3884 DUP2 PUSH2 0x3870 JUMP JUMPDEST DUP3 MSTORE POP POP JUMP JUMPDEST PUSH0 PUSH1 0x20 DUP3 ADD SWAP1 POP PUSH2 0x389D PUSH0 DUP4 ADD DUP5 PUSH2 0x387B JUMP JUMPDEST SWAP3 SWAP2 POP POP JUMP JUMPDEST PUSH0 DUP2 MLOAD SWAP1 POP SWAP2 SWAP1 POP JUMP JUMPDEST PUSH0 DUP3 DUP3 MSTORE PUSH1 0x20 DUP3 ADD SWAP1 POP SWAP3 SWAP2 POP POP JUMP JUMPDEST DUP3 DUP2 DUP4 MCOPY PUSH0 DUP4 DUP4 ADD MSTORE POP POP POP JUMP JUMPDEST PUSH0 PUSH1 0x1F NOT PUSH1 0x1F DUP4 ADD AND SWAP1 POP SWAP2 SWAP1 POP JUMP JUMPDEST PUSH0 PUSH2 0x38E5 DUP3 PUSH2 0x38A3 JUMP JUMPDEST PUSH2 0x38EF DUP2 DUP6 PUSH2 0x38AD JUMP JUMPDEST SWAP4 POP PUSH2 0x38FF DUP2 DUP6 PUSH1 0x20 DUP7 ADD PUSH2 0x38BD JUMP JUMPDEST PUSH2 0x3908 DUP2 PUSH2 0x38CB JUMP JUMPDEST DUP5 ADD SWAP2 POP POP SWAP3 SWAP2 POP POP JUMP JUMPDEST PUSH0 PUSH1 0x20 DUP3 ADD SWAP1 POP DUP2 DUP2 SUB PUSH0 DUP4 ADD MSTORE PUSH2 0x392B DUP2 DUP5 PUSH2 0x38DB JUMP JUMPDEST SWAP1 POP SWAP3 SWAP2 POP POP JUMP JUMPDEST PUSH0 PUSH20 0xFFFFFFFFFFFFFFFFFFFFFFFFFFFFFFFFFFFFFFFF DUP3 AND SWAP1 POP SWAP2 SWAP1 POP JUMP JUMPDEST PUSH0 PUSH2 0x395C DUP3 PUSH2 0x3933 JUMP JUMPDEST SWAP1 POP SWAP2 SWAP1 POP JUMP JUMPDEST PUSH2 0x396C DUP2 PUSH2 0x3952 JUMP JUMPDEST DUP2 EQ PUSH2 0x3976 JUMPI PUSH0 DUP1 REVERT JUMPDEST POP JUMP JUMPDEST PUSH0 DUP2 CALLDATALOAD SWAP1 POP PUSH2 0x3987 DUP2 PUSH2 0x3963 JUMP JUMPDEST SWAP3 SWAP2 POP POP JUMP JUMPDEST PUSH0 DUP2 SWAP1 POP SWAP2 SWAP1 POP JUMP JUMPDEST PUSH2 0x399F DUP2 PUSH2 0x398D JUMP JUMPDEST DUP2 EQ PUSH2 0x39A9 JUMPI PUSH0 DUP1 REVERT JUMPDEST POP JUMP JUMPDEST PUSH0 DUP2 CALLDATALOAD SWAP1 POP PUSH2 0x39BA DUP2 PUSH2 0x3996 JUMP JUMPDEST SWAP3 SWAP2 POP POP JUMP JUMPDEST PUSH0 DUP1 PUSH1 0x40 DUP4 DUP6 SUB SLT ISZERO PUSH2 0x39D6 JUMPI PUSH2 0x39D5 PUSH2 0x37E8 JUMP JUMPDEST JUMPDEST PUSH0 PUSH2 0x39E3 DUP6 DUP3 DUP7 ADD PUSH2 0x3979 JUMP JUMPDEST SWAP3 POP POP PUSH1 0x20 PUSH2 0x39F4 DUP6 DUP3 DUP7 ADD PUSH2 0x39AC JUMP JUMPDEST SWAP2 POP POP SWAP3 POP SWAP3 SWAP1 POP JUMP JUMPDEST PUSH2 0x3A07 DUP2 PUSH2 0x398D JUMP JUMPDEST DUP3 MSTORE POP POP JUMP JUMPDEST PUSH0 PUSH1 0x20 DUP3 ADD SWAP1 POP PUSH2 0x3A20 PUSH0 DUP4 ADD DUP5 PUSH2 0x39FE JUMP JUMPDEST SWAP3 SWAP2 POP POP JUMP JUMPDEST PUSH0 DUP1 PUSH0 PUSH1 0x60 DUP5 DUP7 SUB SLT ISZERO PUSH2 0x3A3D JUMPI PUSH2 0x3A3C PUSH2 0x37E8 JUMP JUMPDEST JUMPDEST PUSH0 PUSH2 0x3A4A DUP7 DUP3 DUP8 ADD PUSH2 0x3979 JUMP JUMPDEST SWAP4 POP POP PUSH1 0x20 PUSH2 0x3A5B DUP7 DUP3 DUP8 ADD PUSH2 0x3979 JUMP JUMPDEST SWAP3 POP POP PUSH1 0x40 PUSH2 0x3A6C DUP7 DUP3 DUP8 ADD PUSH2 0x39AC JUMP JUMPDEST SWAP2 POP POP SWAP3 POP SWAP3 POP SWAP3 JUMP JUMPDEST PUSH0 DUP2 SWAP1 POP SWAP2 SWAP1 POP JUMP JUMPDEST PUSH2 0x3A88 DUP2 PUSH2 0x3A76 JUMP JUMPDEST DUP2 EQ PUSH2 0x3A92 JUMPI PUSH0 DUP1 REVERT JUMPDEST POP JUMP JUMPDEST PUSH0 DUP2 CALLDATALOAD SWAP1 POP PUSH2 0x3AA3 DUP2 PUSH2 0x3A7F JUMP JUMPDEST SWAP3 SWAP2 POP POP JUMP JUMPDEST PUSH0 PUSH1 0x20 DUP3 DUP5 SUB SLT ISZERO PUSH2 0x3ABE JUMPI PUSH2 0x3ABD PUSH2 0x37E8 JUMP JUMPDEST JUMPDEST PUSH0 PUSH2 0x3ACB DUP5 DUP3 DUP6 ADD PUSH2 0x3A95 JUMP JUMPDEST SWAP2 POP POP SWAP3 SWAP2 POP POP JUMP JUMPDEST PUSH2 0x3ADD DUP2 PUSH2 0x3A76 JUMP JUMPDEST DUP3 MSTORE POP POP JUMP JUMPDEST PUSH0 PUSH1 0x20 DUP3 ADD SWAP1 POP PUSH2 0x3AF6 PUSH0 DUP4 ADD DUP5 PUSH2 0x3AD4 JUMP JUMPDEST SWAP3 SWAP2 POP POP JUMP JUMPDEST PUSH0 DUP1 PUSH1 0x40 DUP4 DUP6 SUB SLT ISZERO PUSH2 0x3B12 JUMPI PUSH2 0x3B11 PUSH2 0x37E8 JUMP JUMPDEST JUMPDEST PUSH0 PUSH2 0x3B1F DUP6 DUP3 DUP7 ADD PUSH2 0x3A95 JUMP JUMPDEST SWAP3 POP POP PUSH1 0x20 PUSH2 0x3B30 DUP6 DUP3 DUP7 ADD PUSH2 0x3979 JUMP JUMPDEST SWAP2 POP POP SWAP3 POP SWAP3 SWAP1 POP JUMP JUMPDEST PUSH0 PUSH1 0xFF DUP3 AND SWAP1 POP SWAP2 SWAP1 POP JUMP JUMPDEST PUSH2 0x3B4F DUP2 PUSH2 0x3B3A JUMP JUMPDEST DUP3 MSTORE POP POP JUMP JUMPDEST PUSH0 PUSH1 0x20 DUP3 ADD SWAP1 POP PUSH2 0x3B68 PUSH0 DUP4 ADD DUP5 PUSH2 0x3B46 JUMP JUMPDEST SWAP3 SWAP2 POP POP JUMP JUMPDEST PUSH0 PUSH1 0x20 DUP3 DUP5 SUB SLT ISZERO PUSH2 0x3B83 JUMPI PUSH2 0x3B82 PUSH2 0x37E8 JUMP JUMPDEST JUMPDEST PUSH0 PUSH2 0x3B90 DUP5 DUP3 DUP6 ADD PUSH2 0x39AC JUMP JUMPDEST SWAP2 POP POP SWAP3 SWAP2 POP POP JUMP JUMPDEST PUSH0 PUSH1 0x20 DUP3 DUP5 SUB SLT ISZERO PUSH2 0x3BAE JUMPI PUSH2 0x3BAD PUSH2 0x37E8 JUMP JUMPDEST JUMPDEST PUSH0 PUSH2 0x3BBB DUP5 DUP3 DUP6 ADD PUSH2 0x3979 JUMP JUMPDEST SWAP2 POP POP SWAP3 SWAP2 POP POP JUMP JUMPDEST PUSH2 0x3BCD DUP2 PUSH2 0x3952 JUMP JUMPDEST DUP3 MSTORE POP POP JUMP JUMPDEST PUSH0 PUSH1 0x20 DUP3 ADD SWAP1 POP PUSH2 0x3BE6 PUSH0 DUP4 ADD DUP5 PUSH2 0x3BC4 JUMP JUMPDEST SWAP3 SWAP2 POP POP JUMP JUMPDEST PUSH0 PUSH2 0x3BF6 DUP3 PUSH2 0x3952 JUMP JUMPDEST SWAP1 POP SWAP2 SWAP1 POP JUMP JUMPDEST PUSH2 0x3C06 DUP2 PUSH2 0x3BEC JUMP JUMPDEST DUP2 EQ PUSH2 0x3C10 JUMPI PUSH0 DUP1 REVERT JUMPDEST POP JUMP JUMPDEST PUSH0 DUP2 CALLDATALOAD SWAP1 POP PUSH2 0x3C21 DUP2 PUSH2 0x3BFD JUMP JUMPDEST SWAP3 SWAP2 POP POP JUMP JUMPDEST PUSH0 DUP1 REVERT JUMPDEST PUSH0 DUP1 REVERT JUMPDEST PUSH0 DUP1 REVERT JUMPDEST PUSH0 DUP1 DUP4 PUSH1 0x1F DUP5 ADD SLT PUSH2 0x3C48 JUMPI PUSH2 0x3C47 PUSH2 0x3C27 JUMP JUMPDEST JUMPDEST DUP3 CALLDATALOAD SWAP1 POP PUSH8 0xFFFFFFFFFFFFFFFF DUP2 GT ISZERO PUSH2 0x3C65 JUMPI PUSH2 0x3C64 PUSH2 0x3C2B JUMP JUMPDEST JUMPDEST PUSH1 0x20 DUP4 ADD SWAP2 POP DUP4 PUSH1 0x1 DUP3 MUL DUP4 ADD GT ISZERO PUSH2 0x3C81 JUMPI PUSH2 0x3C80 PUSH2 0x3C2F JUMP JUMPDEST JUMPDEST SWAP3 POP SWAP3 SWAP1 POP JUMP JUMPDEST PUSH0 DUP1 PUSH0 DUP1 PUSH0 PUSH1 0x80 DUP7 DUP9 SUB SLT ISZERO PUSH2 0x3CA1 JUMPI PUSH2 0x3CA0 PUSH2 0x37E8 JUMP JUMPDEST JUMPDEST PUSH0 PUSH2 0x3CAE DUP9 DUP3 DUP10 ADD PUSH2 0x3C13 JUMP JUMPDEST SWAP6 POP POP PUSH1 0x20 PUSH2 0x3CBF DUP9 DUP3 DUP10 ADD PUSH2 0x3979 JUMP JUMPDEST SWAP5 POP POP PUSH1 0x40 PUSH2 0x3CD0 DUP9 DUP3 DUP10 ADD PUSH2 0x39AC JUMP JUMPDEST SWAP4 POP POP PUSH1 0x60 DUP7 ADD CALLDATALOAD PUSH8 0xFFFFFFFFFFFFFFFF DUP2 GT ISZERO PUSH2 0x3CF1 JUMPI PUSH2 0x3CF0 PUSH2 0x37EC JUMP JUMPDEST JUMPDEST PUSH2 0x3CFD DUP9 DUP3 DUP10 ADD PUSH2 0x3C33 JUMP JUMPDEST SWAP3 POP SWAP3 POP POP SWAP3 SWAP6 POP SWAP3 SWAP6 SWAP1 SWAP4 POP JUMP JUMPDEST PUSH0 PUSH4 0xFFFFFFFF DUP3 AND SWAP1 POP SWAP2 SWAP1 POP JUMP JUMPDEST PUSH2 0x3D24 DUP2 PUSH2 0x3D0C JUMP JUMPDEST DUP3 MSTORE POP POP JUMP JUMPDEST PUSH0 PUSH1 0x20 DUP3 ADD SWAP1 POP PUSH2 0x3D3D PUSH0 DUP4 ADD DUP5 PUSH2 0x3D1B JUMP JUMPDEST SWAP3 SWAP2 POP POP JUMP JUMPDEST PUSH0 PUSH32 0xFF00000000000000000000000000000000000000000000000000000000000000 DUP3 AND SWAP1 POP SWAP2 SWAP1 POP JUMP JUMPDEST PUSH2 0x3D77 DUP2 PUSH2 0x3D43 JUMP JUMPDEST DUP3 MSTORE POP POP JUMP JUMPDEST PUSH0 DUP2 MLOAD SWAP1 POP SWAP2 SWAP1 POP JUMP JUMPDEST PUSH0 DUP3 DUP3 MSTORE PUSH1 0x20 DUP3 ADD SWAP1 POP SWAP3 SWAP2 POP POP JUMP JUMPDEST PUSH0 DUP2 SWAP1 POP PUSH1 0x20 DUP3 ADD SWAP1 POP SWAP2 SWAP1 POP JUMP JUMPDEST PUSH2 0x3DAF DUP2 PUSH2 0x398D JUMP JUMPDEST DUP3 MSTORE POP POP JUMP JUMPDEST PUSH0 PUSH2 0x3DC0 DUP4 DUP4 PUSH2 0x3DA6 JUMP JUMPDEST PUSH1 0x20 DUP4 ADD SWAP1 POP SWAP3 SWAP2 POP POP JUMP JUMPDEST PUSH0 PUSH1 0x20 DUP3 ADD SWAP1 POP SWAP2 SWAP1 POP JUMP JUMPDEST PUSH0 PUSH2 0x3DE2 DUP3 PUSH2 0x3D7D JUMP JUMPDEST PUSH2 0x3DEC DUP2 DUP6 PUSH2 0x3D87 JUMP JUMPDEST SWAP4 POP PUSH2 0x3DF7 DUP4 PUSH2 0x3D97 JUMP JUMPDEST DUP1 PUSH0 JUMPDEST DUP4 DUP2 LT ISZERO PUSH2 0x3E27 JUMPI DUP2 MLOAD PUSH2 0x3E0E DUP9 DUP3 PUSH2 0x3DB5 JUMP JUMPDEST SWAP8 POP PUSH2 0x3E19 DUP4 PUSH2 0x3DCC JUMP JUMPDEST SWAP3 POP POP PUSH1 0x1 DUP2 ADD SWAP1 POP PUSH2 0x3DFA JUMP JUMPDEST POP DUP6 SWAP4 POP POP POP POP SWAP3 SWAP2 POP POP JUMP JUMPDEST PUSH0 PUSH1 0xE0 DUP3 ADD SWAP1 POP PUSH2 0x3E47 PUSH0 DUP4 ADD DUP11 PUSH2 0x3D6E JUMP JUMPDEST DUP2 DUP2 SUB PUSH1 0x20 DUP4 ADD MSTORE PUSH2 0x3E59 DUP2 DUP10 PUSH2 0x38DB JUMP JUMPDEST SWAP1 POP DUP2 DUP2 SUB PUSH1 0x40 DUP4 ADD MSTORE PUSH2 0x3E6D DUP2 DUP9 PUSH2 0x38DB JUMP JUMPDEST SWAP1 POP PUSH2 0x3E7C PUSH1 0x60 DUP4 ADD DUP8 PUSH2 0x39FE JUMP JUMPDEST PUSH2 0x3E89 PUSH1 0x80 DUP4 ADD DUP7 PUSH2 0x3BC4 JUMP JUMPDEST PUSH2 0x3E96 PUSH1 0xA0 DUP4 ADD DUP6 PUSH2 0x3AD4 JUMP JUMPDEST DUP2 DUP2 SUB PUSH1 0xC0 DUP4 ADD MSTORE PUSH2 0x3EA8 DUP2 DUP5 PUSH2 0x3DD8 JUMP JUMPDEST SWAP1 POP SWAP9 SWAP8 POP POP POP POP POP POP POP POP JUMP JUMPDEST PUSH0 PUSH6 0xFFFFFFFFFFFF DUP3 AND SWAP1 POP SWAP2 SWAP1 POP JUMP JUMPDEST PUSH2 0x3ED0 DUP2 PUSH2 0x3EB6 JUMP JUMPDEST DUP3 MSTORE POP POP JUMP JUMPDEST PUSH0 PUSH1 0x20 DUP3 ADD SWAP1 POP PUSH2 0x3EE9 PUSH0 DUP4 ADD DUP5 PUSH2 0x3EC7 JUMP JUMPDEST SWAP3 SWAP2 POP POP JUMP JUMPDEST PUSH2 0x3EF8 DUP2 PUSH2 0x3B3A JUMP JUMPDEST DUP2 EQ PUSH2 0x3F02 JUMPI PUSH0 DUP1 REVERT JUMPDEST POP JUMP JUMPDEST PUSH0 DUP2 CALLDATALOAD SWAP1 POP PUSH2 0x3F13 DUP2 PUSH2 0x3EEF JUMP JUMPDEST SWAP3 SWAP2 POP POP JUMP JUMPDEST PUSH0 DUP1 PUSH0 DUP1 PUSH0 DUP1 PUSH1 0xC0 DUP8 DUP10 SUB SLT ISZERO PUSH2 0x3F33 JUMPI PUSH2 0x3F32 PUSH2 0x37E8 JUMP JUMPDEST JUMPDEST PUSH0 PUSH2 0x3F40 DUP10 DUP3 DUP11 ADD PUSH2 0x3979 JUMP JUMPDEST SWAP7 POP POP PUSH1 0x20 PUSH2 0x3F51 DUP10 DUP3 DUP11 ADD PUSH2 0x39AC JUMP JUMPDEST SWAP6 POP POP PUSH1 0x40 PUSH2 0x3F62 DUP10 DUP3 DUP11 ADD PUSH2 0x39AC JUMP JUMPDEST SWAP5 POP POP PUSH1 0x60 PUSH2 0x3F73 DUP10 DUP3 DUP11 ADD PUSH2 0x3F05 JUMP JUMPDEST SWAP4 POP POP PUSH1 0x80 PUSH2 0x3F84 DUP10 DUP3 DUP11 ADD PUSH2 0x3A95 JUMP JUMPDEST SWAP3 POP POP PUSH1 0xA0 PUSH2 0x3F95 DUP10 DUP3 DUP11 ADD PUSH2 0x3A95 JUMP JUMPDEST SWAP2 POP POP SWAP3 SWAP6 POP SWAP3 SWAP6 POP SWAP3 SWAP6 JUMP JUMPDEST PUSH0 DUP1 PUSH0 DUP1 PUSH0 DUP1 PUSH0 PUSH1 0xE0 DUP9 DUP11 SUB SLT ISZERO PUSH2 0x3FBD JUMPI PUSH2 0x3FBC PUSH2 0x37E8 JUMP JUMPDEST JUMPDEST PUSH0 PUSH2 0x3FCA DUP11 DUP3 DUP12 ADD PUSH2 0x3979 JUMP JUMPDEST SWAP8 POP POP PUSH1 0x20 PUSH2 0x3FDB DUP11 DUP3 DUP12 ADD PUSH2 0x3979 JUMP JUMPDEST SWAP7 POP POP PUSH1 0x40 PUSH2 0x3FEC DUP11 DUP3 DUP12 ADD PUSH2 0x39AC JUMP JUMPDEST SWAP6 POP POP PUSH1 0x60 PUSH2 0x3FFD DUP11 DUP3 DUP12 ADD PUSH2 0x39AC JUMP JUMPDEST SWAP5 POP POP PUSH1 0x80 PUSH2 0x400E DUP11 DUP3 DUP12 ADD PUSH2 0x3F05 JUMP JUMPDEST SWAP4 POP POP PUSH1 0xA0 PUSH2 0x401F DUP11 DUP3 DUP12 ADD PUSH2 0x3A95 JUMP JUMPDEST SWAP3 POP POP PUSH1 0xC0 PUSH2 0x4030 DUP11 DUP3 DUP12 ADD PUSH2 0x3A95 JUMP JUMPDEST SWAP2 POP POP SWAP3 SWAP6 SWAP9 SWAP2 SWAP5 SWAP8 POP SWAP3 SWAP6 POP JUMP JUMPDEST PUSH0 DUP1 PUSH1 0x40 DUP4 DUP6 SUB SLT ISZERO PUSH2 0x4055 JUMPI PUSH2 0x4054 PUSH2 0x37E8 JUMP JUMPDEST JUMPDEST PUSH0 PUSH2 0x4062 DUP6 DUP3 DUP7 ADD PUSH2 0x3979 JUMP JUMPDEST SWAP3 POP POP PUSH1 0x20 PUSH2 0x4073 DUP6 DUP3 DUP7 ADD PUSH2 0x3979 JUMP JUMPDEST SWAP2 POP POP SWAP3 POP SWAP3 SWAP1 POP JUMP JUMPDEST PUSH2 0x4086 DUP2 PUSH2 0x3D0C JUMP JUMPDEST DUP2 EQ PUSH2 0x4090 JUMPI PUSH0 DUP1 REVERT JUMPDEST POP JUMP JUMPDEST PUSH0 DUP2 CALLDATALOAD SWAP1 POP PUSH2 0x40A1 DUP2 PUSH2 0x407D JUMP JUMPDEST SWAP3 SWAP2 POP POP JUMP JUMPDEST PUSH0 DUP1 PUSH1 0x40 DUP4 DUP6 SUB SLT ISZERO PUSH2 0x40BD JUMPI PUSH2 0x40BC PUSH2 0x37E8 JUMP JUMPDEST JUMPDEST PUSH0 PUSH2 0x40CA DUP6 DUP3 DUP7 ADD PUSH2 0x3979 JUMP JUMPDEST SWAP3 POP POP PUSH1 0x20 PUSH2 0x40DB DUP6 DUP3 DUP7 ADD PUSH2 0x4093 JUMP JUMPDEST SWAP2 POP POP SWAP3 POP SWAP3 SWAP1 POP JUMP JUMPDEST PUSH2 0x40EE DUP2 PUSH2 0x3EB6 JUMP JUMPDEST DUP3 MSTORE POP POP JUMP JUMPDEST PUSH0 PUSH26 0xFFFFFFFFFFFFFFFFFFFFFFFFFFFFFFFFFFFFFFFFFFFFFFFFFFFF DUP3 AND SWAP1 POP SWAP2 SWAP1 POP JUMP JUMPDEST PUSH2 0x4122 DUP2 PUSH2 0x40F4 JUMP JUMPDEST DUP3 MSTORE POP POP JUMP JUMPDEST PUSH1 0x40 DUP3 ADD PUSH0 DUP3 ADD MLOAD PUSH2 0x413C PUSH0 DUP6 ADD DUP3 PUSH2 0x40E5 JUMP JUMPDEST POP PUSH1 0x20 DUP3 ADD MLOAD PUSH2 0x414F PUSH1 0x20 DUP6 ADD DUP3 PUSH2 0x4119 JUMP JUMPDEST POP POP POP POP JUMP JUMPDEST PUSH0 PUSH1 0x40 DUP3 ADD SWAP1 POP PUSH2 0x4168 PUSH0 DUP4 ADD DUP5 PUSH2 0x4128 JUMP JUMPDEST SWAP3 SWAP2 POP POP JUMP JUMPDEST PUSH32 0x4E487B7100000000000000000000000000000000000000000000000000000000 PUSH0 MSTORE PUSH1 0x22 PUSH1 0x4 MSTORE PUSH1 0x24 PUSH0 REVERT JUMPDEST PUSH0 PUSH1 0x2 DUP3 DIV SWAP1 POP PUSH1 0x1 DUP3 AND DUP1 PUSH2 0x41B2 JUMPI PUSH1 0x7F DUP3 AND SWAP2 POP JUMPDEST PUSH1 0x20 DUP3 LT DUP2 SUB PUSH2 0x41C5 JUMPI PUSH2 0x41C4 PUSH2 0x416E JUMP JUMPDEST JUMPDEST POP SWAP2 SWAP1 POP JUMP JUMPDEST PUSH0 PUSH1 0x40 DUP3 ADD SWAP1 POP PUSH2 0x41DE PUSH0 DUP4 ADD DUP6 PUSH2 0x39FE JUMP JUMPDEST PUSH2 0x41EB PUSH1 0x20 DUP4 ADD DUP5 PUSH2 0x3EC7 JUMP JUMPDEST SWAP4 SWAP3 POP POP POP JUMP JUMPDEST PUSH0 DUP3 DUP3 MSTORE PUSH1 0x20 DUP3 ADD SWAP1 POP SWAP3 SWAP2 POP POP JUMP JUMPDEST DUP3 DUP2 DUP4 CALLDATACOPY PUSH0 DUP4 DUP4 ADD MSTORE POP POP POP JUMP JUMPDEST PUSH0 PUSH2 0x421B DUP4 DUP6 PUSH2 0x41F2 JUMP JUMPDEST SWAP4 POP PUSH2 0x4228 DUP4 DUP6 DUP5 PUSH2 0x4202 JUMP JUMPDEST PUSH2 0x4231 DUP4 PUSH2 0x38CB JUMP JUMPDEST DUP5 ADD SWAP1 POP SWAP4 SWAP3 POP POP POP JUMP JUMPDEST PUSH0 PUSH1 0xA0 DUP3 ADD SWAP1 POP PUSH2 0x424F PUSH0 DUP4 ADD DUP10 PUSH2 0x3BC4 JUMP JUMPDEST PUSH2 0x425C PUSH1 0x20 DUP4 ADD DUP9 PUSH2 0x3BC4 JUMP JUMPDEST PUSH2 0x4269 PUSH1 0x40 DUP4 ADD DUP8 PUSH2 0x39FE JUMP JUMPDEST PUSH2 0x4276 PUSH1 0x60 DUP4 ADD DUP7 PUSH2 0x39FE JUMP JUMPDEST DUP2 DUP2 SUB PUSH1 0x80 DUP4 ADD MSTORE PUSH2 0x4289 DUP2 DUP5 DUP7 PUSH2 0x4210 JUMP JUMPDEST SWAP1 POP SWAP8 SWAP7 POP POP POP POP POP POP POP JUMP JUMPDEST PUSH0 DUP2 MLOAD SWAP1 POP PUSH2 0x42A4 DUP2 PUSH2 0x3A7F JUMP JUMPDEST SWAP3 SWAP2 POP POP JUMP JUMPDEST PUSH0 PUSH1 0x20 DUP3 DUP5 SUB SLT ISZERO PUSH2 0x42BF JUMPI PUSH2 0x42BE PUSH2 0x37E8 JUMP JUMPDEST JUMPDEST PUSH0 PUSH2 0x42CC DUP5 DUP3 DUP6 ADD PUSH2 0x4296 JUMP JUMPDEST SWAP2 POP POP SWAP3 SWAP2 POP POP JUMP JUMPDEST PUSH32 0x4E487B7100000000000000000000000000000000000000000000000000000000 PUSH0 MSTORE PUSH1 0x11 PUSH1 0x4 MSTORE PUSH1 0x24 PUSH0 REVERT JUMPDEST PUSH0 PUSH2 0x430C DUP3 PUSH2 0x398D JUMP JUMPDEST SWAP2 POP PUSH2 0x4317 DUP4 PUSH2 0x398D JUMP JUMPDEST SWAP3 POP DUP3 DUP3 ADD SWAP1 POP DUP1 DUP3 GT ISZERO PUSH2 0x432F JUMPI PUSH2 0x432E PUSH2 0x42D5 JUMP JUMPDEST JUMPDEST SWAP3 SWAP2 POP POP JUMP JUMPDEST PUSH0 PUSH2 0x433F DUP3 PUSH2 0x398D JUMP JUMPDEST SWAP2 POP PUSH2 0x434A DUP4 PUSH2 0x398D JUMP JUMPDEST SWAP3 POP DUP3 DUP3 SUB SWAP1 POP DUP2 DUP2 GT ISZERO PUSH2 0x4362 JUMPI PUSH2 0x4361 PUSH2 0x42D5 JUMP JUMPDEST JUMPDEST SWAP3 SWAP2 POP POP JUMP JUMPDEST PUSH32 0x4E487B7100000000000000000000000000000000000000000000000000000000 PUSH0 MSTORE PUSH1 0x41 PUSH1 0x4 MSTORE PUSH1 0x24 PUSH0 REVERT JUMPDEST PUSH0 PUSH1 0x80 DUP3 ADD SWAP1 POP PUSH2 0x43A8 PUSH0 DUP4 ADD DUP8 PUSH2 0x3AD4 JUMP JUMPDEST PUSH2 0x43B5 PUSH1 0x20 DUP4 ADD DUP7 PUSH2 0x3BC4 JUMP JUMPDEST PUSH2 0x43C2 PUSH1 0x40 DUP4 ADD DUP6 PUSH2 0x39FE JUMP JUMPDEST PUSH2 0x43CF PUSH1 0x60 DUP4 ADD DUP5 PUSH2 0x39FE JUMP JUMPDEST SWAP6 SWAP5 POP POP POP POP POP JUMP JUMPDEST PUSH0 PUSH1 0xC0 DUP3 ADD SWAP1 POP PUSH2 0x43EB PUSH0 DUP4 ADD DUP10 PUSH2 0x3AD4 JUMP JUMPDEST PUSH2 0x43F8 PUSH1 0x20 DUP4 ADD DUP9 PUSH2 0x3BC4 JUMP JUMPDEST PUSH2 0x4405 PUSH1 0x40 DUP4 ADD DUP8 PUSH2 0x3BC4 JUMP JUMPDEST PUSH2 0x4412 PUSH1 0x60 DUP4 ADD DUP7 PUSH2 0x39FE JUMP JUMPDEST PUSH2 0x441F PUSH1 0x80 DUP4 ADD DUP6 PUSH2 0x39FE JUMP JUMPDEST PUSH2 0x442C PUSH1 0xA0 DUP4 ADD DUP5 PUSH2 0x39FE JUMP JUMPDEST SWAP8 SWAP7 POP POP POP POP POP POP POP JUMP JUMPDEST PUSH0 PUSH1 0x40 DUP3 ADD SWAP1 POP PUSH2 0x444A PUSH0 DUP4 ADD DUP6 PUSH2 0x3BC4 JUMP JUMPDEST PUSH2 0x4457 PUSH1 0x20 DUP4 ADD DUP5 PUSH2 0x3BC4 JUMP JUMPDEST SWAP4 SWAP3 POP POP POP JUMP JUMPDEST PUSH0 PUSH2 0x4468 DUP3 PUSH2 0x40F4 JUMP JUMPDEST SWAP2 POP PUSH2 0x4473 DUP4 PUSH2 0x40F4 JUMP JUMPDEST SWAP3 POP DUP3 DUP3 ADD SWAP1 POP PUSH26 0xFFFFFFFFFFFFFFFFFFFFFFFFFFFFFFFFFFFFFFFFFFFFFFFFFFFF DUP2 GT ISZERO PUSH2 0x44A5 JUMPI PUSH2 0x44A4 PUSH2 0x42D5 JUMP JUMPDEST JUMPDEST SWAP3 SWAP2 POP POP JUMP JUMPDEST PUSH0 PUSH2 0x44B5 DUP3 PUSH2 0x40F4 JUMP JUMPDEST SWAP2 POP PUSH2 0x44C0 DUP4 PUSH2 0x40F4 JUMP JUMPDEST SWAP3 POP DUP3 DUP3 SUB SWAP1 POP PUSH26 0xFFFFFFFFFFFFFFFFFFFFFFFFFFFFFFFFFFFFFFFFFFFFFFFFFFFF DUP2 GT ISZERO PUSH2 0x44F2 JUMPI PUSH2 0x44F1 PUSH2 0x42D5 JUMP JUMPDEST JUMPDEST SWAP3 SWAP2 POP POP JUMP JUMPDEST PUSH0 PUSH1 0x60 DUP3 ADD SWAP1 POP PUSH2 0x450B PUSH0 DUP4 ADD DUP7 PUSH2 0x3BC4 JUMP JUMPDEST PUSH2 0x4518 PUSH1 0x20 DUP4 ADD DUP6 PUSH2 0x39FE JUMP JUMPDEST PUSH2 0x4525 PUSH1 0x40 DUP4 ADD DUP5 PUSH2 0x39FE JUMP JUMPDEST SWAP5 SWAP4 POP POP POP POP JUMP JUMPDEST PUSH0 DUP2 SWAP1 POP SWAP2 SWAP1 POP JUMP JUMPDEST PUSH0 DUP2 SWAP1 POP SWAP2 SWAP1 POP JUMP JUMPDEST PUSH0 PUSH2 0x4559 PUSH2 0x4554 PUSH2 0x454F DUP5 PUSH2 0x452D JUMP JUMPDEST PUSH2 0x4536 JUMP JUMPDEST PUSH2 0x3B3A JUMP JUMPDEST SWAP1 POP SWAP2 SWAP1 POP JUMP JUMPDEST PUSH2 0x4569 DUP2 PUSH2 0x453F JUMP JUMPDEST DUP3 MSTORE POP POP JUMP JUMPDEST PUSH0 PUSH1 0x40 DUP3 ADD SWAP1 POP PUSH2 0x4582 PUSH0 DUP4 ADD DUP6 PUSH2 0x4560 JUMP JUMPDEST PUSH2 0x458F PUSH1 0x20 DUP4 ADD DUP5 PUSH2 0x39FE JUMP JUMPDEST SWAP4 SWAP3 POP POP POP JUMP JUMPDEST PUSH0 PUSH1 0x40 DUP3 ADD SWAP1 POP PUSH2 0x45A9 PUSH0 DUP4 ADD DUP6 PUSH2 0x3BC4 JUMP JUMPDEST PUSH2 0x45B6 PUSH1 0x20 DUP4 ADD DUP5 PUSH2 0x39FE JUMP JUMPDEST SWAP4 SWAP3 POP POP POP JUMP JUMPDEST PUSH0 PUSH1 0x40 DUP3 ADD SWAP1 POP PUSH2 0x45D0 PUSH0 DUP4 ADD DUP6 PUSH2 0x3BC4 JUMP JUMPDEST PUSH2 0x45DD PUSH1 0x20 DUP4 ADD DUP5 PUSH2 0x3AD4 JUMP JUMPDEST SWAP4 SWAP3 POP POP POP JUMP JUMPDEST PUSH0 PUSH1 0xA0 DUP3 ADD SWAP1 POP PUSH2 0x45F7 PUSH0 DUP4 ADD DUP9 PUSH2 0x3AD4 JUMP JUMPDEST PUSH2 0x4604 PUSH1 0x20 DUP4 ADD DUP8 PUSH2 0x3AD4 JUMP JUMPDEST PUSH2 0x4611 PUSH1 0x40 DUP4 ADD DUP7 PUSH2 0x3AD4 JUMP JUMPDEST PUSH2 0x461E PUSH1 0x60 DUP4 ADD DUP6 PUSH2 0x39FE JUMP JUMPDEST PUSH2 0x462B PUSH1 0x80 DUP4 ADD DUP5 PUSH2 0x3BC4 JUMP JUMPDEST SWAP7 SWAP6 POP POP POP POP POP POP JUMP JUMPDEST PUSH32 0x4E487B7100000000000000000000000000000000000000000000000000000000 PUSH0 MSTORE PUSH1 0x12 PUSH1 0x4 MSTORE PUSH1 0x24 PUSH0 REVERT JUMPDEST PUSH0 PUSH1 0x40 DUP3 ADD SWAP1 POP PUSH2 0x4675 PUSH0 DUP4 ADD DUP6 PUSH2 0x39FE JUMP JUMPDEST PUSH2 0x4682 PUSH1 0x20 DUP4 ADD DUP5 PUSH2 0x39FE JUMP JUMPDEST SWAP4 SWAP3 POP POP POP JUMP JUMPDEST PUSH0 DUP2 SWAP1 POP SWAP2 SWAP1 POP JUMP JUMPDEST PUSH0 PUSH2 0x46AC PUSH2 0x46A7 PUSH2 0x46A2 DUP5 PUSH2 0x4689 JUMP JUMPDEST PUSH2 0x4536 JUMP JUMPDEST PUSH2 0x3B3A JUMP JUMPDEST SWAP1 POP SWAP2 SWAP1 POP JUMP JUMPDEST PUSH2 0x46BC DUP2 PUSH2 0x4692 JUMP JUMPDEST DUP3 MSTORE POP POP JUMP JUMPDEST PUSH0 PUSH1 0x40 DUP3 ADD SWAP1 POP PUSH2 0x46D5 PUSH0 DUP4 ADD DUP6 PUSH2 0x46B3 JUMP JUMPDEST PUSH2 0x46E2 PUSH1 0x20 DUP4 ADD DUP5 PUSH2 0x39FE JUMP JUMPDEST SWAP4 SWAP3 POP POP POP JUMP JUMPDEST PUSH0 PUSH1 0x80 DUP3 ADD SWAP1 POP PUSH2 0x46FC PUSH0 DUP4 ADD DUP8 PUSH2 0x3AD4 JUMP JUMPDEST PUSH2 0x4709 PUSH1 0x20 DUP4 ADD DUP7 PUSH2 0x3B46 JUMP JUMPDEST PUSH2 0x4716 PUSH1 0x40 DUP4 ADD DUP6 PUSH2 0x3AD4 JUMP JUMPDEST PUSH2 0x4723 PUSH1 0x60 DUP4 ADD DUP5 PUSH2 0x3AD4 JUMP JUMPDEST SWAP6 SWAP5 POP POP POP POP POP JUMP JUMPDEST PUSH32 0x4E487B7100000000000000000000000000000000000000000000000000000000 PUSH0 MSTORE PUSH1 0x21 PUSH1 0x4 MSTORE PUSH1 0x24 PUSH0 REVERT JUMPDEST PUSH32 0x4E487B7100000000000000000000000000000000000000000000000000000000 PUSH0 MSTORE PUSH1 0x32 PUSH1 0x4 MSTORE PUSH1 0x24 PUSH0 REVERT JUMPDEST PUSH0 PUSH2 0x4790 DUP3 PUSH2 0x398D JUMP JUMPDEST SWAP2 POP PUSH2 0x479B DUP4 PUSH2 0x398D JUMP JUMPDEST SWAP3 POP DUP3 PUSH2 0x47AB JUMPI PUSH2 0x47AA PUSH2 0x4635 JUMP JUMPDEST JUMPDEST DUP3 DUP3 DIV SWAP1 POP SWAP3 SWAP2 POP POP JUMP JUMPDEST PUSH0 DUP2 SWAP1 POP SWAP2 SWAP1 POP JUMP JUMPDEST PUSH0 PUSH2 0x47D9 PUSH2 0x47D4 PUSH2 0x47CF DUP5 PUSH2 0x47B6 JUMP JUMPDEST PUSH2 0x4536 JUMP JUMPDEST PUSH2 0x3B3A JUMP JUMPDEST SWAP1 POP SWAP2 SWAP1 POP JUMP JUMPDEST PUSH2 0x47E9 DUP2 PUSH2 0x47BF JUMP JUMPDEST DUP3 MSTORE POP POP JUMP JUMPDEST PUSH0 PUSH1 0x40 DUP3 ADD SWAP1 POP PUSH2 0x4802 PUSH0 DUP4 ADD DUP6 PUSH2 0x47E0 JUMP JUMPDEST PUSH2 0x480F PUSH1 0x20 DUP4 ADD DUP5 PUSH2 0x39FE JUMP JUMPDEST SWAP4 SWAP3 POP POP POP JUMP INVALID LOG2 PUSH5 0x6970667358 0x22 SLT KECCAK256 0xCC PUSH10 0x7200DB83602F30DD6F1D JUMPI DELEGATECALL SWAP9 SIGNEXTEND SHR PUSH30 0xE10D1A82FF63E781C6BD7629718164736F6C634300081900330000000000 "
		},
		"gasEstimates": {
			"creation": {
				"codeDepositCost": "3701600",
				"executionCost": "infinite",
				"totalCost": "infinite"
			},
			"external": {
				"CLOCK_MODE()": "infinite",
				"DEFAULT_ADMIN_ROLE()": "397",
				"DOMAIN_SEPARATOR()": "infinite",
				"MINTER_ROLE()": "369",
				"PAUSER_ROLE()": "457",
				"allowance(address,address)": "infinite",
				"approve(address,uint256)": "infinite",
				"balanceOf(address)": "2897",
				"burn(uint256)": "infinite",
				"burnFrom(address,uint256)": "infinite",
				"checkpoints(address,uint32)": "infinite",
				"clock()": "745",
				"decimals()": "428",
				"delegate(address)": "infinite",
				"delegateBySig(address,uint256,uint256,uint8,bytes32,bytes32)": "infinite",
				"delegates(address)": "infinite",
				"eip712Domain()": "infinite",
				"flashFee(address,uint256)": "infinite",
				"flashLoan(address,address,uint256,bytes)": "infinite",
				"getPastTotalSupply(uint256)": "infinite",
				"getPastVotes(address,uint256)": "infinite",
				"getRoleAdmin(bytes32)": "infinite",
				"getVotes(address)": "infinite",
				"grantRole(bytes32,address)": "infinite",
				"hasRole(bytes32,address)": "3211",
				"maxFlashLoan(address)": "infinite",
				"mint(address,uint256)": "infinite",
				"name()": "infinite",
				"nonces(address)": "3025",
				"numCheckpoints(address)": "3231",
				"pause()": "infinite",
				"paused()": "2562",
				"permit(address,address,uint256,uint256,uint8,bytes32,bytes32)": "infinite",
				"renounceRole(bytes32,address)": "infinite",
				"revokeRole(bytes32,address)": "infinite",
				"supportsInterface(bytes4)": "764",
				"symbol()": "infinite",
				"totalSupply()": "2545",
				"transfer(address,uint256)": "infinite",
				"transferFrom(address,address,uint256)": "infinite",
				"unpause()": "infinite"
			},
			"internal": {
				"_update(address,address,uint256)": "infinite"
			}
		},
		"methodIdentifiers": {
			"CLOCK_MODE()": "4bf5d7e9",
			"DEFAULT_ADMIN_ROLE()": "a217fddf",
			"DOMAIN_SEPARATOR()": "3644e515",
			"MINTER_ROLE()": "d5391393",
			"PAUSER_ROLE()": "e63ab1e9",
			"allowance(address,address)": "dd62ed3e",
			"approve(address,uint256)": "095ea7b3",
			"balanceOf(address)": "70a08231",
			"burn(uint256)": "42966c68",
			"burnFrom(address,uint256)": "79cc6790",
			"checkpoints(address,uint32)": "f1127ed8",
			"clock()": "91ddadf4",
			"decimals()": "313ce567",
			"delegate(address)": "5c19a95c",
			"delegateBySig(address,uint256,uint256,uint8,bytes32,bytes32)": "c3cda520",
			"delegates(address)": "587cde1e",
			"eip712Domain()": "84b0196e",
			"flashFee(address,uint256)": "d9d98ce4",
			"flashLoan(address,address,uint256,bytes)": "5cffe9de",
			"getPastTotalSupply(uint256)": "8e539e8c",
			"getPastVotes(address,uint256)": "3a46b1a8",
			"getRoleAdmin(bytes32)": "248a9ca3",
			"getVotes(address)": "9ab24eb0",
			"grantRole(bytes32,address)": "2f2ff15d",
			"hasRole(bytes32,address)": "91d14854",
			"maxFlashLoan(address)": "613255ab",
			"mint(address,uint256)": "40c10f19",
			"name()": "06fdde03",
			"nonces(address)": "7ecebe00",
			"numCheckpoints(address)": "6fcfff45",
			"pause()": "8456cb59",
			"paused()": "5c975abb",
			"permit(address,address,uint256,uint256,uint8,bytes32,bytes32)": "d505accf",
			"renounceRole(bytes32,address)": "36568abe",
			"revokeRole(bytes32,address)": "d547741f",
			"supportsInterface(bytes4)": "01ffc9a7",
			"symbol()": "95d89b41",
			"totalSupply()": "18160ddd",
			"transfer(address,uint256)": "a9059cbb",
			"transferFrom(address,address,uint256)": "23b872dd",
			"unpause()": "3f4ba83a"
		}
	},
	"abi": [
		{
			"inputs": [
				{
					"internalType": "address",
					"name": "defaultAdmin",
					"type": "address"
				},
				{
					"internalType": "address",
					"name": "pauser",
					"type": "address"
				},
				{
					"internalType": "address",
					"name": "minter",
					"type": "address"
				}
			],
			"stateMutability": "nonpayable",
			"type": "constructor"
		},
		{
			"inputs": [],
			"name": "AccessControlBadConfirmation",
			"type": "error"
		},
		{
			"inputs": [
				{
					"internalType": "address",
					"name": "account",
					"type": "address"
				},
				{
					"internalType": "bytes32",
					"name": "neededRole",
					"type": "bytes32"
				}
			],
			"name": "AccessControlUnauthorizedAccount",
			"type": "error"
		},
		{
			"inputs": [],
			"name": "CheckpointUnorderedInsertion",
			"type": "error"
		},
		{
			"inputs": [],
			"name": "ECDSAInvalidSignature",
			"type": "error"
		},
		{
			"inputs": [
				{
					"internalType": "uint256",
					"name": "length",
					"type": "uint256"
				}
			],
			"name": "ECDSAInvalidSignatureLength",
			"type": "error"
		},
		{
			"inputs": [
				{
					"internalType": "bytes32",
					"name": "s",
					"type": "bytes32"
				}
			],
			"name": "ECDSAInvalidSignatureS",
			"type": "error"
		},
		{
			"inputs": [
				{
					"internalType": "uint256",
					"name": "increasedSupply",
					"type": "uint256"
				},
				{
					"internalType": "uint256",
					"name": "cap",
					"type": "uint256"
				}
			],
			"name": "ERC20ExceededSafeSupply",
			"type": "error"
		},
		{
			"inputs": [
				{
					"internalType": "address",
					"name": "spender",
					"type": "address"
				},
				{
					"internalType": "uint256",
					"name": "allowance",
					"type": "uint256"
				},
				{
					"internalType": "uint256",
					"name": "needed",
					"type": "uint256"
				}
			],
			"name": "ERC20InsufficientAllowance",
			"type": "error"
		},
		{
			"inputs": [
				{
					"internalType": "address",
					"name": "sender",
					"type": "address"
				},
				{
					"internalType": "uint256",
					"name": "balance",
					"type": "uint256"
				},
				{
					"internalType": "uint256",
					"name": "needed",
					"type": "uint256"
				}
			],
			"name": "ERC20InsufficientBalance",
			"type": "error"
		},
		{
			"inputs": [
				{
					"internalType": "address",
					"name": "approver",
					"type": "address"
				}
			],
			"name": "ERC20InvalidApprover",
			"type": "error"
		},
		{
			"inputs": [
				{
					"internalType": "address",
					"name": "receiver",
					"type": "address"
				}
			],
			"name": "ERC20InvalidReceiver",
			"type": "error"
		},
		{
			"inputs": [
				{
					"internalType": "address",
					"name": "sender",
					"type": "address"
				}
			],
			"name": "ERC20InvalidSender",
			"type": "error"
		},
		{
			"inputs": [
				{
					"internalType": "address",
					"name": "spender",
					"type": "address"
				}
			],
			"name": "ERC20InvalidSpender",
			"type": "error"
		},
		{
			"inputs": [
				{
					"internalType": "uint256",
					"name": "deadline",
					"type": "uint256"
				}
			],
			"name": "ERC2612ExpiredSignature",
			"type": "error"
		},
		{
			"inputs": [
				{
					"internalType": "address",
					"name": "signer",
					"type": "address"
				},
				{
					"internalType": "address",
					"name": "owner",
					"type": "address"
				}
			],
			"name": "ERC2612InvalidSigner",
			"type": "error"
		},
		{
			"inputs": [
				{
					"internalType": "uint256",
					"name": "maxLoan",
					"type": "uint256"
				}
			],
			"name": "ERC3156ExceededMaxLoan",
			"type": "error"
		},
		{
			"inputs": [
				{
					"internalType": "address",
					"name": "receiver",
					"type": "address"
				}
			],
			"name": "ERC3156InvalidReceiver",
			"type": "error"
		},
		{
			"inputs": [
				{
					"internalType": "address",
					"name": "token",
					"type": "address"
				}
			],
			"name": "ERC3156UnsupportedToken",
			"type": "error"
		},
		{
			"inputs": [
				{
					"internalType": "uint256",
					"name": "timepoint",
					"type": "uint256"
				},
				{
					"internalType": "uint48",
					"name": "clock",
					"type": "uint48"
				}
			],
			"name": "ERC5805FutureLookup",
			"type": "error"
		},
		{
			"inputs": [],
			"name": "ERC6372InconsistentClock",
			"type": "error"
		},
		{
			"inputs": [],
			"name": "EnforcedPause",
			"type": "error"
		},
		{
			"inputs": [],
			"name": "ExpectedPause",
			"type": "error"
		},
		{
			"inputs": [
				{
					"internalType": "address",
					"name": "account",
					"type": "address"
				},
				{
					"internalType": "uint256",
					"name": "currentNonce",
					"type": "uint256"
				}
			],
			"name": "InvalidAccountNonce",
			"type": "error"
		},
		{
			"inputs": [],
			"name": "InvalidShortString",
			"type": "error"
		},
		{
			"inputs": [
				{
					"internalType": "uint8",
					"name": "bits",
					"type": "uint8"
				},
				{
					"internalType": "uint256",
					"name": "value",
					"type": "uint256"
				}
			],
			"name": "SafeCastOverflowedUintDowncast",
			"type": "error"
		},
		{
			"inputs": [
				{
					"internalType": "string",
					"name": "str",
					"type": "string"
				}
			],
			"name": "StringTooLong",
			"type": "error"
		},
		{
			"inputs": [
				{
					"internalType": "uint256",
					"name": "expiry",
					"type": "uint256"
				}
			],
			"name": "VotesExpiredSignature",
			"type": "error"
		},
		{
			"anonymous": false,
			"inputs": [
				{
					"indexed": true,
					"internalType": "address",
					"name": "owner",
					"type": "address"
				},
				{
					"indexed": true,
					"internalType": "address",
					"name": "spender",
					"type": "address"
				},
				{
					"indexed": false,
					"internalType": "uint256",
					"name": "value",
					"type": "uint256"
				}
			],
			"name": "Approval",
			"type": "event"
		},
		{
			"anonymous": false,
			"inputs": [
				{
					"indexed": true,
					"internalType": "address",
					"name": "delegator",
					"type": "address"
				},
				{
					"indexed": true,
					"internalType": "address",
					"name": "fromDelegate",
					"type": "address"
				},
				{
					"indexed": true,
					"internalType": "address",
					"name": "toDelegate",
					"type": "address"
				}
			],
			"name": "DelegateChanged",
			"type": "event"
		},
		{
			"anonymous": false,
			"inputs": [
				{
					"indexed": true,
					"internalType": "address",
					"name": "delegate",
					"type": "address"
				},
				{
					"indexed": false,
					"internalType": "uint256",
					"name": "previousVotes",
					"type": "uint256"
				},
				{
					"indexed": false,
					"internalType": "uint256",
					"name": "newVotes",
					"type": "uint256"
				}
			],
			"name": "DelegateVotesChanged",
			"type": "event"
		},
		{
			"anonymous": false,
			"inputs": [],
			"name": "EIP712DomainChanged",
			"type": "event"
		},
		{
			"anonymous": false,
			"inputs": [
				{
					"indexed": false,
					"internalType": "address",
					"name": "account",
					"type": "address"
				}
			],
			"name": "Paused",
			"type": "event"
		},
		{
			"anonymous": false,
			"inputs": [
				{
					"indexed": true,
					"internalType": "bytes32",
					"name": "role",
					"type": "bytes32"
				},
				{
					"indexed": true,
					"internalType": "bytes32",
					"name": "previousAdminRole",
					"type": "bytes32"
				},
				{
					"indexed": true,
					"internalType": "bytes32",
					"name": "newAdminRole",
					"type": "bytes32"
				}
			],
			"name": "RoleAdminChanged",
			"type": "event"
		},
		{
			"anonymous": false,
			"inputs": [
				{
					"indexed": true,
					"internalType": "bytes32",
					"name": "role",
					"type": "bytes32"
				},
				{
					"indexed": true,
					"internalType": "address",
					"name": "account",
					"type": "address"
				},
				{
					"indexed": true,
					"internalType": "address",
					"name": "sender",
					"type": "address"
				}
			],
			"name": "RoleGranted",
			"type": "event"
		},
		{
			"anonymous": false,
			"inputs": [
				{
					"indexed": true,
					"internalType": "bytes32",
					"name": "role",
					"type": "bytes32"
				},
				{
					"indexed": true,
					"internalType": "address",
					"name": "account",
					"type": "address"
				},
				{
					"indexed": true,
					"internalType": "address",
					"name": "sender",
					"type": "address"
				}
			],
			"name": "RoleRevoked",
			"type": "event"
		},
		{
			"anonymous": false,
			"inputs": [
				{
					"indexed": true,
					"internalType": "address",
					"name": "from",
					"type": "address"
				},
				{
					"indexed": true,
					"internalType": "address",
					"name": "to",
					"type": "address"
				},
				{
					"indexed": false,
					"internalType": "uint256",
					"name": "value",
					"type": "uint256"
				}
			],
			"name": "Transfer",
			"type": "event"
		},
		{
			"anonymous": false,
			"inputs": [
				{
					"indexed": false,
					"internalType": "address",
					"name": "account",
					"type": "address"
				}
			],
			"name": "Unpaused",
			"type": "event"
		},
		{
			"inputs": [],
			"name": "CLOCK_MODE",
			"outputs": [
				{
					"internalType": "string",
					"name": "",
					"type": "string"
				}
			],
			"stateMutability": "view",
			"type": "function"
		},
		{
			"inputs": [],
			"name": "DEFAULT_ADMIN_ROLE",
			"outputs": [
				{
					"internalType": "bytes32",
					"name": "",
					"type": "bytes32"
				}
			],
			"stateMutability": "view",
			"type": "function"
		},
		{
			"inputs": [],
			"name": "DOMAIN_SEPARATOR",
			"outputs": [
				{
					"internalType": "bytes32",
					"name": "",
					"type": "bytes32"
				}
			],
			"stateMutability": "view",
			"type": "function"
		},
		{
			"inputs": [],
			"name": "MINTER_ROLE",
			"outputs": [
				{
					"internalType": "bytes32",
					"name": "",
					"type": "bytes32"
				}
			],
			"stateMutability": "view",
			"type": "function"
		},
		{
			"inputs": [],
			"name": "PAUSER_ROLE",
			"outputs": [
				{
					"internalType": "bytes32",
					"name": "",
					"type": "bytes32"
				}
			],
			"stateMutability": "view",
			"type": "function"
		},
		{
			"inputs": [
				{
					"internalType": "address",
					"name": "owner",
					"type": "address"
				},
				{
					"internalType": "address",
					"name": "spender",
					"type": "address"
				}
			],
			"name": "allowance",
			"outputs": [
				{
					"internalType": "uint256",
					"name": "",
					"type": "uint256"
				}
			],
			"stateMutability": "view",
			"type": "function"
		},
		{
			"inputs": [
				{
					"internalType": "address",
					"name": "spender",
					"type": "address"
				},
				{
					"internalType": "uint256",
					"name": "value",
					"type": "uint256"
				}
			],
			"name": "approve",
			"outputs": [
				{
					"internalType": "bool",
					"name": "",
					"type": "bool"
				}
			],
			"stateMutability": "nonpayable",
			"type": "function"
		},
		{
			"inputs": [
				{
					"internalType": "address",
					"name": "account",
					"type": "address"
				}
			],
			"name": "balanceOf",
			"outputs": [
				{
					"internalType": "uint256",
					"name": "",
					"type": "uint256"
				}
			],
			"stateMutability": "view",
			"type": "function"
		},
		{
			"inputs": [
				{
					"internalType": "uint256",
					"name": "value",
					"type": "uint256"
				}
			],
			"name": "burn",
			"outputs": [],
			"stateMutability": "nonpayable",
			"type": "function"
		},
		{
			"inputs": [
				{
					"internalType": "address",
					"name": "account",
					"type": "address"
				},
				{
					"internalType": "uint256",
					"name": "value",
					"type": "uint256"
				}
			],
			"name": "burnFrom",
			"outputs": [],
			"stateMutability": "nonpayable",
			"type": "function"
		},
		{
			"inputs": [
				{
					"internalType": "address",
					"name": "account",
					"type": "address"
				},
				{
					"internalType": "uint32",
					"name": "pos",
					"type": "uint32"
				}
			],
			"name": "checkpoints",
			"outputs": [
				{
					"components": [
						{
							"internalType": "uint48",
							"name": "_key",
							"type": "uint48"
						},
						{
							"internalType": "uint208",
							"name": "_value",
							"type": "uint208"
						}
					],
					"internalType": "struct Checkpoints.Checkpoint208",
					"name": "",
					"type": "tuple"
				}
			],
			"stateMutability": "view",
			"type": "function"
		},
		{
			"inputs": [],
			"name": "clock",
			"outputs": [
				{
					"internalType": "uint48",
					"name": "",
					"type": "uint48"
				}
			],
			"stateMutability": "view",
			"type": "function"
		},
		{
			"inputs": [],
			"name": "decimals",
			"outputs": [
				{
					"internalType": "uint8",
					"name": "",
					"type": "uint8"
				}
			],
			"stateMutability": "view",
			"type": "function"
		},
		{
			"inputs": [
				{
					"internalType": "address",
					"name": "delegatee",
					"type": "address"
				}
			],
			"name": "delegate",
			"outputs": [],
			"stateMutability": "nonpayable",
			"type": "function"
		},
		{
			"inputs": [
				{
					"internalType": "address",
					"name": "delegatee",
					"type": "address"
				},
				{
					"internalType": "uint256",
					"name": "nonce",
					"type": "uint256"
				},
				{
					"internalType": "uint256",
					"name": "expiry",
					"type": "uint256"
				},
				{
					"internalType": "uint8",
					"name": "v",
					"type": "uint8"
				},
				{
					"internalType": "bytes32",
					"name": "r",
					"type": "bytes32"
				},
				{
					"internalType": "bytes32",
					"name": "s",
					"type": "bytes32"
				}
			],
			"name": "delegateBySig",
			"outputs": [],
			"stateMutability": "nonpayable",
			"type": "function"
		},
		{
			"inputs": [
				{
					"internalType": "address",
					"name": "account",
					"type": "address"
				}
			],
			"name": "delegates",
			"outputs": [
				{
					"internalType": "address",
					"name": "",
					"type": "address"
				}
			],
			"stateMutability": "view",
			"type": "function"
		},
		{
			"inputs": [],
			"name": "eip712Domain",
			"outputs": [
				{
					"internalType": "bytes1",
					"name": "fields",
					"type": "bytes1"
				},
				{
					"internalType": "string",
					"name": "name",
					"type": "string"
				},
				{
					"internalType": "string",
					"name": "version",
					"type": "string"
				},
				{
					"internalType": "uint256",
					"name": "chainId",
					"type": "uint256"
				},
				{
					"internalType": "address",
					"name": "verifyingContract",
					"type": "address"
				},
				{
					"internalType": "bytes32",
					"name": "salt",
					"type": "bytes32"
				},
				{
					"internalType": "uint256[]",
					"name": "extensions",
					"type": "uint256[]"
				}
			],
			"stateMutability": "view",
			"type": "function"
		},
		{
			"inputs": [
				{
					"internalType": "address",
					"name": "token",
					"type": "address"
				},
				{
					"internalType": "uint256",
					"name": "value",
					"type": "uint256"
				}
			],
			"name": "flashFee",
			"outputs": [
				{
					"internalType": "uint256",
					"name": "",
					"type": "uint256"
				}
			],
			"stateMutability": "view",
			"type": "function"
		},
		{
			"inputs": [
				{
					"internalType": "contract IERC3156FlashBorrower",
					"name": "receiver",
					"type": "address"
				},
				{
					"internalType": "address",
					"name": "token",
					"type": "address"
				},
				{
					"internalType": "uint256",
					"name": "value",
					"type": "uint256"
				},
				{
					"internalType": "bytes",
					"name": "data",
					"type": "bytes"
				}
			],
			"name": "flashLoan",
			"outputs": [
				{
					"internalType": "bool",
					"name": "",
					"type": "bool"
				}
			],
			"stateMutability": "nonpayable",
			"type": "function"
		},
		{
			"inputs": [
				{
					"internalType": "uint256",
					"name": "timepoint",
					"type": "uint256"
				}
			],
			"name": "getPastTotalSupply",
			"outputs": [
				{
					"internalType": "uint256",
					"name": "",
					"type": "uint256"
				}
			],
			"stateMutability": "view",
			"type": "function"
		},
		{
			"inputs": [
				{
					"internalType": "address",
					"name": "account",
					"type": "address"
				},
				{
					"internalType": "uint256",
					"name": "timepoint",
					"type": "uint256"
				}
			],
			"name": "getPastVotes",
			"outputs": [
				{
					"internalType": "uint256",
					"name": "",
					"type": "uint256"
				}
			],
			"stateMutability": "view",
			"type": "function"
		},
		{
			"inputs": [
				{
					"internalType": "bytes32",
					"name": "role",
					"type": "bytes32"
				}
			],
			"name": "getRoleAdmin",
			"outputs": [
				{
					"internalType": "bytes32",
					"name": "",
					"type": "bytes32"
				}
			],
			"stateMutability": "view",
			"type": "function"
		},
		{
			"inputs": [
				{
					"internalType": "address",
					"name": "account",
					"type": "address"
				}
			],
			"name": "getVotes",
			"outputs": [
				{
					"internalType": "uint256",
					"name": "",
					"type": "uint256"
				}
			],
			"stateMutability": "view",
			"type": "function"
		},
		{
			"inputs": [
				{
					"internalType": "bytes32",
					"name": "role",
					"type": "bytes32"
				},
				{
					"internalType": "address",
					"name": "account",
					"type": "address"
				}
			],
			"name": "grantRole",
			"outputs": [],
			"stateMutability": "nonpayable",
			"type": "function"
		},
		{
			"inputs": [
				{
					"internalType": "bytes32",
					"name": "role",
					"type": "bytes32"
				},
				{
					"internalType": "address",
					"name": "account",
					"type": "address"
				}
			],
			"name": "hasRole",
			"outputs": [
				{
					"internalType": "bool",
					"name": "",
					"type": "bool"
				}
			],
			"stateMutability": "view",
			"type": "function"
		},
		{
			"inputs": [
				{
					"internalType": "address",
					"name": "token",
					"type": "address"
				}
			],
			"name": "maxFlashLoan",
			"outputs": [
				{
					"internalType": "uint256",
					"name": "",
					"type": "uint256"
				}
			],
			"stateMutability": "view",
			"type": "function"
		},
		{
			"inputs": [
				{
					"internalType": "address",
					"name": "to",
					"type": "address"
				},
				{
					"internalType": "uint256",
					"name": "amount",
					"type": "uint256"
				}
			],
			"name": "mint",
			"outputs": [],
			"stateMutability": "nonpayable",
			"type": "function"
		},
		{
			"inputs": [],
			"name": "name",
			"outputs": [
				{
					"internalType": "string",
					"name": "",
					"type": "string"
				}
			],
			"stateMutability": "view",
			"type": "function"
		},
		{
			"inputs": [
				{
					"internalType": "address",
					"name": "owner",
					"type": "address"
				}
			],
			"name": "nonces",
			"outputs": [
				{
					"internalType": "uint256",
					"name": "",
					"type": "uint256"
				}
			],
			"stateMutability": "view",
			"type": "function"
		},
		{
			"inputs": [
				{
					"internalType": "address",
					"name": "account",
					"type": "address"
				}
			],
			"name": "numCheckpoints",
			"outputs": [
				{
					"internalType": "uint32",
					"name": "",
					"type": "uint32"
				}
			],
			"stateMutability": "view",
			"type": "function"
		},
		{
			"inputs": [],
			"name": "pause",
			"outputs": [],
			"stateMutability": "nonpayable",
			"type": "function"
		},
		{
			"inputs": [],
			"name": "paused",
			"outputs": [
				{
					"internalType": "bool",
					"name": "",
					"type": "bool"
				}
			],
			"stateMutability": "view",
			"type": "function"
		},
		{
			"inputs": [
				{
					"internalType": "address",
					"name": "owner",
					"type": "address"
				},
				{
					"internalType": "address",
					"name": "spender",
					"type": "address"
				},
				{
					"internalType": "uint256",
					"name": "value",
					"type": "uint256"
				},
				{
					"internalType": "uint256",
					"name": "deadline",
					"type": "uint256"
				},
				{
					"internalType": "uint8",
					"name": "v",
					"type": "uint8"
				},
				{
					"internalType": "bytes32",
					"name": "r",
					"type": "bytes32"
				},
				{
					"internalType": "bytes32",
					"name": "s",
					"type": "bytes32"
				}
			],
			"name": "permit",
			"outputs": [],
			"stateMutability": "nonpayable",
			"type": "function"
		},
		{
			"inputs": [
				{
					"internalType": "bytes32",
					"name": "role",
					"type": "bytes32"
				},
				{
					"internalType": "address",
					"name": "callerConfirmation",
					"type": "address"
				}
			],
			"name": "renounceRole",
			"outputs": [],
			"stateMutability": "nonpayable",
			"type": "function"
		},
		{
			"inputs": [
				{
					"internalType": "bytes32",
					"name": "role",
					"type": "bytes32"
				},
				{
					"internalType": "address",
					"name": "account",
					"type": "address"
				}
			],
			"name": "revokeRole",
			"outputs": [],
			"stateMutability": "nonpayable",
			"type": "function"
		},
		{
			"inputs": [
				{
					"internalType": "bytes4",
					"name": "interfaceId",
					"type": "bytes4"
				}
			],
			"name": "supportsInterface",
			"outputs": [
				{
					"internalType": "bool",
					"name": "",
					"type": "bool"
				}
			],
			"stateMutability": "view",
			"type": "function"
		},
		{
			"inputs": [],
			"name": "symbol",
			"outputs": [
				{
					"internalType": "string",
					"name": "",
					"type": "string"
				}
			],
			"stateMutability": "view",
			"type": "function"
		},
		{
			"inputs": [],
			"name": "totalSupply",
			"outputs": [
				{
					"internalType": "uint256",
					"name": "",
					"type": "uint256"
				}
			],
			"stateMutability": "view",
			"type": "function"
		},
		{
			"inputs": [
				{
					"internalType": "address",
					"name": "to",
					"type": "address"
				},
				{
					"internalType": "uint256",
					"name": "value",
					"type": "uint256"
				}
			],
			"name": "transfer",
			"outputs": [
				{
					"internalType": "bool",
					"name": "",
					"type": "bool"
				}
			],
			"stateMutability": "nonpayable",
			"type": "function"
		},
		{
			"inputs": [
				{
					"internalType": "address",
					"name": "from",
					"type": "address"
				},
				{
					"internalType": "address",
					"name": "to",
					"type": "address"
				},
				{
					"internalType": "uint256",
					"name": "value",
					"type": "uint256"
				}
			],
			"name": "transferFrom",
			"outputs": [
				{
					"internalType": "bool",
					"name": "",
					"type": "bool"
				}
			],
			"stateMutability": "nonpayable",
			"type": "function"
		},
		{
			"inputs": [],
			"name": "unpause",
			"outputs": [],
			"stateMutability": "nonpayable",
			"type": "function"
		}
	]
}